:020000040000FA
:1000000080FDFF1F650100006D0100006F01000011
:1000100000000000000000000000000000000000E0
:10002000000000000000000000000000710100005E
:1000300000000000000000007301000075010000D6
:1000400077010000770100007701000077010000D0
:1000500077010000770100007701000077010000C0
:1000600077010000770100007701000077010000B0
:10007000AD0500007701000077010000610300007A
:100080007701000077010000770100007701000090
:100090007701000077010000770100007701000080
:1000A0007701000077010000770100007701000070
:1000B0007701000077010000770100007701000060
:1000C00000F002F800F03EF80CA030C80838241800
:1000D0002D18A246671EAB4654465D46AC4201D180
:1000E00000F030F87E460F3E0FCCB6460126334274
:1000F00000D0FB1AA246AB463343184784080000E1
:10010000A4080000103A02D378C878C1FAD8520780
:1001100001D330C830C101D504680C6070470000BD
:100120000023002400250026103A01D378C1FBD813
:10013000520700D330C100D50B6070471FB51FBDFB
:1001400010B510BD00F0D8F81146FFF7F7FF00F02A
:10015000C1FA00F0F0F803B4FFF7F2FF03BC00F0BF
:10016000F7F800000748804707480047FEE7FEE72A
:10017000FEE7FEE7FEE7FEE704480549034A054BB4
:100180007047000099030000C100000080FCFF1FC1
:1001900080FDFF1F80FCFF1F002203098B422CD330
:1001A000030A8B4211D300239C464EE003460B43C7
:1001B0003CD4002243088B4231D303098B421CD329
:1001C000030A8B4201D394463FE0C3098B4201D31B
:1001D000CB01C01A524183098B4201D38B01C01A53
:1001E000524143098B4201D34B01C01A52410309CA
:1001F0008B4201D30B01C01A5241C3088B4201D379
:10020000CB00C01A524183088B4201D38B00C01A25
:10021000524143088B4201D34B00C01A5241411A4C
:1002200000D201465241104670475DE0CA0F00D02F
:100230004942031000D34042534000229C46030928
:100240008B422DD3030A8B4212D3FC22890112BAAE
:10025000030A8B420CD3890192118B4208D3890186
:1002600092118B4204D389013AD0921100E089099E
:10027000C3098B4201D3CB01C01A524183098B427F
:1002800001D38B01C01A524143098B4201D34B0168
:10029000C01A524103098B4201D30B01C01A5241CB
:1002A000C3088B4201D3CB00C01A524183088B4252
:1002B00001D38B00C01A5241D9D243088B4201D3DB
:1002C0004B00C01A5241411A00D2014663465241C6
:1002D0005B10104601D34042002B00D549427047C5
:1002E00063465B1000D3404201B50020C046C046C3
:1002F00002BD704770477047754600F025F8AE465E
:10030000050069465346C008C000854618B020B5B0
:10031000FFF732FF60BC00274908B6460026C0C57B
:10032000C0C5C0C5C0C5C0C5C0C5C0C5C0C5403DAD
:1003300049008D46704710B50446C046C046204669
:10034000FFF709FF10BD00000048704720FCFF1FA9
:1003500001491820ABBEFEE72600020070470000EE
:1003600010B5094800690949088009480078002843
:1003700006D1084600880749086001200449087032
:100380000F2000F097F910BD00B003401AFCFF1FCA
:1003900019FCFF1F1CFCFF1F0020134908600120EF
:1003A00000041149C0394860062010490870002037
:1003B00048700846C0788006800E202108430B490B
:1003C000C87080200A49087000BF08488079102151
:1003D00008400028F9D000BF044880790C2108406B
:1003E0000028F9D170470000008104400040064019
:1003F0000050064000000000000000000000000067
:10040000FFFFFFFFFFFFFFFFFFFFFFFFFEFFFFFFFD
:100410006048C06B0122D20610435E4AD06310468A
:10042000806B521510435B4A90631046806B121527
:100430001043584A90635848006A574A1062104661
:10044000406A50625548006A544A1062104600687B
:1004500010601046406A50624F48406B4E4A5063ED
:100460001046006A022290434B4A10621046406ACE
:1004700002229043484A50624848006A0222904350
:10048000464A10621046006802229043434A1060B8
:100490001046406A02229043404A50623E48406BF8
:1004A000022290433C4A506351203D4A9060042010
:1004B000D060072050621046406A80221043384ABC
:1004C000506200BF3648406A802210400028F9D1AF
:1004D0003348406A40221040002806D03048406A25
:1004E00010432F4A50620120704700212C484030B1
:1004F000C068401881B22A4840308068401881B2F4
:10050000274840304068401881B225484030006894
:10051000401881B22248C06B401881B22048806BDD
:10052000401881B21E48406B401881B20846CA0F7D
:10053000121851100120C00301431948C1621F2045
:10054000174A10601046C06804221043144AD06055
:10055000152090601046406A08221043104A5062ED
:100560000F20002805DBC306DB0E01229A400D4B4D
:100570001A6000BF0F20002809DB00BF00BFC306C0
:10058000DB0E01229A40084B1A6000BF00BF00BF7B
:100590000020A9E70080044000A00440009004402F
:1005A00000B0034080E200E000E100E010B50C483C
:1005B00000792021084000280ED00948C079094957
:1005C000087009480078002806D1084600780749D5
:1005D00008700120044908700C2000F06BF810BD71
:1005E00000A0064011FCFF1F18FCFF1F00FCFF1FAE
:1005F0002B48406B0121890208432949486308467A
:10060000806B091508432649886308464068012124
:100610008906084322494860481522494860886095
:100620002148C0780C2188431F49C87000200870F9
:100630005B2048700846807A40094001887208466D
:10064000807A0F210843184988720846C07A02212F
:1006500008431549C8720846C0782021084312494A
:10066000C8700846C0780C2108430F49C8700C2098
:10067000002809DB00BF00BFC206D20E0121914055
:100680000A4A116000BF00BF00BF0C20002805DB34
:10069000C206D20E01219140054A116000BF704789
:1006A0000080044000A0044000A0064000E100E0FB
:1006B00080E200E0002809DB00BF00BFC206D20EC6
:1006C00001219140024A116000BF00BF7047000045
:1006D00000E100E0FFF78CFFFFF79AFE0646002ED0
:1006E0000BD000BF9F480079802108400028F9D036
:1006F00039209C49C87100BFFEE70B209A49086069
:1007000040209A4908602CE1994800780028FAD0E6
:1007100098480078302844D10020974908709248C2
:100720000068C006C00E402108439049086000BF21
:10073000914800780028FBD07D24E400032519E0CF
:1007400000BF88480079802108400028F9D0214660
:100750008A480068FFF72AFD07460A21FFF726FDB1
:100760003031C8B27F49C8710A212046FFF71EFD0B
:1007700004466D1E002DE3DA00BF7A48007980211F
:1007800008400028F9D00D207649C87100BF75488F
:100790000079802108400028F9D00A207149C871E9
:1007A00000BF74480078312820D100BF6D4800791F
:1007B000802108400028F9D062206A49C87100BF32
:1007C00068480079802108400028F9D00D2065494B
:1007D000C87100BF63480079802108400028F9D023
:1007E0000A206049C8710B205F49086061480078A1
:1007F00032281FD100BF5B480079802108400028C3
:10080000F9D063205749C87100BF5648007980214C
:1008100008400028F9D00D205249C87100BF514846
:100820000079802108400028F9D00A204D49C8717C
:100830004D4908604F480078332820D100BF49480F
:100840000079802108400028F9D064204549C8710A
:1008500000BF44480079802108400028F9D00D20CD
:100860004049C87100BF3F480079802108400028F6
:10087000F9D00A203B49C87103203B4908603D4834
:100880000078342820D100BF364800798021084004
:100890000028F9D065203349C87100BF314800797C
:1008A000802108400028F9D00D202E49C87100BFD2
:1008B0002C480079802108400028F9D00A202949D5
:1008C000C8710C20284908602A480078352820D1B2
:1008D00000BF24480079802108400028F9D0662014
:1008E0002049C87100BF1F480079802108400028B6
:1008F000F9D00D201B49C87100BF1A48007980212A
:1009000008400028F9D00A201649C871022016496B
:10091000086018480078362820D100BF11480079B7
:10092000802108400028F9D067200E49C87100BF17
:100930000C480079802108400028F9D00D20094991
:10094000C87100BF07480079802108400028F9D00D
:100950000A200449C8710D20034908600020044999
:100960000870D1E600A0064014FCFF1F00B0034051
:1009700018FCFF1F00FCFF1F19FCFF1F1CFCFF1FC2
:10098000A009000000FCFF1F20000000040100007F
:10099000C009000020FCFF1F6001000020010000D2
:1009A0002020202020202020202020202020202047
:1009B00020000000000000000101000059080000B4
:04000005000000C136
:00000001FF
