:020000040800F2
:1000000000000220290F0008C50E0008C70E0008D6
:10001000C90E0008CB0E0008CD0E0008000000003D
:10002000000000000000000000000000CF0E0008EB
:10003000D10E000800000000D30E0008D50E000805
:10004000790F0008790F0008790F0008790F000870
:10005000790F0008790F0008790F0008790F000860
:10006000790F0008790F0008790F0008790F000850
:10007000790F0008790F0008790F0008790F000840
:10008000D90E0008E50E0008790F0008790F000866
:10009000790F0008790F0008790F0008790F000820
:1000A000790F0008790F0008790F0008790F000810
:1000B000790F0008790F0008790F0008790F000800
:1000C000790F0008790F0008790F0008790F0008F0
:1000D000790F0008790F0008F10E0008790F000869
:1000E000790F0008790F0008790F0008790F0008D0
:1000F000790F0008FD0E0008790F0008790F00083D
:10010000790F0008790F0008790F0008790F0008AF
:10011000790F0008790F0008790F0008790F00089F
:10012000090F0008790F0008790F0008790F0008FF
:10013000790F00080000000000000000790F00089F
:10014000790F0008790F0008790F0008790F00086F
:10015000790F0008790F0008790F0008790F00085F
:10016000790F0008790F0008790F0008790F00084F
:10017000790F0008790F0008790F000800000000CF
:1001800000000000790F00080000000000000000DF
:10019000790F00080000000000000000790F00083F
:1001A000000000000000000000000000790F0008BF
:1001B000790F0008790F0008790F0008790F0008FF
:0401C000790F0008AB
:1001D00010B5054C237833B9044B13B10448AFF381
:1001E00000800123237010BD70000020000000007B
:1001F0008C32000808B5034B1BB103490348AFF329
:10020000008008BD00000000740000208C3200084F
:1002100001F0FF01102A2BDB10F0070F08D010F8B7
:10022000013B013A8B422DD010F0070F42B3F6D1BB
:10023000F0B441EA012141EA014122F007047FF0D4
:1002400000070023F0E80256083C85EA010586EA2B
:10025000010685FA47F5A3FA87F586FA47F6A5FA67
:1002600087F68EB9EED1F0BC01F0FF0102F0070273
:1002700032B110F8013B013A83EA010313B1F8D11E
:100280000020704701387047002D06BF35460338FF
:10029000073815F0010F07D1013015F4807F02BF38
:1002A000013015F4C03F0130F0BC0138704700BF89
:1002B00081F0004102E000BF83F0004330B54FEA17
:1002C00041044FEA430594EA050F08BF90EA020F84
:1002D0001FBF54EA000C55EA020C7FEA645C7FEA17
:1002E000655C00F0E2804FEA5454D4EB5555B8BF3A
:1002F0006D420CDD2C4480EA020281EA030382EAAB
:10030000000083EA010180EA020281EA0303362D3C
:1003100088BF30BD11F0004F4FEA01314FF4801C0F
:100320004CEA113102D0404261EB410113F0004F21
:100330004FEA03334CEA133302D0524263EB4303D8
:1003400094EA050F00F0A780A4F10104D5F1200E76
:100350000DDB02FA0EFC22FA05F2801841F10001D1
:1003600003FA0EF2801843FA05F359410EE0A5F1A5
:1003700020050EF1200E012A03FA0EFC28BF4CF0D6
:10038000020C43FA05F3C01851EBE37101F000458C
:1003900007D54FF0000EDCF1000C7EEB00006EEB99
:1003A0000101B1F5801F1BD3B1F5001F0CD3490823
:1003B0005FEA30004FEA3C0C04F101044FEA44527A
:1003C00012F5800F80F09A80BCF1004F08BF5FEA01
:1003D000500C50F1000041EB045141EA050130BDE1
:1003E0005FEA4C0C404141EB0101013C28BFB1F5F3
:1003F000801FE9D291F0000F04BF01460020B1FA3E
:1004000081F308BF2033A3F10B03B3F120020CDA10
:100410000C3208DD02F1140CC2F10C0201FA0CF0EE
:1004200021FA02F10CE002F11402D8BFC2F1200C53
:1004300001FA02F120FA0CFCDCBF41EA0C01904009
:10044000E41AA2BF01EB0451294330BD6FEA040452
:100450001F3C1CDA0C340EDC04F11404C4F120023D
:1004600020FA04F001FA02F340EA030021FA04F34F
:1004700045EA030130BDC4F10C04C4F1200220FAA6
:1004800002F001FA04F340EA0300294630BD21FAE4
:1004900004F0294630BD94F0000F83F4801306BFAA
:1004A00081F480110134013D4EE77FEA645C18BF9E
:1004B0007FEA655C29D094EA050F08BF90EA020F35
:1004C00005D054EA000C04BF1946104630BD91EA2D
:1004D000030F1EBF0021002030BD5FEA545C05D130
:1004E0004000494128BF41F0004130BD14F580046F
:1004F0003CBF01F5801130BD01F0004545F0FE41E3
:1005000041F470014FF0000030BD7FEA645C1ABF17
:10051000194610467FEA655C1CBF0B46024650EA4E
:10052000013406BF52EA033591EA030F41F400217A
:1005300030BD00BF90F0000F04BF0021704730B500
:100540004FF4806404F132044FF000054FF00001D5
:1005500050E700BF90F0000F04BF0021704730B596
:100560004FF4806404F1320410F0004548BF40426B
:100570004FF000013EE700BF42004FEAE2014FEAC0
:1005800031014FEA02701FBF12F07F4393F07F4F9B
:1005900081F06051704732F07F4208BF704793F09E
:1005A0007F4F04BF41F40021704730B54FF46074B1
:1005B00001F0004521F000411CE700BF50EA0102B4
:1005C00008BF704730B54FF000050AE050EA01025D
:1005D00008BF704730B511F0004502D5404261EBCD
:1005E00041014FF4806404F132045FEA915C3FF40E
:1005F000D8AE4FF003025FEADC0C18BF03325FEAAB
:10060000DC0C18BF033202EBDC02C2F1200300FA5B
:1006100003FC20FA02F001FA03FE40EA0E0021FA80
:1006200002F11444BDE600BF53B94AB9002908BF1E
:1006300000281CBF4FF0FF314FF0FF3000F06EB9C3
:10064000ADF1080C6DE904CE00F006F8DDF804E029
:10065000DDE9022304B070472DE9F047089D044608
:100660008C46002B40F083808A42174647D9B2FA65
:1006700082F242B1C2F1200024FA00F0914097408A
:1006800040EA010C94404FEA1748230CBCFBF8F6F3
:100690001FFA87FE08FB16C143EA014306FB0EF171
:1006A000994209D9FB1806F1FF3080F0198199426F
:1006B00040F21681023E3B445B1AA4B2B3FBF8F051
:1006C00008FB103344EA034400FB0EFEA64509D99B
:1006D0003C1900F1FF3380F00581A64540F202810C
:1006E00002383C4440EA0640A4EB0E0400261DB14B
:1006F000D4400023C5E900433146BDE8F08702B984
:10070000FFDEB2FA82F2002A50D1CB1B4FEA174E1D
:100710001FFA87F80126B3FBFEFC210C0EFB1C33ED
:1007200041EA034108FB0CF38B4207D979180CF11D
:10073000FF3002D28B4200F2E9808446C91AA3B28C
:10074000B1FBFEF00EFB101143EA014408FB00F878
:10075000A04507D93C1900F1FF3302D2A04500F2B1
:10076000D9801846A4EB080440EA0C40BFE78B424E
:1007700009D9002D00F0B1800026C5E900013046FE
:100780003146BDE8F087B3FA83F6002E4AD18B429A
:1007900002D3824200F2B880841A61EB0301012087
:1007A0008C46002DA8D0C5E9004CA5E7C2F1200376
:1007B00020FA03F6974001FA02F04FEA174ED940AB
:1007C0003043030CB1FBFEF61FFA87F80EFB16113F
:1007D00043EA014306FB08F1994204FA02F409D9FD
:1007E000FB1806F1FF3C80F08D80994240F28A8030
:1007F000023E3B445B1A81B2B3FBFEF00EFB1033AA
:1008000041EA034100FB08F38B4207D9791800F154
:10081000FF3C73D28B4271D902383944CB1A40EA7B
:10082000064678E7C6F1200C03FA06F422FA0CF328
:100830001C4320FA0CF701FA06F34FEA144E21FA92
:100840000CF11F433B0CB1FBFEF91FFA84F80EFBC1
:10085000191143EA014109FB08FA8A4502FA06F236
:1008600000FA06F308D9611809F1FF3048D28A4529
:1008700046D9A9F102092144A1EB0A01BFB2B1FB9B
:10088000FEF00EFB101147EA014700FB08F8B845DF
:1008900007D9E71900F1FF312ED2B8452CD902381B
:1008A000274440EA0940A7EB0807A0FB02894F450F
:1008B000C64649461AD317D05DB1B3EB0E0267EBBB
:1008C000010707FA0CFCF2404CEA0202F740C5E9C6
:1008D000002700263146BDE8F0872E4628460BE764
:1008E0000646E9E61846FDE64345E5D2B8EB020EBA
:1008F00069EB04010138DFE70846D2E760468DE77F
:100900008146B9E7664675E730464AE7ACF1020C26
:10091000394413E702383C4424E700BF704700BF66
:1009200010B594B01422002108A802F057F8142240
:10093000002102A802F052F81F4B00220092196C0D
:1009400041F0805119641B6C1C4903F080530093E3
:10095000009B01920B6823F4404343F480430B60F7
:100960000B6803F440430193019B012110230820ED
:10097000CDE90A1354230224CDE90F0307A8CDE9DA
:100980000D42CDE911440794139401F0B1F908B177
:1009900072B6FEE70F23CDE902344FF48053CDE960
:1009A00005300490214602A801F09EF808B172B605
:1009B000FEE714B010BD00BF0038024000700040D8
:1009C00080B58CB0684D694F002400F0FBFAFFF74A
:1009D000A7FF1422002107A802F000F803942B6B54
:1009E000634843F004032B632B6B03F0040303936E
:1009F000039B04942B6B43F080032B632B6B03F05E
:100A000080030493049B05942B6B43F001032B6339
:100A10002B6B03F001030593059B06942B6B43F0AE
:100A200002032B632B6B03F0020322460693202163
:100A3000069B01F04BF84F4B4F4809944FF400567A
:100A400007A9CDE9076300F06DFF01262023484880
:100A500007A9CDE90736CDE9094400F063FF019409
:100A60002B6B43F400132B632B6B03F400130193E4
:100A7000019B02942B6B43F480032B632B6B3F4D44
:100A800003F480032246214602931020029B00F0CB
:100A90000FFD102000F03EFD22462146112000F0FF
:100AA00007FD112000F036FD22462146382000F0D7
:100AB000FFFC382000F02EFD4FF4E133C5E9007350
:100AC00028460C23C5E90244C5E905342C61EC61D4
:100AD00001F0D4FC074608B172B6FEE701461022C9
:100AE00007A801F07BFF264C2648A7604FF440334F
:100AF000C4E90003244B26612046267684F8207042
:100B0000E762A362E760E66184F83060666100F046
:100B100085FA08B172B6FEE70723CDE9070607A9F3
:100B20002046099300F016FC034608B172B6FEE7B2
:100B300016481749836042F2CF02C0E9001242F220
:100B40000F72C0E90323836101F0F6FB08B172B6AE
:100B5000FEE710493246284601F004FF0E493246AE
:100B6000204600F001FBFEE7003802400044004050
:100B70000000024000002110000802401402002082
:100B80000C010020002001400100000F580200204D
:100B9000002000409C0000200001002008B507480C
:100BA00001F06CFA0648202100F095FFBDE80840EE
:100BB00004490548012201F0D5BE00BF58020020BB
:100BC000000002409C000020140200202DE9F043A8
:100BD00083B00268254B9A4202AF42D1244C9FED6C
:100BE000257A2378DFED246ADFF8A08001332370B3
:100BF000224B1B8807EE903AF8EEE77A6D4667EED7
:100C0000877A87EEA67A17EE100A88ED007AFFF74A
:100C1000B3FCCDE900010021194A084601F0E6FEC7
:100C200000F10109083020F00700ADEB000DD8F805
:100C30000000FFF7A1FC02AECDE90001104A4946D1
:100C4000304601F0D3FE0F480422314601F044FC47
:100C500023780A2B04D100230B48237001F048FAB3
:100C6000AD460437BD46BDE8F08300BF002000401C
:100C70008C0000203333534000F07F4500010020FA
:100C8000A4320008140200205802002004010020B1
:100C900008B5034800F012FB024B188008BD00BFE6
:100CA0000C0100200001002072B6FEE782B00D4B5F
:100CB000002100915A6C42F480425A645A6C02F44A
:100CC00080420092009A01911A6C42F080521A649C
:100CD0001B6C03F080530193019B072002B000F0CE
:100CE000D5BB00BF0038024070B5064688B014225C
:100CF000002103A801F072FE3268204B9A423BD1DA
:100D0000002503F58C3301955A6C1D481D4C42F4A7
:100D100080725A645A6C02F480720192019A0295B0
:100D20001A6B42F001021A631B6B059503F0010375
:100D30000293029B0122032303A9CDE9032300F0C0
:100D4000F1FD114B4FF48061C4E900354FF40063AD
:100D50004FF40050C4E904134FF48073C4E9060350
:100D60002046C4E90255C4E9085500F00DFC08B15D
:100D7000FFF79AFFB463A66308B070BD002001407E
:100D800000000240B40100201064024007B50F4B80
:100D900002689A4216D1002203F506330192196CBB
:100DA00041F4807119641B6C03F480730193114644
:100DB0002D20019B00F07CFB2D2003B05DF804EB9F
:100DC00000F0A8BB03B05DF804FB00BF00200040AA
:100DD00070B5064688B01422002103A801F0FEFD7C
:100DE0003268324B9A425ED1002503F5FA33019501
:100DF0001A6C42F400321A641A6C02F40032019246
:100E0000019A02951A6B42F001021A631B6B059559
:100E100003F001030293029B0C200223CDE903039C
:100E200003240723224803A9CDE9064300F07AFDF5
:100E3000204CDFF88CC04FF00063C4E900C32046AB
:100E40004FF48063C4E90255C4E90435C4E906558A
:100E5000C4E9085500F098FB08B1FFF725FF164AD2
:100E6000B463A663154C4FF00063C4E9002340212E
:100E700000234FF480622046C4E90213C4E904232E
:100E8000C4E90633C4E9083300F07EFB08B1FFF77C
:100E90000BFF0022746326201146A66300F008FBB6
:100EA000262000F037FB08B070BD00BF00440040B2
:100EB00000000240A0000020A06002405401002079
:100EC00088600240FEE7FEE7FEE7FEE7FEE77047C8
:100ED0007047704700F090B8014800F065BC00BF53
:100EE000A0000020014800F05FBC00BF54010020BA
:100EF000014801F0C7BB00BF14020020014801F007
:100F000013B900BF58020020014800F04DBC00BFDB
:100F1000B4010020034AD2F8883043F47003C2F8C9
:100F20008830704700ED00E0DFF834D00D480E49FE
:100F30000E4A002302E0D458C4500433C4188C4233
:100F4000F9D30B4A0B4C002301E013600432A24298
:100F5000FBD3FFF7DFFF01F01DFDFFF731FD704709
:100F60000000022000000020700000200C33000868
:100F700070000020B4020020FEE7000038B50E4AE1
:100F80000E4B054618784FF47A73B3FBF0F31068F4
:100F9000B0FBF3F000F0CCFA044658B90F2D09D895
:100FA000024629464FF0FF3000F082FA044B2046FB
:100FB0001D6038BD0120FCE7000000200400002077
:100FC0000800002008B50B4B1A6842F400721A6042
:100FD0001A6842F480621A601A6842F480721A60D9
:100FE000032000F053FA0020FFF7C8FFFFF75EFE72
:100FF000002008BD003C0240034A044B11681B78E6
:101000000B441360704700BFA002002004000020C2
:10101000014B1868704700BFA002002038B5044695
:10102000002800F09B80056C25B9FFF75DFE656424
:1010300084F83C50236CDB0600F18E80236C23F493
:10104000885323F0020343F002032364444B5A689D
:1010500022F440325A605A6861680A435A60236831
:1010600021695A6822F480725A605A6842EA012261
:101070005A605A68A16822F040725A605A680A435E
:101080005A609A68E16822F400629A609A680A439A
:101090009A603449A26A8A4252D0996821F07061FC
:1010A000996099680A439A609A68E16A22F040520E
:1010B0009A609A680A439A609A6822F002029A60DB
:1010C0009A68217E42EA41029A6094F82020002A20
:1010D0003ED05A68616A42F400625A605A6822F44B
:1010E00060425A605A68013942EA41325A60DA6A0B
:1010F000E16922F47002DA62DA6A013942EA0152E5
:10110000DA629A6822F400729A609A6894F8301051
:1011100042EA41229A609A68616922F480629A6088
:101120009A68002042EA81229A606064236C23F06E
:10113000030343F001032364002384F83C3038BDEB
:101140009A6822F070629A609A6822F04052B2E780
:101150005A6822F40062C9E70120EDE70120EEE7BA
:10116000002301400100000F73B5134600220192D5
:1011700090F83C20012A054600F08C800122066888
:1011800080F83C20B268D40754D5B268D00564D446
:10119000B46814F0010474D0286C20F4E06020F0EE
:1011A000010040F4807028647268520541BF286CC9
:1011B00020F4405040F4805028642A6CA86B12F44C
:1011C00080521CBF6A6C22F006026A640024334A13
:1011D00085F83C40C263324A0264324AC2646FF00E
:1011E00022023260726842F080627260B26842F439
:1011F0008072B2600A4606F14C0100F045FA2A4AB4
:101200002B685068294910F01F0032D18B4207D05B
:1012100001F580718B4225D1526812F01F0F07D162
:10122000986810F0405037D19A6842F080429A6036
:1012300002B070BDB26842F00102B2601C4A106890
:101240001C4AB0FBF2F000EB40000190019A002A2A
:101250009BD0019A013A0192F8E7B26822F48072B9
:10126000B26095E714498B42E2D1526812F0100F38
:10127000D5E78B4210D1986810F04050D4D020466A
:10128000D6E72B6C43F010032B646B6C43F0010327
:101290006B64F4E70220CBE70020C9E7E7120008FF
:1012A000C5120008D11200080023014000200140AF
:1012B0000000002040420F00002201400368D86C6B
:1012C0007047704708B5806BFFF7FBFF08BD70479C
:1012D000806B08B540230364436C43F0040343640C
:1012E000FFF7F5FF08BD836B1A6C12F0500F10B5B5
:1012F0001A6C23D142F400721A641A68916811F0D2
:10130000405F17D1197EA9B9D16A11F4700F02D0CC
:10131000916848050ED4516821F0200151601A6C83
:1013200022F480721A641A6CD1045EBF1A6C42F007
:1013300001021A641846FFF7ABFC10BDD20603D5B4
:101340001846FFF7C4FFF8E79B6BBDE81040DB6C65
:1013500018470000F7B50023019390F83C30012BAB
:1013600069D0012380F83C300D6803688E68092D30
:10137000ACB234D904EB4402DF681E3A4FF0070CDC
:101380000CFA02FC27EA0C07DF60DF6806FA02F2BB
:101390003A43DA604968062901EB81022FD8596B7C
:1013A000053A1F26964021EA06015963596B04FA53
:1013B00002F20A435A63304A93420AD1122D3CD1B9
:1013C0002E4B5A6822F400025A605A6842F4800296
:1013D0005A60002380F83C30184603B0F0BD1F6906
:1013E00005EB45024FF0070C0CFA02FC27EA0C074C
:1013F0001F611F6906FA02F23A431A61CAE70C2913
:101400004FF01F010BD81E6B233A914026EA0101D1
:101410001963196B04FA02F20A431A63CBE7DE6A16
:10142000413A914026EA0101D962D96A04FA02F2EE
:101430000A43DA62BFE70220CFE7114B9D4201D099
:10144000112DC6D10D4B5A6822F480025A605A6899
:1014500042F400025A600A4B9D42BAD1094B0A4A33
:101460001B68B3FBF2F20A2353430193019B002B49
:10147000AFD0019B013BF8E7002001400023014071
:10148000120000100000002040420F000749CA6807
:1014900022F4E0620302120403F4E063120C13432B
:1014A00043F0BF6343F40033CB60704700ED00E0CE
:1014B000164B30B5DC68C4F30224C4F10705231DC4
:1014C000042D28BF0425062B4FF0FF338CBF033CAF
:1014D000002403FA05F521EA0501A34022EA0302EC
:1014E000A140002841EA0203ACBF00F16040084A75
:1014F0004FEA0313B8BF00F00F00DBB2AABF00F53C
:101500006140135480F8003330BD00BF00ED00E0AF
:1015100014ED00E0002808DB4209012300F01F0061
:1015200003FA00F0014B43F82200704700E100E0AD
:101530000138B0F1807F0AD2064B074A5860F0218B
:1015400082F823100020072298601A60704701205B
:10155000704700BF10E000E000ED00E0036810B548
:10156000084C0246D9B210391820B1FBF0F0205CCB
:10157000D06523F47F7020F003005F2988BF04301A
:10158000906510BDC132000870B50446FFF740FDFC
:101590000546002C73D0002384F8343022680223DF
:1015A00084F83530136823F00103136021680B6859
:1015B000D8072FD40B68334DA0691D40D4E901230F
:1015C0001343E26813432269134362691343E269D8
:1015D00003431343226A1343626A042A43EA05035E
:1015E00002BFD4E90B5635432B430B604B69042AE9
:1015F00023F0070343EA020333D1A26AE56A1343E7
:101600007DB390B9012A21D032F0020229D1EA013A
:1016100027D51EE0FFF7FCFC401B0528C6D9202378
:101620006365032084F8350070BDB0F5005F14D108
:10163000032A16D801A050F822F000BF5316000864
:101640000F160008531600084D160008B5F1C07FAC
:1016500007D1402363650120E4E7022AF9D9032A70
:10166000D5D04B612046FFF779FFE26D3F239340D1
:10167000836000200123606584F83530D4E70120C1
:10168000D2E700BF3F8010F070B590F83440866D0F
:10169000012C31D0012480F8344090F83540012CE1
:1016A0004FF000054FF0020424D180F83540046863
:1016B0004565256825F48025256063608368402B97
:1016C0000EBFA260A160E260C26D08BFE1603F236F
:1016D0009340B360236843F016032360036C1BB18F
:1016E000236843F008032360236843F00103236069
:1016F000002070BD80F834500220FAE770B504462F
:10170000866DFFF785FC94F83530022B054606D030
:1017100080236365002384F83430012070BD236882
:101720001A6822F016021A605A6922F080025A6181
:10173000226C0AB9A26C1AB11A6822F008021A6067
:101740001A6822F001021A6023681B6813F0010373
:101750000AD1E16D3F228A40B260012284F8343020
:1017600084F835201846D9E7FFF752FC401B0528BE
:10177000EAD9202363650320002384F8343084F8F9
:101780003500CBE790F83530022B03D0802343653A
:10179000012070470268052380F83530136823F074
:1017A0000103136000207047F7B5002301935C4BE1
:1017B000856D1F68C36D2E6808229A403242044628
:1017C0000CD001680868400708D5086820F00400BC
:1017D0000860AA60626D42F00102626501229A40CF
:1017E000324208D021684969090641BFAA60626D8A
:1017F00042F00202626504229A40324208D0216817
:101800000968880741BFAA60626D42F00402626500
:1018100010229A40324210D02368196809070CD56B
:10182000AA601A68500337D51B68190301D4236CCA
:1018300000E0A36C0BB120469847E16D20228A405E
:1018400032423AD023681868C60636D5AA6094F8A2
:101850003520052A1A6827D122F016021A605A6923
:1018600022F080025A61226C0AB9A26C1AB11A687D
:1018700022F008021A603F238B40AB60002384F8FB
:101880003430012384F83530236D002B45D02046B9
:1018900003B0BDE8F04018471A68D2055EBF1A6869
:1018A00022F008021A60C2E7500327D51B6819030B
:1018B00031D4636C0BB120469847636D6BB3636D95
:1018C000DA0719D522684FF41653B7FBF3F705234F
:1018D00084F83530136823F001031360019B013352
:1018E000BB42019302D81368DB07F7D4002384F8C6
:1018F0003430012384F83530E36CC6E71A6812F4FB
:10190000807208D1196821F010011960012384F850
:10191000342084F83530E36BCCE703B0F0BD00BF72
:10192000000000202DE9F74FDFF89C91644A002366
:101930000D6801249C4004EA050CAC4340F0AC80E7
:101940004D6805F003044FEA43080326671E06FAB4
:1019500008F6012F6FEA060634D8876807EA060EF4
:10196000CF6807FA08F747EA0E078760476827EA53
:101970000C0EC5F300179F4047EA0E074760C76883
:1019800007EA060E8F6807FA08F747EA0E07022CE7
:10199000C76019D14FEAD30A00EB8A0A03F0070B9C
:1019A000DAF820704FEA8B0B4FF00F0E0EFA0BFE99
:1019B00027EA0E0E0F6907FA0BF747EA0E07CAF877
:1019C000207001E0032CDAD1076804FA08F43E40E5
:1019D0002643EC0006605FD54FF0000ACDF804A066
:1019E000D9F84460374C46F48046C9F84460D9F8C9
:1019F000446006F480460196019E23F0030606F13A
:101A0000804606F59C3603F0030ED6F808804FEAB0
:101A10008E0E0F2707FA0EF7A04228EA070742D0DA
:101A200004F58064A04240D004F58064A0423ED01A
:101A300004F58064A0423CD004F58064A0423AD012
:101A400004F58064A04238D004F58064A0420CBF45
:101A50000624072404FA0EF43C43B46014686FEAC9
:101A60000C06EF0354BF34404CEA0404146054687D
:101A7000AF0354BF34404CEA040454609468EF024E
:101A800054BF34404CEA04049460D468AD0254BF9F
:101A900034404CEA0404D4600133102B7FF448AF87
:101AA00003B0BDE8F08F5446D4E70124D2E7022406
:101AB000D0E70324CEE70424CCE70524CAE700BF1F
:101AC000003C014000000240003802400AB1816140
:101AD00070470904FBE7436901EA030221EA0301B5
:101AE00041EA0241816170472DE9F0410D4604460B
:101AF00010B90120BDE8F081444B1A6802F00F02D2
:101B00008A4228D3226897072DD4D00741D43F4B6F
:101B10001A6802F00F02AA4266D8226851076CD4F4
:101B2000130707D53A4A2169936823F4604343EACF
:101B3000C103936000F094F8354B364A9B68C3F3B9
:101B40000313D35CD840344B1860344B1868FFF74C
:101B500015FA0020CEE7CAB21A701B6803F00F0313
:101B60008B42C6D1CEE72A4B12F0040F1EBF9968F4
:101B700041F4E0519960160742BF996841F4604111
:101B800099602349A0688B6823F0F00303438B60BE
:101B9000BBE762681E4B012A1CD11B6813F4003F8F
:101BA000A7D01B4EB36823F003031343B360FFF7C2
:101BB0002FFA41F288380746B368626803F00C03D5
:101BC000B3EB820FA3D0FFF723FAC01B4045F3D934
:101BD00003208FE7911E01291B6802D813F0007FB4
:101BE000DEE713F0020FDBE7EAB21A701B6803F0BE
:101BF0000F03AB427FF47DAF8FE70549E0688B6848
:101C000023F4E05303438B608AE700BF003C0240AB
:101C100000380240A932000800000020080000201F
:101C2000044B054A9B68C3F38223D35C034A1068C4
:101C3000D840704700380240B93200080000002048
:101C4000044B054A9B68C3F34233D35C034A1068D4
:101C5000D840704700380240B93200080000002028
:101C6000204908B58B6803F00C03082B07D00C2B18
:101C700020D01D481D4A042B08BF104608BD4A68E5
:101C80004B68496813F4800314BF18481648C1F321
:101C9000881118BF002302F03F02A1FB0001FEF7EC
:101CA000C3FC104B5B68C3F3014301335B00B0FB23
:101CB000F3F0E3E74A684B68496813F4800314BF04
:101CC0000A480948C1F3881118BF002302F03F02F7
:101CD000A1FB0001FEF7A8FC024B5B68C3F3027393
:101CE000E5E700BF003802400024F40000127A004B
:101CF0002DE9F3410446002830D00368DF0710D4F3
:101D000023689E0763D423681A0700F1AD80236817
:101D10005B0700F1CB80A069002840F035810020EE
:101D200034E0954B9A6802F00C02042A0FD09A68AE
:101D300002F00C02082A02D15A68550207D49A68A8
:101D400002F00C020C2A0BD15B68580208D58A4BB2
:101D50001B689903D4D56368002BD1D1012015E00D
:101D60006368854DB3F5803F13D12B6843F480330E
:101D70002B60FFF74DF9804E054633689A03BFD4B8
:101D8000FFF746F9401B6428F7D9032002B0BDE8ED
:101D9000F081B3F5A02F04D12B6843F480232B608E
:101DA000E3E72A6822F480322A602A6822F480223B
:101DB0002A60002BDDD1FFF72BF906462B689B0329
:101DC0009ED5FFF725F9801B6428F7D9DDE76A4B1C
:101DD0009A6812F00C0F0FD09A6802F00C02082AD1
:101DE00002D15A68570207D59A6802F00C020C2AF1
:101DF00011D15B685E020ED45F4B1A68950702D55D
:101E0000E268012AAAD11A68216922F0F80242EA9E
:101E1000C1021A6077E7E268584BB2B101221A603A
:101E2000FFF7F6F8544D06462B68980707D52B6840
:101E3000226923F0F80343EAC2032B6063E7FFF74C
:101E4000E7F8801B0228EFD99FE71A60FFF7E0F858
:101E5000494E0546336899077FF555AFFFF7D8F827
:101E6000401B0228F6D990E76269454B7AB10122FE
:101E70001A60FFF7CDF8404E0546736F9F073FF598
:101E800046AFFFF7C5F8401B0228F6D97DE71A6078
:101E9000FFF7BEF8384E0546736F98077FF537AFEA
:101EA000FFF7B6F8401B0228F6D96EE7324B1A6CE2
:101EB00012F0805228D101921A6C42F080521A64BA
:101EC0001B6C03F080530193019B01272D4D2B6860
:101ED000D9051BD5A368284D012B27D12B6F43F0C3
:101EE00001032B67FFF794F8234E054641F288382B
:101EF000336F9B0739D5002F3FF40DAF1E4A136C8B
:101F000023F08053136406E70027DFE72B6843F4D0
:101F100080732B60FFF77CF806462B68DA05D9D46E
:101F2000FFF776F8801B0228F7D92EE7052B04D19E
:101F30002B6F43F004032B67D0E72A6F22F00102D6
:101F40002A672A6F22F004022A67002BCAD1FFF702
:101F50005FF841F2883806462B6F9807CBD5FFF71C
:101F600057F8801B4045F7D90FE7FFF751F8401BA2
:101F70004045BDD909E700BF003802400000474294
:101F8000800E4742007000403A4DAB6803F00C03EE
:101F9000082B3FD0384E0023022833602DD1FFF7A5
:101FA00037F807462B68990121D4D4E90732134347
:101FB000626A43EA8213E26A43EA0263226B43EAFB
:101FC0000273A26A5208013A43EA02436B6001239A
:101FD0003360FFF71DF8274D04462B689A013FF543
:101FE0009EAEFFF715F8001B0228F6D9CDE6FFF7E5
:101FF0000FF8C01B0228D5D9C7E6FFF709F8044639
:102000002B689B017FF58BAEFFF702F8001B0228BF
:10201000F6D9BAE601283FF4B9AE6B68E26903F479
:10202000800191427FF49AAE216A03F03F028A4216
:102030007FF494AE616A47F6C0721A40B2EB811F1A
:102040007FF48CAEA26A520803F44031013AB1EB3E
:10205000024F7FF483AEE16A03F07062B2EB016F6E
:102060007FF47CAE226B03F0E043B3EB027F3FF4DE
:1020700056AE73E6003802406000474290F83D30AB
:10208000012B30D1022380F83D300368DA6842F03A
:102090000102DA60154A93421AD0B3F1804F17D08B
:1020A000A2F57C42934213D002F5806293420FD096
:1020B00002F5806293420BD002F57842934207D03A
:1020C00002F57052934203D0A2F59432934204D1A8
:1020D0009A6802F00702062A03D01A6842F0010249
:1020E0001A60002070470120704700BF00000140C7
:1020F0000368DA6822F00102DA60196A41F211120B
:10210000114208D1196A40F24442114202BF1A68D2
:1021100022F001021A60012380F83D300020704750
:10212000704770477047704703681A69910710B588
:1021300004460ED5DA6892070BD56FF002021A61D9
:10214000012202779B699B0777D0FFF7EAFF002304
:10215000237723681A69500710D5DA6851070DD51F
:102160006FF004021A61022222779B6913F4407F08
:10217000204668D0FFF7D5FF0023237723681A692C
:1021800012070FD5DA6810070CD56FF008021A6134
:1021900004222277DB69990720465AD0FFF7C1FF56
:1021A0000023237723681A69D20610D5DA68D0068F
:1021B0000DD56FF010021A6108222277DB6913F443
:1021C000407F20464BD0FFF7ACFF002323772368E6
:1021D0001A69D10708D5DA68D20705D56FF0010270
:1021E0001A612046FEF7F2FC23681A69100608D52A
:1021F000DA68110605D56FF080021A61204600F0FA
:10220000C8F823681A69520608D5DA68500605D559
:102210006FF040021A612046FFF785FF23681A69B4
:10222000910622D5DA6892061FD56FF0200220466B
:102230001A61BDE8104000F0ABB8FFF771FF20460F
:10224000FFF770FF83E7FFF76BFF2046FFF76AFF9A
:1022500092E7FFF765FF2046FFF764FFA0E7FFF76F
:102260005FFF2046FFF75EFFAFE710BD304A03680F
:10227000904212D0B0F1804F0FD0A2F57C42904234
:102280000BD002F58062904207D002F58062904246
:1022900003D002F57842904219D14A6823F07003C6
:1022A0001343234A904229D0B0F1804F26D0A2F5A3
:1022B0007C42904222D002F5806290421ED002F50C
:1022C000806290421AD002F57842904216D0194AA4
:1022D000904213D002F5806290420FD002F58062E6
:1022E00090420BD0A2F59832904207D002F580625E
:1022F000904203D002F58062904203D1CA6823F471
:10230000407313434A6923F08003134303608B68CF
:10231000C3620B688362064B984203D003F5806367
:10232000984201D10B69036301234361704700BFE9
:10233000000001400040014010B5044630B390F861
:102340003D3003F0FF021BB980F83C20FEF71EFD74
:102350000223206884F83D30211DFFF787FF012309
:1023600084F84630002084F83E3084F83F3084F80A
:10237000403084F8413084F8423084F8433084F8A7
:10238000443084F8453084F83D3010BD0120FCE72E
:10239000704770470368DA6822F49072DA605A690D
:1023A00022F001025A61026B012A02BFDA6822F0B0
:1023B0001002DA60202380F83E3000230363704768
:1023C0000268C16838B5136923F440530B431361A5
:1023D000054683680069D168034368690343E86977
:1023E00021F4164121F00C0103430B43D3605369E0
:1023F000A96923F440730B4353611F4B9A4203D0E6
:1024000003F580639A4224D1FFF71AFCEA69192385
:10241000B2F5004FA0FB0301D5E900431CD11A46D9
:1024200092184FF000035B41FEF7FEF86421B0FB09
:10243000F1F501FB1503DB003233B3FBF1F303F0DD
:1024400007025B0002EB051203F4F8731344A36068
:1024500038BDFFF7E5FBD9E79A009B0FFEF7E4F8DC
:102460006422B0FBF2F102FB11031B013233B3FB18
:10247000F2F303EB0113EAE70010014010B5044644
:1024800040B390F83D3003F0FF021BB980F83C20C8
:10249000FEF79EFC2268242384F83D30D36823F4A1
:1024A0000053D3602046FFF78BFF23681A6922F49C
:1024B00090421A615A6922F02A025A61DA6842F49B
:1024C0000052DA6000202023206484F83D3084F834
:1024D0003E3010BD0120FCE738B50446134694F8A1
:1024E0003D20202A2AD139B333B394F83C20012A65
:1024F00024D0012284F83C20606BE3840025212253
:10250000256484F83D200E4AA3842162C2630D4AEB
:1025100002640D4AC0E9132522680432FFF7B4F8BB
:1025200023686FF040021A6084F83C505A6942F008
:1025300080025A61284638BD0120FCE70220FAE7F4
:102540004F2500087D2500088B250008704708B539
:102550000368826B1B6813F480730AD1D3841368F9
:102560005A6922F080025A61DA6842F04002DA6069
:1025700008BD1046FFF7EAFFFAE7704708B5806B21
:10258000FFF7FBFF08BD7047704708B5806B036815
:102590005A6990F83D1021290AD1120608D5002267
:1025A000C284DA6822F0C002DA60202280F83D207E
:1025B0005B6990F83E20222A05D15B0603D50023F3
:1025C000C385FFF7E7FE036C43F010030364FFF7D6
:1025D000DBFF08BD08B5806B0023C385C384FFF70C
:1025E000D3FF08BD704710B590F83E30222B04464B
:1025F00043D18168836A0268B1F5805F2CD101699B
:1026000000292CD15268C2F3080223F8022BA362DE
:10261000E38D013B9BB2E385002B30D12368DA6860
:1026200022F02002DA60DA6822F48072DA605A69F5
:1026300022F001025A61202284F83E20226B012AF6
:1026400017D1DA68A18D22F01002DA602046FFF778
:10265000C9FF0020206310BD39B9016929B952684A
:10266000D2B21A70A36A0133D1E7526802F07F0236
:10267000F7E72046FEF792FAEBE70220EBE70020AF
:10268000E9E70000036837B51A68D9685D6912F098
:102690000F0F044608D195065FD58D065DD503B0B2
:1026A000BDE83040FFF79FBF05F0010001F49075D1
:1026B000054352D0D50705D5CB0542BF236C43F067
:1026C00001032364550704D518B1236C43F00203BA
:1026D0002364930704D518B1236C43F004032364E7
:1026E000150707D501F0200303431EBF236C43F0F9
:1026F00008032364236C53B3920604D58B0602D5DA
:102700002046FFF770FF23685B69256C03F04003E8
:1027100005F008051D4320461BD0FFF73BFE23684C
:102720005A69550610D55A69A06B22F040025A61C9
:1027300050B1544B0365FFF725F840B1A06B036D12
:1027400003B0BDE8304018472046FFF71DFF03B037
:1027500030BDFFF719FF2564F9E7206B012856D13A
:10276000D00654D5CD0652D5002101911A680192A8
:102770005A680192019A5A6912F040022BD0A06B5C
:102780000268526892B2002AE1D0A58D9542DED946
:10279000E285C269B2F5807F15D0DA6822F48072D2
:1027A000DA605A6922F001025A615A6922F0400245
:1027B0005A61202284F83E202163DA6822F0100258
:1027C000DA60FEF79BFFE38DA18DC91A89B220461E
:1027D000FFF708FFBBE7E18D88B2E18D89B20029E0
:1027E000B5D0A18D091A89B20029B0D0D86820F4DB
:1027F0009070D860586920F001005861202084F85A
:102800003E002263DA6822F01002DA60DFE7100689
:1028100026D50D0624D594F83D20212A97D1A1680C
:10282000226AB1F5805F16D12169A1B932F8021B85
:10283000C1F3080159602262E28C013A92B2E2844B
:10284000002A84D1DA6822F08002DA60DA6842F085
:102850004002DA607BE7511C216212785A60EBE794
:1028600050067FF574AF4A067FF571AFDA6822F043
:102870004002DA60202384F83D302046FFF766FEF0
:1028800065E700BFD5250008806B08B5036B012BF9
:1028900004D1818D4908FFF7A5FE08BDFFF773FE3F
:1028A000FBE708B50346806B1B681B6813F4807355
:1028B00017D1C3850368DA6822F48072DA605A6936
:1028C00022F001025A615A6922F040025A61202224
:1028D00080F83E20026B012A02BFDA6822F0100263
:1028E000DA60036B012B03D1818DFFF77BFE08BDFE
:1028F000FEF754F9FBE7000073B5222300250446D8
:102900000564816280F83E308285806B124BC36320
:10291000124B26680364124BC0E9133513460A466E
:10292000311DFEF7B1FE236801951A6801925A68BD
:10293000019284F83C50019ADA6842F48072DA60BD
:102940005A6942F001025A615A69284642F040022F
:102950005A6102B070BD00BFA32800088928000892
:102960008B25000870B490F83E60202E10D161B124
:102970005AB190F83C40012C0AD0012480F83C4028
:102980000024046370BCFFF7B7BF012070BC704720
:102990000220FBE770B50D4D0D4C641BA410002602
:1029A000A64209D10B4D0C4C00F070FC641BA41026
:1029B0000026A64205D170BD55F8043B9847013664
:1029C000EEE755F8043B98470136F2E70433000878
:1029D00004330008043300080833000802440346A7
:1029E000934200D1704703F8011BF9E70CB430B5EE
:1029F000174B0C1E1D689DB008DA8B232B604FF01F
:102A0000FF301DB0BDE8304002B070474FF4027394
:102A1000ADF8143014BF04F1FF3323460493079339
:102A20004FF6FF7302900690ADF81630209A21AB56
:102A300002A92846019300F069F8431CBCBF8B2310
:102A40002B60002CDDD0029B00221A70D9E700BF5A
:102A50000C0000202DE9F0478E689E4282460C460D
:102A600090461F4638D88A8912F4906F32D0256874
:102A70000969A5EB0109656905EB450505EBD57508
:102A800001334B446D109D4238BF1D46530531D56F
:102A9000294600F047FB064650B90C23CAF800301F
:102AA000A38943F04003A3814FF0FF30BDE8F087D6
:102AB00021694A4600F0BEFAA38923F4906343F0EB
:102AC0008003A381266165614E44A5EB090526605C
:102AD000A5603E46BE4200D93E4632462068414689
:102AE00000F0B6FAA36822689B1B3244A360226000
:102AF0000020DBE72A4600F06FFB06460028E1D104
:102B00002169504600F0BEFAC7E700002DE9F04FFA
:102B100098468B891B069DB007460D4614460ED578
:102B20000B6963B9402100F0FDFA2860286120B9E3
:102B30000C233B604FF0FF30D1E040236B6100235A
:102B4000099320238DF82930CDF80C803023DFF84D
:102B5000A8818DF82A304FF0010923469A4613F8D0
:102B6000012B0AB1252AF9D1BAEB040B0BD05B4635
:102B7000224629463846FFF76DFF013000F0AA8053
:102B8000099A5A4409929AF80030002B00F0A2806A
:102B900000234FF0FF32CDE905230AF1010A049327
:102BA00007938DF853301A935446052214F8011BED
:102BB0005148FDF72DFB049AD8B9D00644BF202315
:102BC0008DF85330110744BF2B238DF853309AF8FA
:102BD00000302A2B15D0079A544600204FF00A0CDB
:102BE000214611F8013B303B092B4ED9B0B1079279
:102BF00014E0A0EB080309FA03F313430493A2467D
:102C0000D2E7039B191D1B680391002BBBBF5B42DE
:102C100042F0020207930793B8BF049223782E2B49
:102C20000CD163782A2B35D1039B1A1D1B680392A4
:102C3000002BB8BF4FF0FF3302340593DFF8C8A074
:102C4000217803225046FDF7E3FA40B14023A0EB80
:102C50000A0003FA00F0049B03430134049314F8C0
:102C6000011B26488DF828100622FDF7D1FA00280E
:102C700038D0234B1BBB039B073323F007030833D8
:102C80000393099B3344099367E70CFB02320C461C
:102C90000120A5E700230134059319464FF00A0CE3
:102CA000204610F8012B303A092A03D9002BC5D051
:102CB0000591C3E70CFB012104460123F0E703ABB8
:102CC00000932A460F4B04A93846AFF30080421CFC
:102CD0000646D6D1AB895B063FF52CAF09981DB0EF
:102CE000BDE8F08F03AB00932A46064B04A9384693
:102CF00000F07AF8EBE700BFC9320008D3320008D1
:102D000000000000552A0008CF3200082DE9F047E6
:102D1000164699468A680B69DDF820809342B8BF51
:102D20001346336091F8432007460C460AB101333D
:102D300033602368990642BF3368023333602568E5
:102D400015F0060506D104F1190AE36832689B1AEA
:102D5000AB4226DC94F84320131E226818BF0123DF
:102D600092062BD404F1430249463846C04701304D
:102D70001ED02368E568326803F00603042B08BF01
:102D8000AD1AA36822690CBF25EAE57500259342B8
:102D9000C4BF9B1AED1800261A34B5421AD1002080
:102DA00008E00123524649463846C047013003D166
:102DB0004FF0FF30BDE8F0870135C6E7E1185A1C37
:102DC000302081F84300224494F8451082F84310E3
:102DD0000233C7E70123224649463846C04701303F
:102DE000E6D00136D9E700002DE9FF470C469146B1
:102DF000277E0C99782F80469A4604F1430207D823
:102E0000622F0AD8002F00F0D880582F00F0A3803E
:102E100004F1420684F842703AE0A7F16303152BEF
:102E2000F6D801A050F823F0812E0008952E000856
:102E3000112E0008112E0008112E0008112E000876
:102E4000952E0008112E0008112E0008112E0008E2
:102E5000112E0008A12F0008C52E0008832F00089E
:102E6000112E0008112E0008C32F0008112E000893
:102E7000C52E0008112E0008112E00088B2F000807
:102E80000B681A1D1B680A6004F1420684F8423080
:102E90000123A3E0256808682E0600F104030AD583
:102EA00005680B60002D03DA2D236D4284F8433052
:102EB0005E480A2319E015F0400F05680B6018BF43
:102EC0002DB2EFE70B682568181D0860280601D5AC
:102ED0001D6802E06906FBD51D8854486F2F0CBFA2
:102EE00008230A23002184F843106668A660002E98
:102EF000A2BF216821F0040121600DB9002E4DD040
:102F00001646B5FBF3F103FB1157C75D06F8017DCB
:102F10002F46BB420D46F4D9082B0BD12368DF079F
:102F200008D5236961689942DEBF302306F8013C69
:102F300006F1FF36921B2261CDF800A04B4603AA92
:102F400021464046FFF7E2FE01304CD14FF0FF3002
:102F500004B0BDE8F087354884F8457023680E68F2
:102F60001F0656F8045B0E6014D5D90744BF43F022
:102F7000200323601DB9236823F02003236010235E
:102F8000B0E7236843F0200323607823284884F8BF
:102F90004530E3E75E0648BFADB2E6E71646BBE75D
:102FA0000B68266860691D1D0D6035061B6801D51C
:102FB000186002E07106FBD51880002323611646D5
:102FC000BAE70B681A1D0A601E6862680021304665
:102FD000FDF71EF908B1801B606063682361002360
:102FE00084F84330A8E72369324649464046D04733
:102FF0000130ABD023689B0713D4E068039B984251
:10300000B8BF1846A4E70123324649464046D04798
:1030100001309BD00135E36803995B1AAB42F2DCC7
:10302000EBE7002504F11906F5E700BFDA320008E6
:10303000EB3200080A44914200F1FF3300D170479F
:1030400010B511F8014B03F8014F9142F9D110BDB1
:10305000884210B501EB020402D98442234607D806
:10306000431EA14208D011F8012B03F8012FF8E705
:10307000024401468A4200D110BD13F8014D02F806
:10308000014DF7E737B5002948D051F8043C0190CD
:10309000002BA1F10404B8BFE41800F0D3F8204AD3
:1030A00001981368154633B96360146003B0BDE836
:1030B000304000F0CDB8A3420BD92168621893428A
:1030C00004BF1A685B68636004BF521822602C60FA
:1030D000ECE71A465B680BB1A342FAD911685518A0
:1030E000A5420BD1246821445418A3421160DDD1BC
:1030F0001C685B68536021441160D7E702D90C2338
:103100000360D3E7256861198B4204BF19685B68C7
:10311000636004BF491921605460C7E703B030BD44
:1031200090000020F8B5CD1C25F0030508350C2DC6
:1031300038BF0C25002D064601DBA94203D90C231C
:1031400033600020F8BD00F07DF821490A6814467C
:103150009CB9204F3B6823B92146304600F062F805
:1031600038602946304600F05DF8431C23D10C231B
:103170003360304600F06CF8E3E723685B1B17D43C
:103180000B2B03D923601C44256004E06368A24232
:103190000CBF0B605360304600F05AF804F10B008E
:1031A000231D20F00700C21ACCD01B1AA350C9E778
:1031B00022466468CCE7C41C24F00304A042E3D098
:1031C000211A304600F02EF80130DDD1CFE700BFE4
:1031D0009000002094000020F8B5074614460E46E3
:1031E00021B9BDE8F8401146FFF79CBF22B9FFF7AF
:1031F00049FF25462846F8BD00F030F8A0420FD21E
:1032000021463846FFF78EFF05460028F2D03146AA
:103210002246FFF70FFF31463846FFF733FFE9E755
:103220003546E7E738B5064D0023044608462B60CF
:1032300000F01EF8431C02D12B6803B1236038BD97
:10324000A4020020014800F011B800BFAC02002029
:10325000014800F00CB800BFAC02002051F8043C5B
:10326000181F002BBCBF0B58C01870477047704721
:10327000044B1968024609B90349196018680244E9
:103280001A60704798000020B8020020F8B500BF0F
:10329000F8BC08BC9E467047F8B500BFF8BC08BC37
:0432A0009E4670478F
:1032A400252E326600000000000000000001020329
:1032B40004060708090000000001020304000610C8
:1032C4001600061016232D302B2000686C4C006568
:1032D400666745464700303132333435363738393E
:1032E4004142434445460030313233343536373871
:0832F400396162636465660044
:0832FC005CD3FF7F010000001C
:04330400F5010008C7
:04330800D1010008E7
:10330C000024F40001000000100000001000002058
:10331C0000000000000000000000000000000000A1
:10332C000000000000000000000000000000000091
:10333C000000000000000000000000000000000081
:10334C000000000000000000000000000000000071
:10335C000000000000000000000000000000000061
:10336C000000000000000000000000000000000051
:0400000508000F29B7
:00000001FF
