:020000040800F2
:1000000000000520950B0008F50A0008FB0A00080F
:10001000010B0008070B00080D0B00080000000092
:10002000000000000000000000000000130B0008AA
:10003000210B0008000000002F0B00083D0B0008FA
:10004000E50B0008E50B0008E50B0008E50B0008D0
:10005000E50B0008E50B0008E50B0008E50B0008C0
:10006000E50B0008E50B0008E50B0008E50B0008B0
:10007000490B0008E50B0008E50B0008E50B00083C
:10008000E50B0008E50B0008E50B0008E50B000890
:10009000E50B0008E50B0008E50B0008E50B000880
:1000A000E50B0008E50B0008E50B0008E50B000870
:1000B000E50B0008E50B0008E50B0008E50B000860
:1000C000E50B0008E50B0008E50B0008E50B000850
:1000D000E50B0008E50B0008E50B00085D0B0008C8
:1000E000E50B0008E50B0008E50B0008E50B000830
:1000F000E50B0008E50B0008E50B0008E50B000820
:10010000E50B0008E50B0008E50B0008E50B00080F
:10011000E50B0008E50B0008E50B0008E50B0008FF
:10012000E50B0008E50B0008E50B0008E50B0008EF
:10013000E50B0008E50B0008E50B0008E50B0008DF
:10014000E50B0008E50B0008E50B0008E50B0008CF
:10015000E50B0008E50B0008E50B0008E50B0008BF
:10016000E50B0008E50B0008E50B0008E50B0008AF
:10017000E50B0008E50B0008E50B00080000000097
:10018000E50B0008E50B0008E50B0008E50B00088F
:10019000E50B0008E50B0008E50B0008E50B00087F
:1001A000E50B0008E50B0008E50B0008E50B00086F
:1001B000E50B0008E50B0008E50B0008E50B00085F
:0801C000E50B0008E50B000847
:1001C80010B5054C237833B9044B13B10448AFF389
:1001D80000800123237010BD0C00002000000000E7
:1001E800D83E000808B5034B1BB103490348AFF3D9
:1001F800008008BD0000000010000020D83E000864
:1002080053B94AB9002908BF00281CBF4FF0FF3175
:100218004FF0FF3000F06EB9ADF1080C6DE904CE77
:1002280000F006F8DDF804E0DDE9022304B07047C9
:100238002DE9F047089D04468C46002B40F083804A
:100248008A42174647D9B2FA82F242B1C2F1200077
:1002580024FA00F09140974040EA010C94404FEA9C
:100268001748230CBCFBF8F61FFA87FE08FB16C1DB
:1002780043EA014306FB0EF1994209D9FB1806F13E
:10028800FF3080F01981994240F21681023E3B44CA
:100298005B1AA4B2B3FBF8F008FB103344EA03443A
:1002A80000FB0EFEA64509D93C1900F1FF3380F08A
:1002B8000581A64540F2028102383C4440EA0640E6
:1002C800A4EB0E0400261DB1D4400023C5E9004369
:1002D8003146BDE8F08702B9FFDEB2FA82F2002AA1
:1002E80050D1CB1B4FEA174E1FFA87F80126B3FBF4
:1002F800FEFC210C0EFB1C3341EA034108FB0CF306
:100308008B4207D979180CF1FF3002D28B4200F2E8
:10031800E9808446C91AA3B2B1FBFEF00EFB1011A6
:1003280043EA014408FB00F8A04507D93C1900F14D
:10033800FF3302D2A04500F2D9801846A4EB080486
:1003480040EA0C40BFE78B4209D9002D00F0B1808C
:100358000026C5E9000130463146BDE8F087B3FA0A
:1003680083F6002E4AD18B4202D3824200F2B88033
:10037800841A61EB030101208C46002DA8D0C5E941
:10038800004CA5E7C2F1200320FA03F6974001FAD2
:1003980002F04FEA174ED9403043030CB1FBFEF68A
:1003A8001FFA87F80EFB161143EA014306FB08F112
:1003B800994204FA02F409D9FB1806F1FF3C80F0CF
:1003C8008D80994240F28A80023E3B445B1A81B29A
:1003D800B3FBFEF00EFB103341EA034100FB08F3C8
:1003E8008B4207D9791800F1FF3C73D28B4271D93F
:1003F80002383944CB1A40EA064678E7C6F1200CA1
:1004080003FA06F422FA0CF31C4320FA0CF701FA5B
:1004180006F34FEA144E21FA0CF11F433B0CB1FBD3
:10042800FEF91FFA84F80EFB191143EA014109FB92
:1004380008FA8A4502FA06F200FA06F308D96118A2
:1004480009F1FF3048D28A4546D9A9F10209214469
:10045800A1EB0A01BFB2B1FBFEF00EFB101147EA97
:10046800014700FB08F8B84507D9E71900F1FF3143
:100478002ED2B8452CD90238274440EA0940A7EBC8
:100488000807A0FB02894F45C64649461AD317D02C
:100498005DB1B3EB0E0267EB010707FA0CFCF24003
:1004A8004CEA0202F740C5E9002700263146BDE8BC
:1004B800F0872E4628460BE70646E9E61846FDE68D
:1004C8004345E5D2B8EB020E69EB04010138DFE7DA
:1004D8000846D2E760468DE78146B9E7664675E784
:1004E80030464AE7ACF1020C394413E702383C4481
:1004F80024E700BF704700BF80B500AF00F06FFB76
:1005080000F040F800F040F900F020F900F0EEF8B3
:1005180000F0C2F805221549154802F022FD002313
:1005280000220021134800F060FD0021114800F06E
:100538000AFD114B1B78012BFBD1104B1B680022C5
:1005480000210C4800F051FD012000F0A5FB0B4BE9
:100558001B68184600F0A0F90A2306220849044837
:1005680002F06CFC044B00221A70E2E73401002010
:100578009C000020200100203800002034000020CA
:100588002800002080B5B4B000AF07F1A0033022E6
:100598000021184603F094FC07F18C0300221A602E
:1005A8005A609A60DA601A6107F108038422002110
:1005B800184603F085FC364B1B6C354A43F08053D4
:1005C8001364334B1B6C03F080537B607B68314BA7
:1005D8001B6823F440432F4A43F4804313602D4B98
:1005E8001B6803F440433B603B680223C7F8A03014
:1005F8000123C7F8AC301023C7F8B0300223C7F87E
:10060800B8300023C7F8BC300823C7F8C0304823E7
:10061800C7F8C4300223C7F8C8300323C7F8CC3062
:1006280007F1A003184601F025FB0346002B01D073
:1006380000F072F90F23C7F88C300223C7F8903006
:100648000023C7F894304FF48053C7F8983000233C
:10065800C7F89C3007F18C030221184601F0AEFD63
:100668000346002B01D000F057F94FF48073BB60AC
:1006780000237B6507F10803184601F0A1FF034634
:10068800002B01D000F048F900BFD037BD4680BD2F
:10069800003802400070004080B582B000AF3B4691
:1006A80000221A605A600F4B0F4A1A600D4800F07A
:1006B80028FC0346002B01D000F02EF900233B60F4
:1006C80000237B603B4600221946064800F0B2FC36
:1006D8000346002B01D000F01FF900BF0837BD46C4
:1006E80080BD00BF200100200074004080B500AF2D
:1006F800144B154A1A60134B4FF4E1325A60114BF0
:1007080000229A600F4B0022DA600E4B00221A6119
:100718000C4B0C225A610B4B00229A61094B0022A8
:10072800DA61084B00221A62064B00225A62054819
:1007380002F036FB0346002B01D000F0EDF800BFB5
:1007480080BD00BF9C0000200048004080B582B0FA
:1007580000AF0C4B1B6B0B4A43F400131363094B9C
:100768001B6B03F400137B607B68002200210C20C4
:1007780000F091FB0C2000F0AAFB00BF0837BD4633
:1007880080BD00BF0038024080B588B000AF07F1D7
:100798000C0300221A605A609A60DA601A611D4BD5
:1007A8001B6B1C4A43F0010313631A4B1B6B03F0CA
:1007B8000103BB60BB68174B1B6B164A43F002036F
:1007C8001363144B1B6B03F002037B607B68114BB4
:1007D8001B6B104A43F0080313630E4B1B6B03F0AB
:1007E80008033B603B68002201210B4801F028FA0E
:1007F8000123FB6001233B6100237B610023BB6174
:1008080007F10C031946044801F06EF800BF2037C1
:10081800BD4680BD003802400004024080B483B069
:1008280000AF7860194B1B78303B4FF47A7202FBAB
:1008380003F3174A1360154B5B78303B642202FBC5
:1008480003F2134B1B681344114A13600F4B9B7838
:10085800A3F1300213469B0013445B001A460C4B6D
:100868001B6813440A4A1360084BDB78A3F1300273
:10087800074B1B681344064A1360064B01221A7083
:1008880000BF0C37BD465DF8047B7047340100207B
:10089800340000203800002080B485B000AF7860B4
:1008A8004FF47A73FB600023BB6021E07A68FB6831
:1008B80092FBF3F2164B83FB02139910D317C91A54
:1008C8000B469B000B445B00D11ACBB23033D9B234
:1008D800104ABB6813440A461A70FB680C4A82FB2C
:1008E80003129210DB17D31AFB60BB680133BB609D
:1008F800BB68032BDADD074B0D221A71054B0A2260
:100908005A7100BF1437BD465DF8047B704700BFBD
:10091800676666662800002080B400AF72B600BF24
:10092800FEE7000080B483B000AF0F4B1B6C0E4A8B
:1009380043F0805313640C4B1B6C03F080537B60B3
:100948007B68094B5B6C084A43F480435364064B4D
:100958005B6C03F480433B603B6800BF0C37BD46CB
:100968005DF8047B704700BF0038024080B58AB04C
:1009780000AF786007F1140300221A605A609A6089
:10098800DA601A617B681B68154A934223D1154BBC
:100998001B6C144A43F000531364124B1B6C03F096
:1009A80000533B613B690F4B1B6B0E4A43F001033D
:1009B80013630C4B1B6B03F00103FB60FB681023F4
:1009C8007B610323BB610023FB6107F11403194614
:1009D800054800F089FF00BF2837BD4680BD00BF2D
:1009E80000740040003802400000024080B58AB020
:1009F80000AF786007F1140300221A605A609A6009
:100A0800DA601A617B681B68334A93425FD1334BC3
:100A18001B6C324A43F480231364304B1B6C03F481
:100A280080233B613B692D4B1B6B2C4A43F0080329
:100A380013632A4B1B6B03F00803FB60FB684FF43E
:100A480040737B610223BB610023FB6103233B628C
:100A580007237B6207F114031946214800F044FF7D
:100A6800204B214A1A601F4B4FF000625A601D4B01
:100A780000229A601B4B0022DA601A4B4FF4806206
:100A88001A61184B00225A61164B00229A61154BC5
:100A98004FF48072DA61134B00221A62114B002264
:100AA8005A62104800F016FB0346002B01D0FFF7EE
:100AB80033FF7B680B4A1A670A4A7B6893630022F4
:100AC8000021272000F0E7F9272000F000FA00BFF6
:100AD8002837BD4680BD00BF0048004000380240AE
:100AE800000C02403C0000202860024080B400AFA7
:100AF800FEE780B400AFFEE780B400AFFEE780B445
:100B080000AFFEE780B400AFFEE780B400AF00BFDF
:100B1800BD465DF8047B704780B400AF00BFBD469A
:100B28005DF8047B704780B400AF00BFBD465DF838
:100B3800047B704780B500AF00F08EF800BF80BD21
:100B480080B500AF024800F065FC00BF80BD00BF63
:100B58003C00002080B500AF024802F03FFA00BF19
:100B680080BD00BF9C00002080B400AF064BD3F8C6
:100B78008830054A43F47003C2F8883000BFBD4688
:100B88005DF8047B704700BF00ED00E0DFF834D06B
:100B98000D480E490E4A002302E0D458C4500433CD
:100BA800C4188C42F9D30B4A0B4C002301E01360A4
:100BB8000432A242FBD3FFF7D7FF03F05DF9FFF73A
:100BC8009BFC704700000520000000200C0000205E
:100BD800203F00080C00002044010020FEE780B5FB
:100BE80000AF032000F04CF9002000F005F8FFF7F3
:100BF80099FE0023184680BD80B582B000AF7860AA
:100C0800124B1A68124B1B7819464FF47A73B3FBD0
:100C1800F1F3B2FBF3F3184600F067F90346002B33
:100C280001D001230EE07B680F2B0AD800227968D7
:100C38004FF0FF3000F02FF9064A7B68136000235D
:100C480000E0012318460837BD4680BD000000209B
:100C5800080000200400002080B400AF064B1B7879
:100C68001A46064B1B681344044A136000BFBD466E
:100C78005DF8047B704700BF080000204001002099
:100C880080B400AF034B1B681846BD465DF8047B73
:100C9800704700BF4001002080B584B000AF786085
:100CA800FFF7EEFFB8607B68FB60FB68B3F1FF3FBE
:100CB80005D00A4B1B781A46FB681344FB6000BF3B
:100CC800FFF7DEFF0246BB68D31AFA689A42F7D8E4
:100CD80000BF00BF1037BD4680BD00BF0800002020
:100CE80080B485B000AF78607B6803F00703FB60D1
:100CF8000B4BDB68BB60BA684FF6FF031340BB6061
:100D0800FB681A02BB681A43064B1343BB60044ACC
:100D1800BB68D36000BF1437BD465DF8047B7047DD
:100D280000ED00E00000FA0580B400AF044BDB687A
:100D38001B0A03F007031846BD465DF8047B70479D
:100D480000ED00E080B483B000AF0346FB7197F973
:100D58000730002B0BDBFB7903F01F02074997F9DB
:100D680007305B09012000FA02F241F8232000BF96
:100D78000C37BD465DF8047B704700BF00E100E01A
:100D880080B483B000AF03463960FB7197F9073030
:100D9800002B0ADB3B68DAB20C4997F907301201DD
:100DA800D2B20B4483F800230AE03B68DAB2084960
:100DB800FB7903F00F03043B1201D2B20B441A76FD
:100DC80000BF0C37BD465DF8047B704700E100E0CA
:100DD80000ED00E080B489B000AFF860B9607A60D7
:100DE800FB6803F00703FB61FB69C3F10703042BEE
:100DF80028BF0423BB61FB690433062B02D9FB69B6
:100E0800033B00E000237B614FF0FF32BB6902FA2D
:100E180003F3DA43BB681A407B699A404FF0FF310D
:100E28007B6901FA03F3D9437B680B4013431846E7
:100E38002437BD465DF8047B7047000080B582B05A
:100E480000AF78607B68013BB3F1807F01D3012359
:100E58000FE00A4A7B68013B53600F214FF0FF30D7
:100E6800FFF78EFF054B00229A60044B07221A6099
:100E7800002318460837BD4680BD00BF10E000E0DB
:100E880080B582B000AF78607868FFF729FF00BFAF
:100E98000837BD4680BD80B586B000AF0346B9604F
:100EA8007A60FB7300237B61FFF73EFF78617A6805
:100EB800B9687869FFF78EFF024697F90F30114637
:100EC8001846FFF75DFF00BF1837BD4680BD80B5E7
:100ED80082B000AF0346FB7197F907301846FFF759
:100EE80031FF00BF0837BD4680BD80B582B000AF76
:100EF80078607868FFF7A2FF034618460837BD46B2
:100F080080BD80B582B000AF78607B68002B01D1CE
:100F1800012314E07B681B79DBB2002B05D17B68C9
:100F280000225A717868FFF721FD7B6802221A7146
:100F38007B6800221A617B6801221A710023184617
:100F48000837BD4680BD80B483B000AF7860396093
:100F58007B685B79012B01D1022340E07B68012289
:100F68005A717B6802221A717B681B6819683B6892
:100F780003F0100301229A407B681B680A431A6039
:100F88003B68002B0FD17B681B681B6803F03C0390
:100F98003C2B1DD17B681B685A687B681B6842F034
:100FA80001025A6014E07B681B681B6803F4701226
:100FB8003B6803F010033C2101FA03F39A4207D17E
:100FC8007B681B685A687B681B6842F002025A609B
:100FD8007B6801221A717B6800225A710023184627
:100FE8000C37BD465DF8047B704780B487B000AF0E
:100FF800F860B9607A603B6000237B61FB681B681E
:101008007B61BB68002B05D17A697B681344083380
:101018007B6104E07A697B68134414337B617B69E4
:101028001A463B681360002318461C37BD465DF816
:10103800047B704780B487B000AFF860B9607A600D
:10104800FB685B79012B01D102233CE0FB6801229C
:101058005A71FB6802221A71FB681B681B687B6166
:101068007B6803F0100340F6FE7202FA03F3DB43D9
:101078007A6913407B61BB681A68BB685B68134375
:101088003B617B6803F010033A6902FA03F37A695B
:1010980013437B61FB681B687A691A60FB681B68ED
:1010A80019687B6803F01003C02202FA03F3DA43DD
:1010B800FB681B680A401A60FB6801221A71FB680A
:1010C80000225A71002318461C37BD465DF8047B80
:1010D8007047000080B586B000AF786000237B6160
:1010E800FFF7CEFD38617B68002B01D1012399E021
:1010F8007B68002283F834207B68022283F835203D
:101108007B681B681A687B681B6822F001021A60FA
:101118000FE0FFF7B5FD02463B69D31A052B08D946
:101128007B6820225A657B68032283F835200323D5
:1011380078E07B681B681B6803F00103002BE8D18B
:101148007B681B681B687B617A69384B13407B613D
:101158007B685A687B689B681A437B68DB681A431C
:101168007B681B691A437B685B691A437B689B69C8
:101178001A437B68DB691A437B681B6A13437A69E5
:1011880013437B617B685B6A042B07D17B68DA6A4F
:101198007B681B6B13437A6913437B617B681B680D
:1011A8007A691A607B681B685B697B617B6923F0DD
:1011B80007037B617B685B6A7A6913437B617B68A1
:1011C8005B6A042B17D17B689B6A7A6913437B613E
:1011D8007B68DB6A002B0ED0786800F009FB0346B9
:1011E800002B08D07B6840225A657B68012283F86F
:1011F8003520012316E07B681B687A695A61786894
:1012080000F0C0FA0346FB607B68DB6D3F229A4022
:10121800FB689A607B6800225A657B68012283F824
:101228003520002318461837BD4680BD3F8010F092
:1012380080B586B000AFF860B9607A603B60002383
:10124800FB75FB689B6D3B61FB6893F83430012BA1
:1012580001D1022348E0FB68012283F83420FB68AF
:1012680093F83530DBB2012B37D1FB68022283F8C3
:101278003520FB6800225A653B687A68B968F868C7
:1012880000F052FAFB68DB6D3F229A403B699A6096
:10129800FB681B681A68FB681B6842F016021A6034
:1012A800FB681B685A69FB681B6842F080025A6138
:1012B800FB681B6C002B07D0FB681B681A68FB686F
:1012C8001B6842F008021A60FB681B681A68FB6812
:1012D8001B6842F001021A6005E0FB68002283F8EF
:1012E80034200223FB75FB7D18461837BD4680BDA8
:1012F80080B584B000AF78607B689B6DFB60FFF7BA
:10130800BFFCB8607B6893F83530DBB2022B08D09D
:101318007B6880225A657B68002283F83420012389
:1013280052E07B681B681A687B681B6822F016020B
:101338001A607B681B685A697B681B6822F0800208
:101348005A617B681B6C002B03D17B689B6C002B5C
:1013580007D07B681B681A687B681B6822F0080244
:101368001A607B681B681A687B681B6822F0010298
:101378001A6013E0FFF784FC0246BB68D31A052BFA
:101388000CD97B6820225A657B68002283F83420B8
:101398007B68032283F83520032315E07B681B68EC
:1013A8001B6803F00103002BE4D17B68DB6D3F224F
:1013B8009A40FB689A607B68002283F834207B6837
:1013C800012283F83520002318461037BD4680BD1A
:1013D80080B483B000AF78607B6893F83530DBB2B7
:1013E800022B04D07B6880225A6501230CE07B68BD
:1013F800052283F835207B681B681A687B681B68A0
:1014080022F001021A60002318460C37BD465DF829
:10141800047B704780B586B000AF78600023BB605E
:10142800924B1B68924AA2FB03239B0A7B617B6851
:101438009B6D3B613B691B68FB607B68DB6D082229
:101448009A40FB681340002B1AD07B681B681B6806
:1014580003F00403002B13D07B681B681A687B68B1
:101468001B6822F004021A607B68DB6D08229A4030
:101478003B699A607B685B6D43F001027B685A6543
:101488007B68DB6D01229A40FB681340002B12D069
:101498007B681B685B6903F08003002B0BD07B68BB
:1014A800DB6D01229A403B699A607B685B6D43F073
:1014B80002027B685A657B68DB6D04229A40FB68F0
:1014C8001340002B12D07B681B681B6803F00203D3
:1014D800002B0BD07B68DB6D04229A403B699A6035
:1014E8007B685B6D43F004027B685A657B68DB6D43
:1014F80010229A40FB681340002B43D07B681B687E
:101508001B6803F00803002B3CD07B68DB6D1022BE
:101518009A403B699A607B681B681B6803F48023C8
:10152800002B18D07B681B681B6803F40023002B72
:1015380008D17B681B6C002B24D07B681B6C7868F7
:1015480098471FE07B689B6C002B1BD07B689B6CCB
:101558007868984716E07B681B681B6803F48073FB
:10156800002B07D17B681B681A687B681B6822F010
:1015780008021A607B681B6C002B03D07B681B6C0D
:10158800786898477B68DB6D20229A40FB68134097
:10159800002B00F08E807B681B681B6803F010032B
:1015A800002B00F086807B68DB6D20229A403B6927
:1015B8009A607B6893F83530DBB2052B36D17B68AF
:1015C8001B681A687B681B6822F016021A607B6821
:1015D8001B685A697B681B6822F080025A617B6825
:1015E8001B6C002B03D17B689B6C002B07D07B689E
:1015F8001B681A687B681B6822F008021A607B68FF
:10160800DB6D3F229A403B699A607B68002283F831
:1016180034207B68012283F835207B681B6D002B02
:101628007DD07B681B6D7868984778E07B681B687D
:101638001B6803F48023002B1CD07B681B681B6885
:1016480003F40023002B08D17B685B6C002B30D09F
:101658007B685B6C786898472BE07B68DB6B002BBA
:1016680027D07B68DB6B7868984722E00000002071
:10167800B5814E1B7B681B681B6803F48073002BC5
:101688000FD17B681B681A687B681B6822F0100200
:101698001A607B68002283F834207B68012283F873
:1016A80035207B68DB6B002B03D07B68DB6B7868AD
:1016B80098477B685B6D002B32D07B685B6D03F0CD
:1016C8000103002B22D07B68052283F835207B6834
:1016D8001B681A687B681B6822F001021A60BB68E5
:1016E8000133BB607A699A4207D37B681B681B6821
:1016F80003F00103002BF2D100E000BF7B68002259
:1017080083F834207B68012283F835207B68DB6C02
:10171800002B05D07B68DB6C7868984700E000BF39
:101728001837BD4680BD00BF80B485B000AFF860F3
:10173800B9607A603B60FB681B681A68FB681B68C5
:1017480022F480221A60FB681B683A685A60FB68BA
:101758009B68402B08D1FB681B687A689A60FB6815
:101768001B68BA68DA6007E0FB681B68BA689A60A9
:10177800FB681B687A68DA6000BF1437BD465DF8FD
:10178800047B704780B485B000AF78607B681B68C5
:10179800DBB2103B134AA2FB03231B09FB60124A6E
:1017A800FB6813441B781A467B68DA65FB68032BD1
:1017B80008D97B681B681A460C4B13401A1D7B68B6
:1017C8009A6506E07B681B681A46084B13407A68DE
:1017D80093657B689B6D18461437BD465DF8047B9E
:1017E800704700BFABAAAAAA083F000800FCFFFF89
:1017F80080B485B000AF78600023FB737B689B6A78
:10180800BB607B689B69002B1FD1BB68032B56D834
:1018180001A252F823F000BF31180008431800084D
:1018280031180008C71800087B68DB6A03F080736A
:10183800002B46D00123FB7343E07B68DB6AB3F1DE
:10184800C07F40D10123FB733DE07B689B69B3F502
:10185800005F21D1BB68032B37D801A252F823F0CF
:10186800791800087F1800087918000891180008EE
:101878000123FB7330E07B68DB6A03F08073002B85
:1018880025D00123FB7322E07B68DB6AB3F1C07FBC
:101898001FD10123FB731CE0BB68022B03D9BB6873
:1018A800032B03D018E00123FB7315E07B68DB6A88
:1018B80003F08073002B0ED00123FB730BE000BFF5
:1018C8000AE000BF08E000BF06E000BF04E000BF78
:1018D80002E000BF00E000BFFB7B18461437BD469E
:1018E8005DF8047B704700BF80B489B000AF7860B2
:1018F80039600023FB6100237B6100233B610023E7
:10190800BB610023FB6175E10122FB6902FA03F365
:101918007B613B681B687A6913403B613A697B6964
:101928009A4240F064813B685B68012B0BD03B68AE
:101938005B68022B07D03B685B68112B03D03B68C0
:101948005B68122B30D17B689B68BB61FB695B00CD
:10195800032202FA03F3DB43BA691340BB613B6815
:10196800DA68FB695B0002FA03F3BA691343BB61E7
:101978007B68BA699A607B685B68BB610122FB6916
:1019880002FA03F3DB43BA691340BB613B685B6847
:101998001B0903F00102FB6902FA03F3BA69134356
:1019A800BB617B68BA695A607B68DB68BB61FB69AD
:1019B8005B00032202FA03F3DB43BA691340BB61FD
:1019C8003B689A68FB695B0002FA03F3BA69134340
:1019D800BB617B68BA69DA603B685B68022B03D03D
:1019E8003B685B68122B23D1FB69DA087B680832F5
:1019F80053F82230BB61FB6903F007039B000F22F9
:101A080002FA03F3DB43BA691340BB613B681A6906
:101A1800FB6903F007039B0002FA03F3BA69134357
:101A2800BB61FB69DA087B680832B96943F82210A0
:101A38007B681B68BB61FB695B00032202FA03F346
:101A4800DB43BA691340BB613B685B6803F0030280
:101A5800FB695B0002FA03F3BA691343BB617B6855
:101A6800BA691A603B685B6803F08053002B00F08A
:101A7800BE80664B5B6C654A43F480435364634B9A
:101A88005B6C03F48043FB60FB68614AFB699B085D
:101A9800023352F82330BB61FB6903F003039B0058
:101AA8000F2202FA03F3DB43BA691340BB617B6878
:101AB800584A934237D07B68574A934231D07B6863
:101AC800564A93422BD07B68554A934225D07B686F
:101AD800544A93421FD07B68534A934219D07B687B
:101AE800524A934213D07B68514A93420DD07B6887
:101AF800504A934207D07B684F4A934201D1092349
:101B080012E00A2310E008230EE007230CE0062366
:101B18000AE0052308E0042306E0032304E0022387
:101B280002E0012300E00023FA6902F003029200B8
:101B38009340BA691343BB613549FB699B0802337B
:101B4800BA6941F823203D4B1B68BB613B69DB4305
:101B5800BA691340BB613B685B6803F48033002BB0
:101B680003D0BA693B691343BB61344ABB6913604C
:101B7800324B5B68BB613B69DB43BA691340BB61AD
:101B88003B685B6803F40033002B03D0BA693B69F8
:101B98001343BB61294ABB695360284B9B68BB61EF
:101BA8003B69DB43BA691340BB613B685B6803F47C
:101BB8008013002B03D0BA693B691343BB611F4AEA
:101BC800BB6993601D4BDB68BB613B69DB43BA694A
:101BD8001340BB613B685B6803F40013002B03D020
:101BE800BA693B691343BB61144ABB69D360FB699B
:101BF8000133FB61FB690F2B7FF686AE00BF00BF88
:101C08002437BD465DF8047B704700BF00380240AA
:101C18000038014000000240000402400008024071
:101C2800000C02400010024000140240001802405C
:101C3800001C02400020024000240240003C0140F9
:101C480080B483B000AF78600B467B8013467B700E
:101C58007B78002B03D07A887B689A6103E07B88C5
:101C68001A047B689A6100BF0C37BD465DF8047B97
:101C78007047000080B586B000AF78600023FB7520
:101C88007B68002B01D1012391E27B681B6803F07C
:101C98000103002B00F08780964B9B6803F00C0330
:101CA800042B0CD0934B9B6803F00C03082B12D128
:101CB800904B5B6803F48003B3F5800F0BD18D4B19
:101CC8001B6803F40033002B6CD07B685B68002B27
:101CD80068D101236BE27B685B68B3F5803F06D16E
:101CE800844B1B68834A43F4803313602EE07B687F
:101CF8005B68002B0CD17F4B1B687E4A23F4803332
:101D080013607C4B1B687B4A23F4802313601DE01F
:101D18007B685B68B3F5A02F0CD1764B1B68754ABE
:101D280043F480231360734B1B68724A43F4803377
:101D380013600BE06F4B1B686E4A23F4803313600B
:101D48006C4B1B686B4A23F4802313607B685B68C9
:101D5800002B13D0FEF794FF386108E0FEF790FFE0
:101D680002463B69D31A642B01D903231FE2614B56
:101D78001B6803F40033002BF0D014E0FEF780FF5B
:101D8800386108E0FEF77CFF02463B69D31A642BF2
:101D980001D903230BE2574B1B6803F40033002BD4
:101DA800F0D100E000BF7B681B6803F00203002B42
:101DB80069D0504B9B6803F00C03002B0BD04D4BA4
:101DC8009B6803F00C03082B1CD14A4B5B6803F497
:101DD8008003002B16D1474B1B6803F00203002B2E
:101DE80005D07B68DB68012B01D00123DFE1414B83
:101DF8001B6823F0F8027B681B69DB003D4913432D
:101E08000B6040E07B68DB68002B23D0394B1B68F4
:101E1800384A43F001031360FEF732FF386108E0E7
:101E2800FEF72EFF02463B69D31A022B01D9032382
:101E3800BDE1304B1B6803F00203002BF0D02D4BA3
:101E48001B6823F0F8027B681B69DB0029491343F0
:101E58000B6018E0274B1B68264A23F00103136028
:101E6800FEF70EFF386108E0FEF70AFF02463B69FD
:101E7800D31A022B01D9032399E11E4B1B6803F0E7
:101E88000203002BF0D17B681B6803F00803002BCA
:101E980038D07B685B69002B19D0164B5B6F154AED
:101EA80043F001035367FEF7EBFE386108E0FEF7E5
:101EB800E7FE02463B69D31A022B01D9032376E1D8
:101EC8000C4B5B6F03F00203002BF0D01AE0094BB8
:101ED8005B6F084A23F001035367FEF7D1FE3861B0
:101EE8000AE0FEF7CDFE02463B69D31A022B03D95E
:101EF80003235CE100380240914B5B6F03F002035F
:101F0800002BEED17B681B6803F00403002B00F064
:101F1800A4808B4B1B6C03F08053002B0DD1884B96
:101F28001B6C874A43F080531364854B1B6C03F08A
:101F38008053BB60BB680123FB75824B1B6803F4AD
:101F48008073002B18D17F4B1B687E4A43F4807343
:101F58001360FEF795FE386108E0FEF791FE024631
:101F68003B69D31A642B01D9032320E1754B1B6805
:101F780003F48073002BF0D07B689B68012B06D19B
:101F88006F4B1B6F6E4A43F0010313672DE07B68AC
:101F98009B68002B0CD16A4B1B6F694A23F0010325
:101FA8001367674B1B6F664A23F0040313671CE033
:101FB8007B689B68052B0CD1614B1B6F604A43F013
:101FC800040313675E4B1B6F5D4A43F001031367FD
:101FD8000BE05B4B1B6F5A4A23F001031367584B06
:101FE8001B6F574A23F0040313677B689B68002B19
:101FF80015D0FEF745FE38610AE0FEF741FE0246BD
:102008003B69D31A41F28832934201D90323CEE0C7
:102018004B4B1B6F03F00203002BEED014E0FEF7CE
:102028002FFE38610AE0FEF72BFE02463B69D31A01
:1020380041F28832934201D90323B8E0404B1B6F29
:1020480003F00203002BEED1FB7D012B05D13C4BA5
:102058001B6C3B4A23F0805313647B689B69002BFD
:1020680000F0A480364B9B6803F00C03082B6BD060
:102078007B689B69022B49D1314B1B68304A23F09E
:1020880080731360FEF7FCFD386108E0FEF7F8FD89
:1020980002463B69D31A022B01D9032387E0284B58
:1020A8001B6803F00073002BF0D17B68DA697B684A
:1020B8001B6A1A437B685B6A9B011A437B689B6AAD
:1020C8005B08013B1B041A437B68DB6A1B0613434E
:1020D8001B4A43F000535360194B1B68184A43F0DE
:1020E80080731360FEF7CCFD386108E0FEF7C8FD89
:1020F80002463B69D31A022B01D9032357E0104B40
:102108001B6803F00073002BF0D04FE00C4B1B68EA
:102118000B4A23F080731360FEF7B2FD386108E0C4
:10212800FEF7AEFD02463B69D31A022B01D9032301
:102138003DE0034B1B6803F00073002BF0D135E042
:1021480000380240007000401B4B5B68FB607B68F6
:102158009B69012B28D0FB6803F480027B68DB694C
:102168009A4221D1FB6803F03F027B681B6A9A42BE
:102178001AD1FA6847F6C07313407A68526A920116
:10218800934211D1FB6803F440327B689B6A5B0879
:10219800013B1B049A4207D1FB6803F070627B681D
:1021A800DB6A1B069A4201D0012300E0002318468F
:1021B8001837BD4680BD00BF0038024080B584B0E6
:1021C80000AF786039600023FB607B68002B01D189
:1021D8000123D0E06A4B1B6803F00F033A689A4268
:1021E80010D9674B1B6823F00F0265493B681343FE
:1021F8000B60634B1B6803F00F033A689A4201D0E7
:102208000123B8E07B681B6803F00203002B20D091
:102218007B681B6803F00403002B05D0594B9B68AF
:10222800584A43F4E05393607B681B6803F0080343
:10223800002B05D0534B9B68524A43F4604393608C
:10224800504B9B6823F0F0027B689B684D49134311
:102258008B607B681B6803F00103002B40D07B6810
:102268005B68012B07D1474B1B6803F40033002B35
:1022780015D101237FE07B685B68022B07D1414BB6
:102288001B6803F00073002B09D1012373E03D4B59
:102298001B6803F00203002B01D101236BE0394BCB
:1022A8009B6823F003027B685B68364913438B60A5
:1022B800FEF7E6FCF8600AE0FEF7E2FC0246FB687F
:1022C800D31A41F28832934201D9032353E02D4BAC
:1022D8009B6803F00C027B685B689B009A42EBD119
:1022E800274B1B6803F00F033A689A4210D2244B1D
:1022F8001B6823F00F0222493B6813430B60204BF5
:102308001B6803F00F033A689A4201D0012332E0B8
:102318007B681B6803F00403002B08D0194B9B68EB
:1023280023F4E0527B68DB68164913438B607B68B3
:102338001B6803F00803002B09D0124B9B6823F499
:1023480060427B681B69DB000E4913438B6000F019
:1023580021F802460B4B9B681B0903F00F030A493F
:10236800CB5C22FA03F3094A1360094B1B68184631
:10237800FEF742FC002318461037BD4680BD00BF5B
:10238800003C024000380240F03E000800000020F7
:10239800040000202DE9B04384B000AF00237B6027
:1023A8000023FB6000233B600023BB60674B9B68F6
:1023B80003F00C03082B0DD0082B00F2BD80002B76
:1023C80002D0042B03D0B7E0614BBB60B7E0614B90
:1023D800BB60B4E05D4B5B6803F03F037B605B4B25
:1023E8005B6803F48003002B4DD0584B5B689B0956
:1023F8001A464FF0000340F2FF104FF0000102EAC6
:10240800000803EA0109404649464FF000024FF030
:1024180000034B0143EAD063420110461946B0EB72
:10242800080061EB09014FF000024FF000038B0137
:1024380043EA90638201121A63EB01034FF0000034
:102448004FF00001D90041EA5271D00002460B4614
:1024580012EB080243EB09034FF000004FF00001B4
:10246800590241EAD251500202460B46104619461B
:102478007B681A464FF00003FDF7C2FE02460B4682
:102488001346FB604AE0314B5B689B091A464FF0E4
:10249800000340F2FF104FF0000102EA000403EAD3
:1024A8000105204629464FF000024FF000034B017A
:1024B80043EAD063420110461946001B61EB05014F
:1024C8004FF000024FF000038B0143EA9063820152
:1024D800121A63EB01034FF000004FF00001D9001E
:1024E80041EA5271D00002460B46121945EB03032C
:1024F8004FF000004FF00001990241EA925190021A
:1025080002460B46104619467B681A464FF00003F0
:10251800FDF776FE02460B461346FB600B4B5B68E5
:102528001B0C03F0030301335B003B60FA683B6854
:10253800B2FBF3F3BB6002E0054BBB6000BFBB68B6
:1025480018461037BD46BDE8B08300BF00380240CA
:102558000024F40000127A0080B400AF034B1B681B
:102568001846BD465DF8047B704700BF0000002098
:1025780080B500AFFFF7F0FF0246054B9B689B0A4A
:1025880003F007030349CB5C22FA03F3184680BD26
:1025980000380240003F000880B500AFFFF7DCFFBD
:1025A8000246054B9B685B0B03F007030349CB5CB2
:1025B80022FA03F3184680BD00380240003F0008A5
:1025C80080B588B000AF786000237B6100233B6151
:1025D8000023FB600023FB610023BB617B681B6851
:1025E80003F00103002B12D0694B9B68684A23F45F
:1025F80000039360664B9A687B685B6B644913437E
:102608008B607B685B6B002B01D10123FB617B68CE
:102618001B6803F40023002B17D05D4BD3F88C30D4
:1026280023F440127B68DB6B59491343C1F88C30A3
:102638007B68DB6BB3F5801F01D10123FB617B68ED
:10264800DB6B002B01D10123BB617B681B6803F4A2
:102658008013002B17D04E4BD3F88C3023F4400254
:102668007B681B6C4A491343C1F88C307B681B6C30
:10267800B3F5800F01D10123FB617B681B6C002B34
:1026880001D10123BB617B681B6803F08073002BB9
:1026980001D00123FB617B681B6803F02003002B3A
:1026A80000F08B803A4B1B6C394A43F0805313641B
:1026B800374B1B6C03F08053BB60BB68354B1B6802
:1026C800344A43F480731360FEF7DAFA786108E05D
:1026D800FEF7D6FA02467B69D31A642B01D9032385
:1026E80057E32C4B1B6803F48073002BF0D0284B66
:1026F8001B6F03F440733B613B69002B35D07B684B
:102708001B6B03F440733A699A422ED0204B1B6F1F
:1027180023F440733B611E4B1B6F1D4A43F4803307
:1027280013671B4B1B6F1A4A23F480331367184A2D
:102738003B691367164B1B6F03F00103012B14D180
:10274800FEF79EFA78610AE0FEF79AFA02467B697C
:10275800D31A41F28832934201D9032319E30C4B6F
:102768001B6F03F00203002BEED07B681B6B03F496
:102778004073B3F5407F11D1054B9B6823F4F812E1
:102788007B68196B044B0B40014913438B600BE0CA
:102798000038024000700040FFFCFF0FB14B9B68FF
:1027A800B04A23F4F8139360AE4B1A6F7B681B6B27
:1027B800C3F30B03AB4913430B677B681B6803F038
:1027C8001003002B10D0A74BD3F88C30A54A23F068
:1027D8008073C2F88C30A34BD3F88C207B689B6B3A
:1027E800A0491343C1F88C307B681B6803F480430D
:1027F800002B0AD09B4BD3F8903023F440327B68EF
:102808005B6E98491343C1F890307B681B6803F4EA
:102818000043002B0AD0934BD3F8903023F4402286
:102828007B689B6E8F491343C1F890307B681B68A7
:1028380003F48033002B0AD08A4BD3F8903023F46A
:1028480040127B68DB6E87491343C1F890307B6880
:102858001B6803F40033002B0AD0824BD3F8903066
:1028680023F440027B681B6F7E491343C1F8903004
:102878007B681B6803F04003002B0AD0794BD3F820
:10288800903023F003027B685B6C76491343C1F8F0
:1028980090307B681B6803F08003002B0AD0714BD3
:1028A800D3F8903023F00C027B689B6C6D4913437E
:1028B800C1F890307B681B6803F48073002B0AD042
:1028C800684BD3F8903023F030027B68DB6C6549A5
:1028D8001343C1F890307B681B6803F40073002B26
:1028E8000AD0604BD3F8903023F0C0027B681B6D90
:1028F8005C491343C1F890307B681B6803F480631C
:10290800002B0AD0574BD3F8903023F440727B68E1
:102918005B6D54491343C1F890307B681B6803F41E
:102928000063002B0AD04F4BD3F8903023F4406259
:102938007B689B6D4B491343C1F890307B681B68DB
:1029480003F48053002B0AD0464BD3F8903023F47D
:1029580040527B68DB6D43491343C1F890307B6874
:102968001B6803F40053002B0AD03E4BD3F8903079
:1029780023F440427B681B6E3A491343C1F89030F8
:102988007B681B6803F48003002B0AD0354BD3F80F
:10299800903023F080627B689B6F32491343C1F803
:1029A80090307B681B6803F40013002B11D02D4B6B
:1029B800D3F8903023F000627B68DB6F294913431A
:1029C800C1F890307B68DB6FB3F1006F01D1012350
:1029D800BB617B681B6803F00803002B01D001234F
:1029E800BB617B681B6803F48023002B0AD01D4B56
:1029F800D3F8903023F040727B685B6F194913431A
:102A0800C1F890307B681B6803F40003002B0BD0DF
:102A1800144BD3F8903023F080527B68D3F8803081
:102A280010491343C1F89030FB69012B06D07B682D
:102A38001B6803F00073002B00F0D980094B1B685A
:102A4800084A23F080631360FEF71AF978610BE0F7
:102A5800FEF716F902467B69D31A642B04D90323BF
:102A680097E100BF003802406C4B1B6803F000631D
:102A7800002BEDD17B681B6803F00103002B21D0EC
:102A88007B685B6B002B1DD1644BD3F884301B0C27
:102A980003F003033B61614BD3F884301B0E03F052
:102AA8000F03FB607B685B689A013B691B041A4350
:102AB800FB681B061A437B689B681B07574913432F
:102AC800C1F884307B681B6803F40023002B04D012
:102AD8007B68DB6BB3F5801F0AD07B681B6803F447
:102AE8008013002B2ED07B681B6CB3F5800F29D187
:102AF8004A4BD3F884301B0C03F003033B61474B6C
:102B0800D3F884301B0F03F00703FB607B685B6816
:102B18009A013B691B041A437B68DB681B061A434E
:102B2800FB681B073D491343C1F884303B4BD3F87E
:102B38008C3023F01F027B685B6A013B37491343E3
:102B4800C1F88C307B681B6803F08073002B1DD0A4
:102B5800324BD3F884301B0E03F00F033B612F4B2D
:102B6800D3F884301B0F03F00703FB607B685B68B6
:102B78009A017B681B691B041A433B691B061A43AD
:102B8800FB681B0725491343C1F884307B681B6821
:102B980003F00073002B11D07B685B689A017B6897
:102BA8001B691B041A437B68DB681B061A437B6896
:102BB8009B681B0719491343C1F88430174B1B68DE
:102BC800164A43F080631360FEF75AF8786108E00C
:102BD800FEF756F802467B69D31A642B01D9032302
:102BE800D7E00E4B1B6803F00063002BF0D0BB69E5
:102BF800012B40F0CD80094B1B68084A23F0805315
:102C08001360FEF73DF878610AE0FEF739F80246EE
:102C18007B69D31A642B03D90323BAE00038024036
:102C28005E4B1B6803F00053B3F1005FEDD07B6887
:102C38001B6803F40023002B03D07B68DB6B002B9D
:102C480009D07B681B6803F48013002B2ED07B68A7
:102C58001B6C002B2AD1514BD3F888301B0C03F086
:102C680003033B614D4BD3F888301B0F03F0070378
:102C7800FB607B685B699A013B691B041A437B68AC
:102C88009B691B061A43FB681B0744491343C1F899
:102C98008830424BD3F88C3023F4F8527B689B6A17
:102CA800013B1B023D491343C1F88C307B681B680C
:102CB80003F40013002B22D07B68DB6FB3F1006FA5
:102CC8001DD1364BD3F888301B0E03F00F033B6140
:102CD800324BD3F888301B0F03F00703FB607B6887
:102CE8005B699A017B681B6A1B041A433B691B06D4
:102CF8001A43FB681B0729491343C1F888307B68CE
:102D08001B6803F00803002B28D0244BD3F8883025
:102D18001B0E03F00F033B61204BD3F888301B0CCC
:102D280003F00303FB607B685B699A01FB681B0483
:102D38001A433B691B061A437B68DB691B07174963
:102D48001343C1F88830154BD3F88C3023F4403244
:102D58007B68DB6A11491343C1F88C300F4B1B6841
:102D68000E4A43F080531360FDF78AFF786108E04C
:102D7800FDF786FF02467B69D31A642B01D903232A
:102D880007E0064B1B6803F00053B3F1005FEFD177
:102D9800002318462037BD4680BD00BF00380240DA
:102DA80080B582B000AF78607B68002B01D1012329
:102DB80040E07B689B6F002B06D17B68002283F87C
:102DC80074207868FDF712FE7B6824229A677B6876
:102DD8001B681A687B681B6822F001021A60786811
:102DE80000F012FB0346012B01D1012322E07B688E
:102DF8005B6A002B02D0786800F068FD7B681B686E
:102E08005A687B681B6822F490425A607B681B688A
:102E18009A687B681B6822F02A029A607B681B68A4
:102E28001A687B681B6842F001021A60786800F033
:102E3800EFFD034618460837BD4680BD80B58AB009
:102E480002AFF860B9603B601346FB80FB689B6F7C
:102E5800202B40F08180BB68002B02D0FB88002B20
:102E680001D1012379E0FB6893F87430012B01D17B
:102E7800022372E0FB68012283F87420FB680022B9
:102E8800C3F88020FB6821229A67FDF7F9FE786174
:102E9800FB68FA88A3F85020FB68FA88A3F8522048
:102EA800FB689B68B3F5805F08D1FB681B69002B42
:102EB80004D10023FB61BB68BB6103E0BB68FB6115
:102EC8000023BB61FB68002283F874202CE03B6878
:102ED80000937B6900228021F86800F0CCFD03464E
:102EE800002B01D0032338E0FB69002B0BD1BB6911
:102EF8001B881A46FB681B68C2F308029A62BB6902
:102F08000233BB6107E0FB691A78FB681B689A62A9
:102F1800FB690133FB61FB68B3F852309BB2013B9C
:102F28009AB2FB68A3F85220FB68B3F852309BB200
:102F3800002BCCD13B6800937B6900224021F868C4
:102F480000F099FD0346002B01D0032305E0FB6840
:102F580020229A67002300E0022318462037BD4646
:102F680080BD80B584B000AFF860B9601346FB80BF
:102F7800FB68DB6F202B2CD1BB68002B02D0FB88B1
:102F8800002B01D1012325E0FB6893F87430012B55
:102F980001D102231EE0FB68012283F87420FB683C
:102FA80000221A66FB681B685B6803F40003002BA9
:102FB80007D0FB681B681A68FB681B6842F08062D0
:102FC8001A60FB881A46B968F86800F0D1FD034614
:102FD80000E0022318461037BD4680BD80B588B092
:102FE80000AF78607B681B68DB69FB617B681B68E6
:102FF8001B68BB617B681B689B687B61FA6940F64C
:103008000F0313403B613B69002B13D1FB6903F0AD
:103018002003002B0ED0BB6903F02003002B09D03E
:103028007B685B6E002B00F0B9817B685B6E78680B
:103038009847B3E13B69002B00F0E3807B6903F01C
:103048000103002B05D1BA69A54B1340002B00F0F2
:10305800D880FB6903F00103002B10D0BB6903F48F
:103068008073002B0BD07B681B6801221A627B6877
:10307800D3F8803043F001027B68C3F88020FB69F5
:1030880003F00203002B10D07B6903F00103002B2F
:103098000BD07B681B6802221A627B68D3F88030E9
:1030A80043F004027B68C3F88020FB6903F0040343
:1030B800002B10D07B6903F00103002B0BD07B6839
:1030C8001B6804221A627B68D3F8803043F002023E
:1030D8007B68C3F88020FB6903F00803002B15D038
:1030E800BB6903F02003002B04D17B6903F00103C3
:1030F800002B0BD07B681B6808221A627B68D3F808
:10310800803043F008027B68C3F88020FB6903F431
:103118000063002B11D0BB6903F08063002B0CD037
:103128007B681B684FF400621A627B68D3F88030B2
:1031380043F020027B68C3F880207B68D3F8803096
:10314800002B00F02D81FB6903F02003002B0CD02D
:10315800BB6903F02003002B07D07B685B6E002B54
:1031680003D07B685B6E786898477B68D3F88030BB
:10317800FB607B681B689B6803F04003402B04D00E
:10318800FB6803F02803002B31D0786800F071FD4C
:103198007B681B689B6803F04003402B23D17B6846
:1031A8001B689A687B681B6822F040029A607B68FB
:1031B8001B6F002B13D07B681B6F4A4A1A657B680C
:1031C8001B6F1846FEF704F90346002B17D07B68DF
:1031D8001B6F1B6D7A68126F104698470FE078686E
:1031E80000F0FCF80BE0786800F0F8F807E0786881
:1031F80000F0F4F87B680022C3F88020D0E000BF1C
:10320800CEE07B681B6E012B40F0A780FB6903F0C2
:103218001003002B00F0A180BB6903F01003002B02
:1032280000F09B807B681B6810221A627B681B6811
:103238009B6803F04003402B56D17B681B6F1B68CB
:103248005B683B813B89002B00F0AC807B68B3F85E
:1032580058303A899A4280F0A5807B683A89A3F869
:103268005A207B681B6FDB69B3F5807F2AD07B68A7
:103278001B681A687B681B6822F480721A607B6876
:103288001B689A687B681B6822F001029A607B6859
:103298001B689A687B681B6822F040029A607B680A
:1032A8002022DA677B6800221A667B681B681A6826
:1032B8007B681B6822F010021A607B681B6F184637
:1032C800FEF716F87B68B3F858207B68B3F85A30D5
:1032D8009BB2D31A9BB21946786800F089F861E06E
:1032E80020010004213E00087B68B3F858207B6861
:1032F800B3F85A309BB2D31A7B817B68B3F85A3043
:103308009BB2002B50D07B89002B4DD07B681B686B
:103318001A687B681B6822F490721A607B681B68C5
:103328009A687B681B6822F001029A607B682022F9
:10333800DA677B6800221A667B6800225A667B6817
:103348001B681A687B681B6822F010021A607B8968
:103358001946786800F04CF826E0FB6903F0800312
:10336800002B0DD0BB6903F08003002B08D07B68CD
:103378009B6E002B1AD07B689B6E7868984715E087
:10338800FB6903F04003002B11D0BB6903F0400335
:10339800002B0CD0786800F055FD08E000BF06E06F
:1033A80000BF04E000BF02E000BF00E000BF20371C
:1033B800BD4680BD80B483B000AF786000BF0C37D5
:1033C800BD465DF8047B704780B483B000AF786079
:1033D80000BF0C37BD465DF8047B704780B483B0EE
:1033E80000AF786000BF0C37BD465DF8047B7047BE
:1033F80080B483B000AF78600B467B8000BF0C3789
:10340800BD465DF8047B704780B588B000AF786032
:103418000023BB777B689A687B681B691A437B68C3
:103428005B691A437B68DB6913437B617B681B68B4
:103438001A68A74B13407A68126879690B431360BE
:103448007B681B685B6823F440517B68DA687B689B
:103458001B680A435A607B689B697B617B681B6AAF
:103468007A6913437B617B681B689B6823F430612E
:103478007B681B687A690A439A607B681B68954A6F
:10348800934220D1944BD3F8903003F00303032BDD
:1034980016D801A252F823F0B1340008BD34000850
:1034A800B7340008C33400080123FB774FE1022337
:1034B800FB774CE10423FB7749E10823FB7746E1DE
:1034C8001023FB7743E17B681B68844A934232D11F
:1034D800814BD3F8903003F00C030C2B28D801A2B1
:1034E80052F823F02135000839350008393500082D
:1034F800393500082D3500083935000839350008F8
:1035080039350008273500083935000839350008ED
:1035180039350008333500080023FB7717E102230B
:10352800FB7714E10423FB7711E10823FB770EE115
:103538001023FB770BE17B681B68694A934220D113
:10354800654BD3F8903003F03003302B13D0302B79
:1035580014D8202B09D0202B10D8002B02D0102BE8
:1035680006D00BE00023FB77F1E00223FB77EEE0C7
:103578000423FB77EBE00823FB77E8E01023FB77D5
:10358800E5E07B681B68574A934220D1524BD3F839
:10359800903003F0C003C02B13D0C02B14D8802B5D
:1035A80009D0802B10D8002B02D0402B06D00BE07E
:1035B8000023FB77CBE00223FB77C8E00423FB77EB
:1035C800C5E00823FB77C2E01023FB77BFE07B68E8
:1035D8001B68454A934225D13F4BD3F8903003F4FA
:1035E8004073B3F5407F17D0B3F5407F17D8B3F5D4
:1035F800007F0BD0B3F5007F11D8002B03D0B3F5B3
:10360800807F06D00BE00023FB77A0E00223FB7746
:103618009DE00423FB779AE00823FB7797E01023CB
:10362800FB7794E07B681B68304A934225D12A4B8C
:10363800D3F8903003F44063B3F5406F17D0B3F577
:10364800406F17D8B3F5006F0BD0B3F5006F11D8E2
:10365800002B03D0B3F5806F06D00BE00123FB7776
:1036680075E00223FB7772E00423FB776FE0082301
:10367800FB776CE01023FB7769E07B681B681C4ACA
:10368800934237D1144BD3F8903003F44053B3F539
:10369800405F17D0B3F5405F17D8B3F5005F0BD084
:1036A800B3F5005F11D8002B03D0B3F5805F06D0C7
:1036B8000BE00023FB774AE00223FB7747E0042373
:1036C800FB7744E00823FB7741E01023FB773EE0DB
:1036D800F369FFEF00100140003802400044004049
:1036E80000480040004C00400050004000140140D9
:1036F800007800407B681B68714A934225D1714B62
:10370800D3F8903003F44043B3F5404F17D0B3F5E6
:10371800404F17D8B3F5004F0BD0B3F5004F11D871
:10372800002B03D0B3F5804F06D00BE00023FB77C6
:103738000DE00223FB770AE00423FB7707E0082368
:10374800FB7704E01023FB7701E01023FB777B680D
:10375800DB69B3F5004F5BD1FB7F082B27D801A2AB
:1037680052F823F09137000899370008A13700086C
:10377800B7370008A7370008B7370008B737000879
:10378800B7370008AF370008FEF7F2FEB86113E05C
:10379800FEF702FFB8610FE04B4BBB610CE0FEF790
:1037A800F9FDB86108E04FF40043BB6104E0002371
:1037B800BB610123BB7700BFBB69002B74D0BB6919
:1037C8005A007B685B685B081A447B685B68B2FBDD
:1037D800F3F39BB23B613B690F2B16D93B69B3F5F9
:1037E800803F12D23B699BB223F00F03FB813B69F8
:1037F8005B089BB203F007039AB2FB891343FB8172
:103808007B681B68FA89DA604EE00123BB774BE0DE
:10381800FB7F082B27D801A252F823F0493800086B
:1038280051380008593800086F3800085F38000818
:103838006F3800086F3800086F38000867380008CC
:10384800FEF796FEB86113E0FEF7A6FEB8610FE03A
:103858001D4BBB610CE0FEF79DFDB86108E04FF41D
:103868000043BB6104E00023BB610123BB7700BFB9
:10387800BB69002B18D07B685B685A08BB691A447F
:103888007B685B68B2FBF3F39BB23B613B690F2B30
:1038980008D93B69B3F5803F04D27B681B683A6955
:1038A800DA6001E00123BB777B6800225A667B68F7
:1038B80000229A66BB7F18462037BD4680BD00BFF0
:1038C800007C0040003802400024F40080B483B03B
:1038D80000AF78607B685B6A03F00103002B0AD0B5
:1038E8007B681B685B6823F400317B689A6A7B6895
:1038F8001B680A435A607B685B6A03F00203002B6B
:103908000AD07B681B685B6823F480317B68DA6ABD
:103918007B681B680A435A607B685B6A03F0040390
:10392800002B0AD07B681B685B6823F480217B68C6
:103938001A6B7B681B680A435A607B685B6A03F0F2
:103948000803002B0AD07B681B685B6823F40041DE
:103958007B685A6B7B681B680A435A607B685B6AA2
:1039680003F01003002B0AD07B681B689B6823F4C4
:1039780080517B689A6B7B681B680A439A607B68F6
:103988005B6A03F02003002B0AD07B681B689B68E6
:1039980023F400517B68DA6B7B681B680A439A60E2
:1039A8007B685B6A03F04003002B1AD07B681B68B6
:1039B8005B6823F480117B681A6C7B681B680A4378
:1039C8005A607B681B6CB3F5801F0AD17B681B6843
:1039D8005B6823F4C0017B685A6C7B681B680A43E8
:1039E8005A607B685B6A03F08003002B0AD07B680F
:1039F8001B685B6823F400217B689A6C7B681B68F2
:103A08000A435A6000BF0C37BD465DF8047B704717
:103A180080B586B002AF78607B680022C3F880204A
:103A2800FDF72EF9F8607B681B681B6803F0080334
:103A3800082B0ED16FF07E430093FB6800224FF4F1
:103A48000011786800F017F80346002B01D0032313
:103A58000DE07B6820229A677B682022DA677B6802
:103A680000221A667B68002283F874200023184617
:103A78001037BD4680BD80B584B000AFF860B9602E
:103A88003B601346FB715EE0BB69B3F1FF3F5AD060
:103A9800FDF7F6F802463B68D31ABA699A4202D390
:103AA800BB69002B1BD1FB681B681A68FB681B6885
:103AB80022F4D0721A60FB681B689A68FB681B685E
:103AC80022F001029A60FB6820229A67FB68202294
:103AD800DA67FB68002283F87420032343E0FB685D
:103AE8001B681B6803F00403002B2CD0FB681B68C1
:103AF800DB6903F40063B3F5006F24D1FB681B682E
:103B08004FF400621A62FB681B681A68FB681B683E
:103B180022F4D0721A60FB681B689A68FB681B68FD
:103B280022F001029A60FB6820229A67FB68202233
:103B3800DA67FB682022C3F88020FB68002283F83C
:103B4800742003230FE0FB681B68DA69BB68134025
:103B5800BA689A420CBF01230023DBB21A46FB79EC
:103B68009A4291D0002318461037BD4680BD000008
:103B780080B584B000AFF860B9601346FB80FB687D
:103B8800BA685A65FB68FA88A3F85820FB680022CF
:103B9800C3F88020FB682222DA67FB681B6F002BC2
:103BA8002BD0FB681B6F254ADA63FB681B6F244A1E
:103BB8001A64FB681B6F234ADA64FB681B6F0022D8
:103BC8001A65FB68186FFB681B6824331946FB6885
:103BD8005B6D1A46FB88FDF72BFB0346002B0CD0C8
:103BE800FB681022C3F88020FB68002283F8742049
:103BF800FB6820229A6701231CE0FB68002283F8F7
:103C08007420FB681B681A68FB681B6842F48072A2
:103C18001A60FB681B689A68FB681B6842F001021F
:103C28009A60FB681B689A68FB681B6842F0400250
:103C38009A60002318461037BD4680BDD93C00085D
:103C48006D3D0008A53D000880B483B000AF7860E2
:103C58007B681B681A687B681B6822F0C0021A60C0
:103C68007B6820229A6700BF0C37BD465DF8047B4D
:103C7800704780B483B000AF78607B681B681A68AF
:103C88007B681B6822F490721A607B681B689A68CC
:103C98007B681B6822F001029A607B681B6E012B0F
:103CA80007D17B681B681A687B681B6822F01002C2
:103CB8001A607B682022DA677B6800221A667B68B4
:103CC80000225A6600BF0C37BD465DF8047B70477A
:103CD80080B584B000AF78607B689B6BFB607B68C5
:103CE800DB69B3F5807F2AD0FB680022A3F85A204D
:103CF800FB681B681A68FB681B6822F480721A60EC
:103D0800FB681B689A68FB681B6822F001029A60CE
:103D1800FB681B689A68FB681B6822F040029A607F
:103D2800FB682022DA67FB681B6E012B07D1FB6852
:103D38001B681A68FB681B6822F010021A60FB688F
:103D48001B6E012B07D1FB68B3F858301946F86889
:103D5800FFF74EFB02E0F868FCF760FD00BF103784
:103D6800BD4680BD80B584B000AF78607B689B6B32
:103D7800FB60FB681B6E012B09D1FB68B3F8583058
:103D88005B089BB21946F868FFF732FB02E0F86857
:103D9800FFF71AFB00BF1037BD4680BD80B586B05F
:103DA80000AF78607B689B6B7B617B699B6F3B6135
:103DB8007B69DB6FFB607B691B689B6803F0800392
:103DC800802B09D13B69212B06D17B690022A3F8FE
:103DD80052207869FFF738FF7B691B689B6803F0FE
:103DE8004003402B09D1FB68222B06D17B690022B6
:103DF800A3F85A207869FFF73CFF7B69D3F8803035
:103E080043F010027B69C3F880207869FFF7E6FA6F
:103E180000BF1837BD4680BD80B584B000AF78605C
:103E28007B689B6BFB60FB680022A3F85A20FB6849
:103E38000022A3F85220F868FFF7D0FA00BF103725
:103E4800BD4680BD80B582B000AF78607B681B68D6
:103E58001A687B681B6822F040021A607B6820227F
:103E68009A677B6800229A667868FFF7A3FA00BF12
:103E78000837BD4680BD000070B50D4D0D4C641B64
:103E8800A4100026A64209D10B4D0C4C00F020F8D6
:103E9800641BA4100026A64205D170BD55F8043B4A
:103EA80098470136EEE755F8043B98470136F2E7A4
:103EB800183F0008183F0008183F00081C3F00087A
:103EC80002440346934200D1704703F8011BF9E707
:103ED800F8B500BFF8BC08BC9E467047F8B500BFEF
:083EE800F8BC08BC9E467047BF
:103EF000000000000000000001020304060708099A
:103F0000000000000102030400061016000610164F
:083F100028C3FF7F010000003F
:043F1800ED010008AF
:043F1C00C9010008CF
:0C3F20000024F40010000000010000006C
:0400000508000B954F
:00000001FF
