:020000040800F2
:1000000000000220311A0008551900085B19000889
:1000100061190008671900086D1900080000000048
:10002000000000000000000000000000731900083C
:1000300081190008000000008F1900089D190008B0
:10004000811A0008811A0008811A0008811A000824
:10005000811A0008811A0008811A0008811A000814
:10006000811A0008811A0008811A0008811A000804
:10007000811A0008811A0008811A0008811A0008F4
:10008000A9190008BD190008811A0008811A000882
:10009000811A0008811A0008811A0008811A0008D4
:1000A000811A0008811A0008811A0008811A0008C4
:1000B000811A0008811A0008811A0008811A0008B4
:1000C000811A0008811A0008811A0008811A0008A4
:1000D000811A0008811A0008D1190008811A000845
:1000E000811A0008811A0008811A0008811A000884
:1000F000811A0008E5190008811A0008811A000811
:10010000811A0008811A0008811A0008811A000863
:10011000811A0008811A0008811A0008811A000853
:10012000F9190008811A0008811A0008811A0008CC
:10013000811A00080000000000000000811A000879
:10014000811A0008811A0008811A0008811A000823
:10015000811A0008811A0008811A0008811A000813
:10016000811A0008811A0008811A0008811A000803
:10017000811A0008811A0008811A00080000000096
:1001800000000000811A00080000000000000000CC
:10019000811A00080000000000000000811A000819
:1001A000000000000000000000000000811A0008AC
:1001B000811A0008811A0008811A0008811A0008B3
:0401C000811A000898
:1001D00010B5054C237833B9044B13B10448AFF381
:1001E00000800123237010BDE0010020000000000A
:1001F000D47E000808B5034B1BB103490348AFF395
:10020000008008BD00000000E4010020D47E00084A
:10021000034613F8012B002AFBD1181A0138704746
:1002200001F0FF01102A2BDB10F0070F08D010F8A7
:10023000013B013A8B422DD010F0070F42B3F6D1AB
:10024000F0B441EA012141EA014122F007047FF0C4
:1002500000070023F0E80256083C85EA010586EA1B
:10026000010685FA47F5A3FA87F586FA47F6A5FA57
:1002700087F68EB9EED1F0BC01F0FF0102F0070263
:1002800032B110F8013B013A83EA010313B1F8D10E
:100290000020704701387047002D06BF35460338EF
:1002A000073815F0010F07D1013015F4807F02BF28
:1002B000013015F4C03F0130F0BC0138704700BF79
:1002C00081F0004102E000BF83F0004330B54FEA07
:1002D00041044FEA430594EA050F08BF90EA020F74
:1002E0001FBF54EA000C55EA020C7FEA645C7FEA07
:1002F000655C00F0E2804FEA5454D4EB5555B8BF2A
:100300006D420CDD2C4480EA020281EA030382EA9A
:10031000000083EA010180EA020281EA0303362D2C
:1003200088BF30BD11F0004F4FEA01314FF4801CFF
:100330004CEA113102D0404261EB410113F0004F11
:100340004FEA03334CEA133302D0524263EB4303C8
:1003500094EA050F00F0A780A4F10104D5F1200E66
:100360000DDB02FA0EFC22FA05F2801841F10001C1
:1003700003FA0EF2801843FA05F359410EE0A5F195
:1003800020050EF1200E012A03FA0EFC28BF4CF0C6
:10039000020C43FA05F3C01851EBE37101F000457C
:1003A00007D54FF0000EDCF1000C7EEB00006EEB89
:1003B0000101B1F5801F1BD3B1F5001F0CD3490813
:1003C0005FEA30004FEA3C0C04F101044FEA44526A
:1003D00012F5800F80F09A80BCF1004F08BF5FEAF1
:1003E000500C50F1000041EB045141EA050130BDD1
:1003F0005FEA4C0C404141EB0101013C28BFB1F5E3
:10040000801FE9D291F0000F04BF01460020B1FA2D
:1004100081F308BF2033A3F10B03B3F120020CDA00
:100420000C3208DD02F1140CC2F10C0201FA0CF0DE
:1004300021FA02F10CE002F11402D8BFC2F1200C43
:1004400001FA02F120FA0CFCDCBF41EA0C019040F9
:10045000E41AA2BF01EB0451294330BD6FEA040442
:100460001F3C1CDA0C340EDC04F11404C4F120022D
:1004700020FA04F001FA02F340EA030021FA04F33F
:1004800045EA030130BDC4F10C04C4F1200220FA96
:1004900002F001FA04F340EA0300294630BD21FAD4
:1004A00004F0294630BD94F0000F83F4801306BF9A
:1004B00081F480110134013D4EE77FEA645C18BF8E
:1004C0007FEA655C29D094EA050F08BF90EA020F25
:1004D00005D054EA000C04BF1946104630BD91EA1D
:1004E000030F1EBF0021002030BD5FEA545C05D120
:1004F0004000494128BF41F0004130BD14F580045F
:100500003CBF01F5801130BD01F0004545F0FE41D2
:1005100041F470014FF0000030BD7FEA645C1ABF07
:10052000194610467FEA655C1CBF0B46024650EA3E
:10053000013406BF52EA033591EA030F41F400216A
:1005400030BD00BF90F0000F04BF0021704730B5F0
:100550004FF4806404F132044FF000054FF00001C5
:1005600050E700BF90F0000F04BF0021704730B586
:100570004FF4806404F1320410F0004548BF40425B
:100580004FF000013EE700BF42004FEAE2014FEAB0
:1005900031014FEA02701FBF12F07F4393F07F4F8B
:1005A00081F06051704732F07F4208BF704793F08E
:1005B0007F4F04BF41F40021704730B54FF46074A1
:1005C00001F0004521F000411CE700BF50EA0102A4
:1005D00008BF704730B54FF000050AE050EA01024D
:1005E00008BF704730B511F0004502D5404261EBBD
:1005F00041014FF4806404F132045FEA915C3FF4FE
:10060000D8AE4FF003025FEADC0C18BF03325FEA9A
:10061000DC0C18BF033202EBDC02C2F1200300FA4B
:1006200003FC20FA02F001FA03FE40EA0E0021FA70
:1006300002F11444BDE600BF70B54FF0FF0C4CF45E
:10064000E06C1CEA11541DBF1CEA135594EA0C0F10
:1006500095EA0C0F00F0DEF82C4481EA030621EA4B
:100660004C5123EA4C5350EA013518BF52EA033586
:1006700041F4801143F4801338D0A0FB02CE4FF038
:100680000005E1FB02E506F00042E0FB03E54FF068
:100690000006E1FB03569CF0000F18BF4EF0010E60
:1006A000A4F1FF04B6F5007F64F5407404D25FEA5C
:1006B0004E0E6D4146EB060642EAC62141EA55510F
:1006C0004FEAC52040EA5E504FEACE2EB4F1FD0C51
:1006D00088BFBCF5E06F1ED8BEF1004F08BF5FEACF
:1006E000500E50F1000041EB045170BD06F0004681
:1006F00046EA010140EA020081EA0301B4EB5C042E
:10070000C2BFD4EB0C0541EA045170BD41F4801125
:100710004FF0000E013C00F3AB8014F1360FDEBF4A
:10072000002001F0004170BDC4F10004203C35DA26
:100730000C341BDC04F11404C4F1200500FA05F3A9
:1007400020FA04F001FA05F240EA020001F000424A
:1007500021F0004110EBD37021FA04F642EB0601C0
:100760005EEA430E08BF20EAD37070BDC4F10C04EA
:10077000C4F1200500FA04F320FA05F001FA04F2AE
:1007800040EA020001F0004110EBD37041F100019A
:100790005EEA430E08BF20EAD37070BDC4F12005A5
:1007A00000FA05F24EEA020E20FA04F301FA05F20D
:1007B00043EA020321FA04F001F0004121FA04F2B5
:1007C00020EA020000EBD3705EEA430E08BF20EA85
:1007D000D37070BD94F0000F0FD101F000464000BF
:1007E00041EB010111F4801F08BF013CF7D041EA41
:1007F000060195F0000F18BF704703F00046520045
:1008000043EB030313F4801F08BF013DF7D043EA15
:100810000603704794EA0C0F0CEA135518BF95EACB
:100820000C0F0CD050EA410618BF52EA4306D1D152
:1008300081EA030101F000414FF0000070BD50EA71
:10084000410606BF1046194652EA430619D094EAFB
:100850000C0F02D150EA013613D195EA0C0F05D1E5
:1008600052EA03361CBF104619460AD181EA030139
:1008700001F0004141F0FE4141F470014FF00000F1
:1008800070BD41F0FE4141F4780170BD70B54FF08C
:10089000FF0C4CF4E06C1CEA11541DBF1CEA13550C
:1008A00094EA0C0F95EA0C0F00F0A7F8A4EB0504EE
:1008B00081EA030E52EA03354FEA013100F08880E5
:1008C0004FEA03334FF0805545EA131343EA1263AE
:1008D0004FEA022245EA111545EA10654FEA002663
:1008E0000EF000419D4208BF964244F1FD0404F51C
:1008F000407402D25B084FEA3202B61A65EB030578
:100900005B084FEA32024FF480104FF4002CB6EB34
:10091000020E75EB030E22BFB61A754640EA0C00B4
:100920005B084FEA3202B6EB020E75EB030E22BFF4
:10093000B61A754640EA5C005B084FEA3202B6EB35
:10094000020E75EB030E22BFB61A754640EA9C00F4
:100950005B084FEA3202B6EB020E75EB030E22BFC4
:10096000B61A754640EADC0055EA060E18D04FEA82
:10097000051545EA16754FEA06164FEAC30343EA22
:1009800052734FEAC2025FEA1C1CC0D111F4801FEF
:100990000BD141EA00014FF000004FF0004CB6E7E8
:1009A00011F4801F04BF01430020B4F1FD0C88BF87
:1009B000BCF5E06F3FF6AFAEB5EB030C04BFB6EB92
:1009C000020C5FEA500C50F1000041EB045170BD85
:1009D0000EF0004E4EEA113114EB5C04C2BFD4EBB2
:1009E0000C0541EA045170BD41F480114FF0000E36
:1009F000013C90E645EA060E8DE60CEA135594EAB2
:100A00000C0F08BF95EA0C0F3FF43BAF94EA0C0FB4
:100A10000AD150EA01347FF434AF95EA0C0F7FF429
:100A200025AF104619462CE795EA0C0F06D152EA7D
:100A300003353FF4FDAE1046194622E750EA410661
:100A400018BF52EA43067FF4C5AE50EA41047FF472
:100A50000DAF52EA43057FF4EBAE12E74FF0FF3CD7
:100A600006E000BF4FF0010C02E000BF4FF0010CA8
:100A70004DF804CD4FEA410C7FEA6C5C4FEA430C21
:100A800018BF7FEA6C5C1BD001B050EA410C0CBF70
:100A900052EA430C91EA030F02BF90EA020F0020D2
:100AA000704710F1000F91EA030F58BF994208BF39
:100AB00090422CBFD8176FEAE37040F001007047F6
:100AC0004FEA410C7FEA6C5C02D150EA013C07D14D
:100AD0004FEA430C7FEA6C5CD6D152EA033CD3D098
:100AE0005DF8040B704700BF8446104662468C4692
:100AF0001946634600E000BF01B5FFF7B7FF0028C5
:100B000048BF10F1000F01BD4DF808EDFFF7F4FFED
:100B10000CBF012000205DF808FB00BF4DF808ED78
:100B2000FFF7EAFF34BF012000205DF808FB00BF9B
:100B30004DF808EDFFF7E0FF94BF012000205DF8BD
:100B400008FB00BF4DF808EDFFF7CEFF94BF012072
:100B500000205DF808FB00BF4DF808EDFFF7C4FF6B
:100B600034BF012000205DF808FB00BF4FEA410CB4
:100B70007FEA6C5C02D150EA013C0AD14FEA430C97
:100B80007FEA6C5C02D152EA033C02D14FF00000D4
:100B900070474FF0010070474FEA410212F5001212
:100BA00015D211D56FF47873B3EB625212D94FEAB4
:100BB000C12343F0004343EA505311F0004F23FA9E
:100BC00002F018BF404270474FF00000704750EAF3
:100BD000013005D111F0004008BF6FF000407047B0
:100BE0004FF00000704700BF53B94AB9002908BF51
:100BF00000281CBF4FF0FF314FF0FF3000F06EB9FE
:100C0000ADF1080C6DE904CE00F006F8DDF804E063
:100C1000DDE9022304B070472DE9F047089D044642
:100C20008C46002B40F083808A42174647D9B2FA9F
:100C300082F242B1C2F1200024FA00F091409740C4
:100C400040EA010C94404FEA1748230CBCFBF8F62D
:100C50001FFA87FE08FB16C143EA014306FB0EF1AB
:100C6000994209D9FB1806F1FF3080F019819942A9
:100C700040F21681023E3B445B1AA4B2B3FBF8F08B
:100C800008FB103344EA034400FB0EFEA64509D9D5
:100C90003C1900F1FF3380F00581A64540F2028146
:100CA00002383C4440EA0640A4EB0E0400261DB185
:100CB000D4400023C5E900433146BDE8F08702B9BE
:100CC000FFDEB2FA82F2002A50D1CB1B4FEA174E58
:100CD0001FFA87F80126B3FBFEFC210C0EFB1C3328
:100CE00041EA034108FB0CF38B4207D979180CF158
:100CF000FF3002D28B4200F2E9808446C91AA3B2C7
:100D0000B1FBFEF00EFB101143EA014408FB00F8B2
:100D1000A04507D93C1900F1FF3302D2A04500F2EB
:100D2000D9801846A4EB080440EA0C40BFE78B4288
:100D300009D9002D00F0B1800026C5E90001304638
:100D40003146BDE8F087B3FA83F6002E4AD18B42D4
:100D500002D3824200F2B880841A61EB03010120C1
:100D60008C46002DA8D0C5E9004CA5E7C2F12003B0
:100D700020FA03F6974001FA02F04FEA174ED940E5
:100D80003043030CB1FBFEF61FFA87F80EFB161179
:100D900043EA014306FB08F1994204FA02F409D937
:100DA000FB1806F1FF3C80F08D80994240F28A806A
:100DB000023E3B445B1A81B2B3FBFEF00EFB1033E4
:100DC00041EA034100FB08F38B4207D9791800F18F
:100DD000FF3C73D28B4271D902383944CB1A40EAB6
:100DE000064678E7C6F1200C03FA06F422FA0CF363
:100DF0001C4320FA0CF701FA06F34FEA144E21FACD
:100E00000CF11F433B0CB1FBFEF91FFA84F80EFBFB
:100E1000191143EA014109FB08FA8A4502FA06F270
:100E200000FA06F308D9611809F1FF3048D28A4563
:100E300046D9A9F102092144A1EB0A01BFB2B1FBD5
:100E4000FEF00EFB101147EA014700FB08F8B84519
:100E500007D9E71900F1FF312ED2B8452CD9023855
:100E6000274440EA0940A7EB0807A0FB02894F4549
:100E7000C64649461AD317D05DB1B3EB0E0267EBF5
:100E8000010707FA0CFCF2404CEA0202F740C5E900
:100E9000002700263146BDE8F0872E4628460BE79E
:100EA0000646E9E61846FDE64345E5D2B8EB020EF4
:100EB00069EB04010138DFE70846D2E760468DE7B9
:100EC0008146B9E7664675E730464AE7ACF1020C61
:100ED000394413E702383C4424E700BF704700BFA1
:100EE00080B500AF00F0CEFD00F01EF800F082F9F2
:100EF00000F042F900F016F900F082F800F0E0F896
:100F000003220549054803F025FA02220449054851
:100F100000F06EFEFEE700BF0C0200208C030020F4
:100F2000740200207C02002080B594B000AF07F16D
:100F30001C0334220021184604F0AAF807F1080324
:100F400000221A605A609A60DA601A6100237B609E
:100F5000294B1B6C284A43F080531364264B1B6CAF
:100F600003F080537B607B6800233B60234B1B684E
:100F700023F44043214A43F4804313601F4B1B6812
:100F800003F440433B603B680223FB610123BB62E7
:100F90001023FB6202237B630023BB630823FB63F4
:100FA00054233B6402237B640223BB640223FB645F
:100FB00007F11C03184602F0A1FB0346002B01D0E9
:100FC00000F046FB0F23BB600223FB6000233B6164
:100FD0004FF480537B610023BB6107F108030221BA
:100FE000184602F0BFF80346002B01D000F030FB9A
:100FF00000BF5037BD4680BD003802400070004041
:1010000080B584B000AF3B4600221A605A609A60F7
:10101000DA60284B284A1A60264B4FF440325A6057
:10102000244B00229A60234B01221A61214B01229A
:101030001A76204B002283F820201E4B0022DA6211
:101040001C4B1E4A9A621B4B0022DA60194B02228B
:10105000DA61184B012283F83020164B01225A61C5
:10106000144800F081FD0346002B01D000F0F0FA97
:1010700000233B6001237B600723BB603B4619468E
:101080000C4800F0E3FE0346002B01D000F0E0FA2C
:1010900001233B6002237B603B461946054800F074
:1010A000D5FE0346002B01D000F0D2FA00BF103766
:1010B000BD4680BD7C020020002001400100000FE1
:1010C00080B500AF144B154A1A60134B42F2CF02A1
:1010D0005A60114B00229A60B6EE007ADFED107A6A
:1010E00067EE277AB7EE007A77EEC77AFCEEE77AFA
:1010F00017EE902A084BDA60074B00221A61064B64
:1011000000229A61044802F097FD0346002B01D0AB
:1011100000F09EFA00BF80BDD003002000200040F8
:1011200000401C4680B500AF114B124A1A60104BAC
:101130004FF4E1325A600E4B00229A600C4B0022B1
:10114000DA600B4B00221A61094B0C225A61084BE2
:1011500000229A61064B0022DA61054803F040F84C
:101160000346002B01D000F073FA00BF80BD00BF22
:101170008C0300200044004080B582B000AF002303
:101180007B601B4B1B6B1A4A43F400131363184B11
:101190001B6B03F400137B607B6800233B60144BE4
:1011A0001B6B134A43F480031363114B1B6B03F453
:1011B00080033B603B6800220021102001F0D1F940
:1011C000102001F0EAF900220021112001F0C9F9F4
:1011D000112001F0E2F900220021382001F0C1F9CC
:1011E000382001F0DAF900BF0837BD4680BD00BFE6
:1011F0000038024080B58AB000AF07F11403002226
:101200001A605A609A60DA601A6100233B612D4BC4
:101210001B6B2C4A43F0040313632A4B1B6B03F034
:1012200004033B613B690023FB60264B1B6B254A93
:1012300043F080031363234B1B6B03F08003FB60BD
:10124000FB680023BB601F4B1B6B1E4A43F001036E
:1012500013631C4B1B6B03F00103BB60BB680023D3
:101260007B60184B1B6B174A43F002031363154B4B
:101270001B6B03F002037B607B6800222021124875
:1012800001F03CFF4FF400537B61104BBB61002326
:10129000FB6107F1140319460D4801F09BFD202363
:1012A0007B610123BB610023FB6100233B6207F1EB
:1012B00014031946044801F08DFD00BF2837BD46D0
:1012C00080BD00BF00380240000002400000211035
:1012D0000008024080B582B000AF786000F092F95B
:1012E0000346012B04D000F08DF90346022B06D1F2
:1012F000074802F0F1FC2021064801F018FF032204
:101300000549064803F026F800BF0837BD4680BDF2
:10131000D0030020000002400C0200208C030020BB
:10132000F0B58DB002AF78607B681B68A84A934225
:1013300040F049816B461E46A64B1B780133DAB25A
:10134000A44B1A7000F05EF90346012B15D1A24B95
:101350001B8807EE903AF8EEE77A9FEDA07A67EEE9
:10136000876A9FED9F7AF7EE007A37EE677AC6EECE
:10137000877A9C4BC3ED007A25E000F043F90346E1
:10138000022B15D1944B5B8807EE903AF8EEE77A82
:101390009FED927A67EE876A9FED917AF7EE007A79
:1013A00037EE677AC6EE877A8E4BC3ED007A0AE095
:1013B00000F028F90346002B05D1864B00221A7055
:1013C000894802F0F9FC874B93ED007AF2EE046A4B
:1013D000C7EE267A854BC3ED007A824B1B68184610
:1013E000FFF7D2F802460B46CDE90023804A0021E0
:1013F000002004F0BFFA78627C4B1B681846FFF7A8
:10140000C3F802460B46CDE90023794A00210020AB
:1014100004F0B0FA38626F4B1B7807EE903AF8EEA2
:10142000E77AB6EE007A67EE877A17EE900AFFF752
:10143000ABF802460B46CDE900236D4A002100209F
:1014400004F098FAF8617A6A3B6A1A44FB6913441B
:101450000633BB61BC69631E7B61234618464FF0AF
:1014600000014FF000024FF00003CB0043EA50733D
:10147000C200234618464FF000014FF000024FF023
:101480000003CB0043EA5073C20023460733DB0856
:10149000DB00ADEB030D02AB00333B613C697D6AC1
:1014A000504B1B681846FFF76FF802460B46CDE914
:1014B0000023504A2946204604F05CFA3A697B6AC8
:1014C00013443B220121184604F054FA3A697B6A1E
:1014D0000133D4183D6A454B1B681846FFF754F892
:1014E00002460B46CDE90023424A2946204604F035
:1014F00041FA3A69796A3B6A0B44013313443B224F
:101500000121184604F036FA3A69796A3B6A0B44BD
:101510000233D418FD692F4B1B7807EE903AF8EE92
:10152000E77AB6EE007A67EE877A17EE900AFFF751
:101530002BF802460B46CDE900232E4A29462046C9
:1015400004F018FABB695C1C631EFB602346184656
:101550004FF000014FF000024FF00003CB0043EAD0
:101560005073C200234618464FF000014FF00002AE
:101570004FF00003CB0043EA5073C2002346073309
:10158000DB08DB00ADEB030D02AB0033BB60BB68D7
:101590003A691949184604F021FAB968BB699BB247
:1015A00001339BB21A46154802F068FE094B1A78BF
:1015B000134B1B789A4205D1064B00221A700A4839
:1015C00002F0FAFBB54600BF2C37BD46F0BD00BFA8
:1015D00000200040FC0100207402002033335340FF
:1015E0000000804578020020D00300202403002062
:1015F000F07E0008F87E0008FC7E00088C030020C6
:101600000000002080B400AF104B1B78332B09D1B1
:101610000E4B5B78562B05D10C4B9B78332B01D1AD
:1016200001230EE0094B1B782B2B09D1074B5B786C
:10163000352B05D1054B9B78562B01D1022300E0B9
:1016400000231846BD465DF8047B70470C0200205D
:1016500080B400AF72B600BFFEE7000080B582B074
:1016600000AF00237B60104B5B6C0F4A43F4804358
:1016700053640D4B5B6C03F480437B607B680023F9
:101680003B60094B1B6C084A43F080531364064BC4
:101690001B6C03F080533B603B68072000F056FF53
:1016A00000BF0837BD4680BD0038024080B58AB013
:1016B00000AF786007F1140300221A605A609A6044
:1016C000DA601A617B681B682F4A934257D1002366
:1016D0003B612E4B5B6C2D4A43F4807353642B4B60
:1016E0005B6C03F480733B613B690023FB60274B19
:1016F0001B6B264A43F001031363244B1B6B03F05F
:101700000103FB60FB6803237B610323BB610023B0
:10171000FB6107F1140319461D4801F05BFB1D4BEB
:101720001D4A1A601B4B00225A601A4B00229A6015
:10173000184B0022DA60174B4FF480621A61154B88
:101740004FF400625A61134B4FF400529A61114BEF
:101750004FF48072DA610F4B00221A620D4B0022A7
:101760005A620C4800F034FF0346002B01D0FFF70B
:101770006FFF7B68074A9A63064A7B68936300BFE2
:101780002837BD4680BD00BF002001400038024020
:1017900000000240280300201064024080B584B09D
:1017A00000AF78607B681B680E4A934215D1002316
:1017B000FB600D4B1B6C0C4A43F4807313640A4BA3
:1017C0001B6C03F48073FB60FB68002200212D205A
:1017D00000F0C7FE2D2000F0E0FE00BF1037BD4630
:1017E00080BD00BF002000400038024080B58AB0B4
:1017F00000AF786007F1140300221A605A609A6003
:10180000DA601A617B681B684B4A934240F0908013
:1018100000233B61494B1B6C484A43F4003313647B
:10182000464B1B6C03F400333B613B690023FB60B8
:10183000424B1B6B414A43F0010313633F4B1B6B4D
:1018400003F00103FB60FB680C237B610223BB6197
:101850000023FB6103233B6207237B6207F1140330
:101860001946374801F0B6FA364B374A1A60354BFD
:101870004FF000625A60334B00229A60314B0022D5
:10188000DA60304B4FF480621A612E4B00225A61AD
:101890002C4B00229A612B4B0022DA61294B00224B
:1018A0001A62284B00225A62264800F091FE034635
:1018B000002B01D0FFF7CCFE7B68224A9A63214AB5
:1018C0007B689363214B224A1A60204B4FF00062E1
:1018D0005A601E4B40229A601C4B0022DA601B4B60
:1018E0004FF480621A61194B00225A61174B002293
:1018F0009A61164B0022DA61144B00221A62134BD4
:1019000000225A62114800F063FE0346002B01D00A
:10191000FFF79EFE7B680D4A5A630C4A7B6893630F
:1019200000220021262000F01CFE262000F035FEBB
:1019300000BF2837BD4680BD00440040003802404B
:10194000000002401402002088600240C40200200F
:10195000A060024080B400AFFEE780B400AFFEE7B5
:1019600080B400AFFEE780B400AFFEE780B400AF04
:10197000FEE780B400AF00BFBD465DF8047B704752
:1019800080B400AF00BFBD465DF8047B704780B4F3
:1019900000AF00BFBD465DF8047B704780B500AF67
:1019A00000F0C2F800BF80BD80B500AF024800F073
:1019B000A7FF00BF80BD00BF1402002080B500AFAC
:1019C000024800F09DFF00BF80BD00BFC4020020A0
:1019D00080B500AF024802F0EDFC00BF80BD00BF43
:1019E0008C03002080B500AF024802F014FA00BF5B
:1019F00080BD00BFD003002080B500AF024800F0DA
:101A00007FFF00BF80BD00BF2803002080B400AF6F
:101A1000064BD3F88830054A43F47003C2F8883087
:101A200000BFBD465DF8047B704700BF00ED00E0DD
:101A3000DFF834D00D480E490E4A002302E0D45896
:101A4000C4500433C4188C42F9D30B4A0B4C002306
:101A500001E013600432A242FBD3FFF7D7FF03F08B
:101A6000F3FAFFF73DFA7047000002200000002063
:101A7000E001002014830008E00100202C04002075
:101A8000FEE7000080B500AF0E4B1B680D4A43F423
:101A9000007313600B4B1B680A4A43F480631360A6
:101AA000084B1B68074A43F480731360032000F05F
:101AB0004DFD002000F008F8FFF7D0FD0023184688
:101AC00080BD00BF003C024080B582B000AF7860AE
:101AD000124B1A68124B1B7819464FF47A73B3FBFA
:101AE000F1F3B2FBF3F3184600F065FD0346002B5B
:101AF00001D001230EE07B680F2B0AD80022796801
:101B00004FF0FF3000F02DFD064A7B681360002384
:101B100000E0012318460837BD4680BD04000020C0
:101B20000C0000200800002080B400AF064B1B789A
:101B30001A46064B1B681344044A136000BFBD4697
:101B40005DF8047B704700BF0C00002018040020E3
:101B500080B400AF034B1B681846BD465DF8047B9C
:101B6000704700BF1804002080B584B000AF7860D3
:101B70000023FB737B68002B01D1012333E07B68DA
:101B80001B6C002B09D17868FFF790FD7B68002261
:101B90005A647B68002283F83C207B681B6C03F04E
:101BA0001003002B18D17B681B6C23F4885323F09F
:101BB000020343F002027B681A64786800F078FA46
:101BC0007B6800225A647B681B6C23F0030343F09C
:101BD00001027B681A6401E00123FB737B68002229
:101BE00083F83C20FB7B18461037BD4680BD0000C3
:101BF00080B586B000AFF860B9607A6000233B61C1
:101C0000FB6893F83C30012B01D10223E9E0FB682B
:101C1000012283F83C20FB681B689B6803F00103EA
:101C2000012B18D0FB681B689A68FB681B6842F0A0
:101C300001029A606D4B1B686D4AA2FB03239A0C4C
:101C400013465B0013443B6102E03B69013B3B618F
:101C50003B69002BF9D1FB681B689B6803F4807318
:101C6000B3F5807F07D1FB681B689A68FB681B6827
:101C700022F480729A60FB681B689B6803F0010382
:101C8000012B40F0A180FB681B6C23F4E06323F080
:101C9000010343F48072FB681A64FB681B685B688D
:101CA00003F48063002B07D0FB681B6C23F44053C4
:101CB00043F48052FB681A64FB681B6C03F4805386
:101CC000B3F5805F06D1FB685B6C23F00602FB680E
:101CD0005A6402E0FB6800225A64FB68002283F821
:101CE0003C20444B7B61FB689B6B434ADA63FB6897
:101CF0009B6B424A1A64FB689B6B414ADA64FB683F
:101D00001B686FF022021A60FB681B685A68FB6848
:101D10001B6842F080625A60FB681B689A68FB6827
:101D20001B6842F480729A60FB68986BFB681B68C2
:101D30004C331946BA687B6800F0F8FC7B695B6835
:101D400003F01F03002B2AD1FB681B682D4A934226
:101D500015D0FB681B682C4A934205D1254B5B6864
:101D600003F01F03002B0AD0FB681B68274A93422D
:101D700036D1204B5B6803F01003002B30D1FB6899
:101D80001B689B6803F04053002B29D1FB681B683C
:101D90009A68FB681B6842F080429A6020E0FB680A
:101DA0001B68184A93421BD1FB681B689B6803F0B1
:101DB0004053002B14D1FB681B689A68FB681B68B2
:101DC00042F080429A600BE0FB681B6C43F010020B
:101DD000FB681A64FB685B6C43F00102FB685A64A1
:101DE000002318461837BD4680BD00BF0400002000
:101DF00083DE1B4300230140A9220008632300085F
:101E00007F23000800200140002101400022014002
:101E100080B483B000AF786000BF0C37BD465DF87A
:101E2000047B704780B483B000AF786000BF0C378C
:101E3000BD465DF8047B704780B483B000AF786026
:101E400000BF0C37BD465DF8047B704780B485B099
:101E500000AF786039600023BB607B6893F83C304A
:101E6000012B01D1022313E17B68012283F83C207E
:101E70003B681B68092B25D97B681B68D9683B68C0
:101E80001B689BB21A4613465B0013441E3B072295
:101E900002FA03F3DA437B681B680A40DA607B6866
:101EA0001B68D9683B689A683B681B689BB21846F8
:101EB00003465B0003441E3B9A407B681B680A4351
:101EC000DA6022E07B681B6819693B681B689BB27B
:101ED0001A4613465B001344072202FA03F3DA435F
:101EE0007B681B680A401A617B681B6819693B683C
:101EF0009A683B681B689BB2184603465B00034424
:101F00009A407B681B680A431A613B685B68062B32
:101F100024D87B681B68596B3B685A6813469B0042
:101F20001344053B1F2202FA03F3DA437B681B6864
:101F30000A405A637B681B68596B3B681B689BB2FD
:101F400018463B685A6813469B001344053B00FA49
:101F500003F27B681B680A435A634CE03B685B688A
:101F60000C2B24D87B681B68196B3B685A68134696
:101F70009B001344233B1F2202FA03F3DA437B68DE
:101F80001B680A401A637B681B68196B3B681B68F7
:101F90009BB218463B685A6813469B001344233B88
:101FA00000FA03F27B681B680A431A6323E07B682C
:101FB0001B68D96A3B685A6813469B001344413B2F
:101FC0001F2202FA03F3DA437B681B680A40DA62D5
:101FD0007B681B68D96A3B681B689BB218463B68E4
:101FE0005A6813469B001344413B00FA03F27B6896
:101FF0001B680A43DA62294BFB607B681B68284A2E
:1020000093420FD13B681B68122B0BD1FB685B68B6
:1020100023F40002FB685A60FB685B6843F48002AB
:10202000FB685A607B681B681D4A93422BD13B6852
:102030001B681C4A934203D03B681B68112B22D1BA
:10204000FB685B6823F48002FB685A60FB685B688E
:1020500043F40002FB685A603B681B68114A9342D4
:1020600011D1114B1B68114AA2FB03239A0C134692
:102070009B0013445B00BB6002E0BB68013BBB609C
:10208000BB68002BF9D17B68002283F83C20002339
:1020900018461437BD465DF8047B704700230140A5
:1020A00000200140120000100400002083DE1B43CA
:1020B00080B485B000AF7860794BFB60FB685B68EB
:1020C00023F44032FB685A60FB685A687B685B689F
:1020D0001A43FB685A607B681B685A687B681B68F8
:1020E00022F480725A607B681B6859687B681B69A0
:1020F0001A027B681B680A435A607B681B685A682F
:102100007B681B6822F040725A607B681B685968C4
:102110007B689A687B681B680A435A607B681B6807
:102120009A687B681B6822F400629A607B681B686F
:1021300099687B68DA687B681B680A439A607B68E9
:102140009B6A584A934222D07B681B689A687B68D6
:102150001B6822F070629A607B681B6899687B68D4
:102160009A6A7B681B680A439A607B681B689A6856
:102170007B681B6822F040529A607B681B689968F4
:102180007B68DA6A7B681B680A439A600FE07B68A9
:102190001B689A687B681B6822F070629A607B6893
:1021A0001B689A687B681B6822F040529A607B68C3
:1021B0001B689A687B681B6822F002029A607B6841
:1021C0001B6899687B681B7E5A007B681B680A4302
:1021D0009A607B6893F82030002B1BD07B681B68CB
:1021E0005A687B681B6842F400625A607B681B680F
:1021F0005A687B681B6822F460425A607B681B68DF
:1022000059687B685B6A013B5A037B681B680A4319
:102210005A6007E07B681B685A687B681B6822F479
:1022200000625A607B681B68DA6A7B681B6822F46C
:102230007002DA627B681B68D96A7B68DB69013BE4
:102240001A057B681B680A43DA627B681B689A6818
:102250007B681B6822F400729A607B681B6899682F
:102260007B6893F830305A027B681B680A439A6097
:102270007B681B689A687B681B6822F480629A609E
:102280007B681B6899687B685B699A027B681B683E
:102290000A439A6000BF1437BD465DF8047B70475F
:1022A000002301400100000F80B584B000AF7860CA
:1022B0007B689B6BFB60FB681B6C03F05003002B7F
:1022C0003CD1FB681B6C43F40072FB681A64FB682A
:1022D0001B689B6803F04053002B2BD1FB681B7ECF
:1022E000002B27D1FB681B68DB6A03F47003002B0B
:1022F00006D0FB681B689B6803F48063002B19D130
:10230000FB681B685A68FB681B6822F020025A6051
:10231000FB681B6C23F48072FB681A64FB681B6CFF
:1023200003F48053002B05D1FB681B6C43F00102C2
:10233000FB681A64F868FFF76BFD0EE0FB681B6C26
:1023400003F01003002B03D0F868FFF775FD04E0DD
:10235000FB689B6BDB6C7868984700BF1037BD4605
:1023600080BD80B584B000AF78607B689B6BFB60FC
:10237000F868FFF757FD00BF1037BD4680BD80B538
:1023800084B000AF78607B689B6BFB60FB68402289
:102390001A64FB685B6C43F00402FB685A64F868DB
:1023A000FFF74AFD00BF1037BD4680BD80B485B041
:1023B00000AF78607B6803F00703FB600C4BDB68C1
:1023C000BB60BA684FF6FF031340BB60FB681A029C
:1023D000BB68134343F0BF6343F40033BB60044A5C
:1023E000BB68D36000BF1437BD465DF8047B7047FF
:1023F00000ED00E080B400AF044BDB681B0A03F083
:1024000007031846BD465DF8047B704700ED00E009
:1024100080B483B000AF0346FB7197F90730002BFF
:102420000BDBFB7903F01F02074997F907305B09C3
:10243000012000FA02F241F8232000BF0C37BD460C
:102440005DF8047B704700BF00E100E080B483B01A
:1024500000AF03463960FB7197F90730002B0ADBA8
:102460003B68DAB20C4997F907301201D2B20B443B
:1024700083F800230AE03B68DAB20849FB7903F0ED
:102480000F03043B1201D2B20B441A7600BF0C3783
:10249000BD465DF8047B704700E100E000ED00E020
:1024A00080B489B000AFF860B9607A60FB6803F06F
:1024B0000703FB61FB69C3F10703042B28BF042357
:1024C000BB61FB690433062B02D9FB69033B00E0C7
:1024D00000237B614FF0FF32BB6902FA03F3DA435A
:1024E000BB681A407B699A404FF0FF317B6901FA63
:1024F00003F3D9437B680B40134318462437BD468A
:102500005DF8047B7047000080B582B000AF786052
:102510007B68013BB3F1807F01D301230FE00A4ABE
:102520007B68013B53600F214FF0FF30FFF78EFFB8
:10253000054B00229A60044B07221A6000231846BC
:102540000837BD4680BD00BF10E000E080B582B016
:1025500000AF78607868FFF729FF00BF0837BD46F5
:1025600080BD80B586B000AF0346B9607A60FB736A
:1025700000237B61FFF73EFF78617A68B96878696C
:10258000FFF78EFF024697F90F3011461846FFF706
:102590005DFF00BF1837BD4680BD80B582B000AF7B
:1025A0000346FB7197F907301846FFF731FF00BF6C
:1025B0000837BD4680BD80B582B000AF78607868CE
:1025C000FFF7A2FF034618460837BD4680BD00004E
:1025D00080B586B000AF786000237B61FFF7B8FA62
:1025E00038617B68002B01D1012399E07B680022D0
:1025F00083F834207B68022283F835207B681B68CF
:102600001A687B681B6822F001021A600FE0FFF76E
:102610009FFA02463B69D31A052B08D97B68202212
:102620005A657B68032283F83520032378E07B68B2
:102630001B681B6803F00103002BE8D17B681B6853
:102640001B687B617A69384B13407B617B685A68F1
:102650007B689B681A437B68DB681A437B681B694D
:102660001A437B685B691A437B689B691A437B68E2
:10267000DB691A437B681B6A13437A6913437B61E6
:102680007B685B6A042B07D17B68DA6A7B681B6B0B
:1026900013437A6913437B617B681B687A691A600C
:1026A0007B681B685B697B617B6923F007037B6147
:1026B0007B685B6A7A6913437B617B685B6A042B86
:1026C00017D17B689B6A7A6913437B617B68DB6AFD
:1026D000002B0ED0786800F001FB0346002B08D0D9
:1026E0007B6840225A657B68012283F835200123EC
:1026F00016E07B681B687A695A61786800F0B8FA5E
:102700000346FB607B68DB6D3F229A40FB689A6062
:102710007B6800225A657B68012283F835200023FC
:1027200018461837BD4680BD3F8010F080B586B092
:1027300000AFF860B9607A603B600023FB75FB680E
:102740009B6D3B61FB6893F83430012B01D1022370
:1027500040E0FB68012283F83420FB6893F83530B1
:10276000DBB2012B2FD1FB68022283F83520FB68F6
:1027700000225A653B687A68B968F86800F04AFA3E
:10278000FB68DB6D3F229A403B699A60FB681B68DF
:102790001A68FB681B6842F016021A60FB681B6C23
:1027A000002B07D0FB681B681A68FB681B6842F0A7
:1027B00008021A60FB681B681A68FB681B6842F015
:1027C00001021A6005E0FB68002283F8342002232E
:1027D000FB75FB7D18461837BD4680BD80B584B0BB
:1027E00000AF78607B689B6DFB60FFF7B1F9B86064
:1027F0007B6893F83530DBB2022B08D07B688022EF
:102800005A657B68002283F83420012352E07B68FC
:102810001B681A687B681B6822F016021A607B68C6
:102820001B685A697B681B6822F080025A617B68CA
:102830001B6C002B03D17B689B6C002B07D07B6843
:102840001B681A687B681B6822F008021A607B68A4
:102850001B681A687B681B6822F001021A6013E08B
:10286000FFF776F90246BB68D31A052B0CD97B68B3
:1028700020225A657B68002283F834207B6803227B
:1028800083F83520032315E07B681B681B6803F081
:102890000103002BE4D17B68DB6D3F229A40FB688B
:1028A0009A607B68002283F834207B68012283F8D9
:1028B0003520002318461037BD4680BD80B483B054
:1028C00000AF78607B6893F83530DBB2022B04D020
:1028D0007B6880225A6501230CE07B68052283F81F
:1028E00035207B681B681A687B681B6822F0010230
:1028F0001A60002318460C37BD465DF8047B70470C
:1029000080B586B000AF78600023BB60924B1B6837
:10291000924AA2FB03239B0A7B617B689B6D3B6110
:102920003B691B68FB607B68DB6D08229A40FB6893
:102930001340002B1AD07B681B681B6803F004034C
:10294000002B13D07B681B681A687B681B6822F019
:1029500004021A607B68DB6D08229A403B699A602A
:102960007B685B6D43F001027B685A657B68DB6DB9
:1029700001229A40FB681340002B12D07B681B6831
:102980005B6903F08003002B0BD07B68DB6D0122B9
:102990009A403B699A607B685B6D43F002027B68FA
:1029A0005A657B68DB6D04229A40FB681340002B5C
:1029B00012D07B681B681B6803F00203002B0BD04E
:1029C0007B68DB6D04229A403B699A607B685B6D93
:1029D00043F004027B685A657B68DB6D10229A40E5
:1029E000FB681340002B43D07B681B681B6803F017
:1029F0000803002B3CD07B68DB6D10229A403B69BA
:102A00009A607B681B681B6803F48023002B18D036
:102A10007B681B681B6803F40023002B08D17B68CC
:102A20001B6C002B24D07B681B6C786898471FE0D8
:102A30007B689B6C002B1BD07B689B6C78689847ED
:102A400016E07B681B681B6803F48073002B07D1BA
:102A50007B681B681A687B681B6822F008021A6092
:102A60007B681B6C002B03D07B681B6C78689847D5
:102A70007B68DB6D20229A40FB681340002B00F03E
:102A80008E807B681B681B6803F01003002B00F02E
:102A900086807B68DB6D20229A403B699A607B6868
:102AA00093F83530DBB2052B36D17B681B681A688A
:102AB0007B681B6822F016021A607B681B685A69E3
:102AC0007B681B6822F080025A617B681B6C002BBC
:102AD00003D17B689B6C002B07D07B681B681A684E
:102AE0007B681B6822F008021A607B68DB6D3F225E
:102AF0009A403B699A607B68002283F834207B68A7
:102B0000012283F835207B681B6D002B7DD07B680C
:102B10001B6D7868984778E07B681B681B6803F436
:102B20008023002B1CD07B681B681B6803F40023E8
:102B3000002B08D17B685B6C002B30D07B685B6C12
:102B4000786898472BE07B68DB6B002B27D07B688D
:102B5000DB6B7868984722E004000020B5814E1BAB
:102B60007B681B681B6803F48073002B0FD17B68A4
:102B70001B681A687B681B6822F010021A607B6869
:102B8000002283F834207B68012283F835207B689B
:102B9000DB6B002B03D07B68DB6B786898477B6826
:102BA0005B6D002B32D07B685B6D03F00103002B63
:102BB00022D07B68052283F835207B681B681A6861
:102BC0007B681B6822F001021A60BB680133BB609E
:102BD0007A699A4207D37B681B681B6803F001037C
:102BE000002BF2D100E000BF7B68002283F8342084
:102BF0007B68012283F835207B68DB6C002B05D0D5
:102C00007B68DB6C7868984700E000BF1837BD46EA
:102C100080BD00BF80B485B000AFF860B9607A6055
:102C20003B60FB681B681A68FB681B6822F4802203
:102C30001A60FB681B683A685A60FB689B68402B07
:102C400008D1FB681B687A689A60FB681B68BA68E1
:102C5000DA6007E0FB681B68BA689A60FB681B686B
:102C60007A68DA6000BF1437BD465DF8047B7047B0
:102C700080B485B000AF78607B681B68DBB2103B26
:102C8000144AA2FB03231B09FB60134AFB6813448D
:102C90001B781A467B68DA65FB68032B09D97B68C9
:102CA0001B6823F47F7323F003031A1D7B689A6566
:102CB00007E07B681B6823F47F7323F003037A68C3
:102CC00093657B689B6D18461437BD465DF8047BA1
:102CD000704700BFABAAAAAA1C7F000880B485B0C9
:102CE00000AF78600023FB737B689B6ABB607B68E6
:102CF0009B69002B1FD1BB68032B56D801A252F849
:102D000023F000BF152D0008272D0008152D000801
:102D1000AB2D00087B68DB6A03F08073002B46D084
:102D20000123FB7343E07B68DB6AB3F1C07F40D1D2
:102D30000123FB733DE07B689B69B3F5005F21D104
:102D4000BB68032B37D801A252F823F05D2D000891
:102D5000632D00085D2D0008752D00080123FB730D
:102D600030E07B68DB6A03F08073002B25D0012301
:102D7000FB7322E07B68DB6AB3F1C07F1FD10123C4
:102D8000FB731CE0BB68022B03D9BB68032B03D089
:102D900018E00123FB7315E07B68DB6A03F08073A6
:102DA000002B0ED00123FB730BE000BF0AE000BF35
:102DB00008E000BF06E000BF04E000BF02E000BF83
:102DC00000E000BFFB7B18461437BD465DF8047B6E
:102DD000704700BF80B489B000AF786039600023CD
:102DE0007B6100233B610023BB610023FB6165E144
:102DF0000122FB6902FA03F37B613B681B687A6975
:102E000013403B613A697B699A4240F054813B68C8
:102E10005B6803F00303012B05D03B685B6803F09C
:102E20000303022B30D17B689B68BB61FB695B00AD
:102E3000032202FA03F3DB43BA691340BB613B6828
:102E4000DA68FB695B0002FA03F3BA691343BB61FA
:102E50007B68BA699A607B685B68BB610122FB6929
:102E600002FA03F3DB43BA691340BB613B685B685A
:102E70001B0903F00102FB6902FA03F3BA69134369
:102E8000BB617B68BA695A603B685B6803F0030307
:102E9000032B17D07B68DB68BB61FB695B000322F7
:102EA00002FA03F3DB43BA691340BB613B689A68DB
:102EB000FB695B0002FA03F3BA691343BB617B68E9
:102EC000BA69DA603B685B6803F00303022B23D125
:102ED000FB69DA087B68083253F82230BB61FB6972
:102EE00003F007039B000F2202FA03F3DB43BA69E6
:102EF0001340BB613B681A69FB6903F007039B0041
:102F000002FA03F3BA691343BB61FB69DA087B6811
:102F10000832B96943F822107B681B68BB61FB6902
:102F20005B00032202FA03F3DB43BA691340BB617F
:102F30003B685B6803F00302FB695B0002FA03F382
:102F4000BA691343BB617B68BA691A603B685B6806
:102F500003F08053002B00F0AE800023FB605D4B3C
:102F60005B6C5C4A43F4804353645A4B5B6C03F4E0
:102F70008043FB60FB68584AFB699B08023352F8A8
:102F80002330BB61FB6903F003039B000F2202FAAD
:102F900003F3DB43BA691340BB617B684F4A93423A
:102FA00025D07B684E4A93421FD07B684D4A93429E
:102FB00019D07B684C4A934213D07B684B4A9342AA
:102FC0000DD07B684A4A934207D07B68494A9342B6
:102FD00001D106230CE007230AE0052308E00423BF
:102FE00006E0032304E0022302E0012300E00023C3
:102FF000FA6902F0030292009340BA691343BB617D
:103000003549FB699B080233BA6941F823203A4BE2
:103010001B68BB613B69DB43BA691340BB613B681A
:103020005B6803F48033002B03D0BA693B69134318
:10303000BB61314ABB6913602F4B5B68BB613B6965
:10304000DB43BA691340BB613B685B6803F4003340
:10305000002B03D0BA693B691343BB61264ABB69A5
:103060005360254B9B68BB613B69DB43BA691340E6
:10307000BB613B685B6803F48013002B03D0BA6923
:103080003B691343BB611C4ABB6993601A4BDB6805
:10309000BB613B69DB43BA691340BB613B685B685A
:1030A00003F40013002B03D0BA693B691343BB61DF
:1030B000114ABB69D360FB690133FB61FB690F2BCC
:1030C0007FF696AE00BF00BF2437BD465DF8047B97
:1030D000704700BF00380240003801400000024045
:1030E0000004024000080240000C024000100240B0
:1030F0000014024000180240003C014080B483B03C
:1031000000AF78600B467B8013467B707B78002B8A
:1031100003D07A887B689A6103E07B881A047B6815
:103120009A6100BF0C37BD465DF8047B704780B4E0
:1031300085B000AF78600B467B807B685B69FB6085
:103140007A88FB6813401A04FB68D9437B880B40DC
:103150001A437B689A6100BF1437BD465DF8047B53
:103160007047000080B584B000AF786039607B683C
:10317000002B01D10123CCE0684B1B6803F00F0347
:103180003A689A420CD9654B3A68D2B21A70634BCE
:103190001B6803F00F033A689A4201D00123B8E09C
:1031A0007B681B6803F00203002B20D07B681B6840
:1031B00003F00403002B05D0594B9B68584A43F495
:1031C000E05393607B681B6803F00803002B05D075
:1031D000534B9B68524A43F460439360504B9B6847
:1031E00023F0F0027B689B684D4913438B607B683A
:1031F0001B6803F00103002B44D07B685B68012B44
:1032000007D1474B1B6803F40033002B19D101236E
:103210007FE07B685B68022B03D07B685B68032BD5
:1032200007D13F4B1B6803F00073002B09D101232A
:103230006FE03B4B1B6803F00203002B01D101231D
:1032400067E0374B9B6823F003027B685B68344977
:1032500013438B60FEF77CFCF8600AE0FEF778FC15
:103260000246FB68D31A41F28832934201D9032304
:103270004FE02B4B9B6803F00C027B685B689B0064
:103280009A42EBD1254B1B6803F00F033A689A4230
:103290000CD2224B3A68D2B21A70204B1B6803F052
:1032A0000F033A689A4201D0012332E07B681B6821
:1032B00003F00403002B08D0194B9B6823F4E05261
:1032C0007B68DB68164913438B607B681B6803F0DF
:1032D0000803002B09D0124B9B6823F460427B68E3
:1032E0001B69DB000E4913438B6000F055F8024662
:1032F0000B4B9B681B0903F00F030A49CB5C22FAB6
:1033000003F3094A1360094B1B681846FEF7DCFB00
:10331000002318461037BD4680BD00BF003C024068
:1033200000380240047F000804000020080000204C
:1033300080B400AF034B1B681846BD465DF8047BA4
:10334000704700BF0400002080B500AFFFF7F0FF1A
:103350000246054B9B689B0A03F007030349CB5CBD
:1033600022FA03F3184680BD00380240147F00089B
:1033700080B500AFFFF7DCFF0246054B9B685B0B97
:1033800003F007030349CB5C22FA03F3184680BD20
:1033900000380240147F00082DE9B04F88B000AF1C
:1033A00000237B610023FB6100233B610023FB6062
:1033B0000023BB61CE4B9B6803F00C030C2B00F287
:1033C0008D8101A252F823F0FD330008DD3600089C
:1033D000DD360008DD36000803340008DD3600085D
:1033E000DD360008DD36000809340008DD36000847
:1033F000DD360008DD3600087D350008BD4BBB61B9
:103400006FE1BD4BBB616CE1B94B5B6803F03F03FF
:103410007B61B74B5B6803F48003002B53D0B44B44
:103420005B689B091A464FF0000340F2FF104FF013
:10343000000102EA00043C600B407B60D7E90045D4
:10344000204629464FF000024FF000034B0143EAAB
:10345000D0634201104619462346C01A2B4661EB41
:1034600003014FF000024FF000038B0143EA906329
:103470008201121A63EB01034FF000004FF00001CC
:10348000D90041EA5271D00002460B46214652183B
:10349000294643EB01010B464FF000004FF00001BD
:1034A000590241EAD251500202460B4610461946D3
:1034B0007B691A464FF00003FDF796FB02460B4668
:1034C0001346FB614CE08A4B5B689B091A464FF040
:1034D000000340F2FF104FF0000102EA000A03EA85
:1034E000010B504659464FF000024FF000034B01CC
:1034F00043EAD063420110461946B0EB0A0061EB83
:103500000B014FF000024FF000038B0143EA906380
:103510008201121A63EB01034FF000004FF000012B
:10352000D90041EA5271D00002460B4612EB0A0262
:1035300043EB0B034FF000004FF00001990241EA0A
:103540009251900202460B46104619467B691A4674
:103550004FF00003FDF748FB02460B461346FB61A4
:10356000634B5B681B0C03F0030301335B003B619F
:10357000FA693B69B2FBF3F3BB61B2E05C4B5B6899
:1035800003F03F037B615A4B5B6803F48003002B1D
:103590004DD0574B5B689B091A464FF0000340F231
:1035A000FF104FF0000102EA000803EA010940465B
:1035B00049464FF000024FF000034B0143EAD0634D
:1035C000420110461946B0EB080061EB09014FF0CB
:1035D00000024FF000038B0143EA90638201121A4C
:1035E00063EB01034FF000004FF00001D90041EA06
:1035F0005271D00002460B4612EB080243EB09035E
:103600004FF000004FF00001590241EAD251500240
:1036100002460B46104619467B691A464FF00003D6
:10362000FDF7E2FA02460B461346FB614AE0304BD7
:103630005B689B091A464FF0000340F2FF104FF001
:10364000000102EA000403EA0105204629464FF082
:1036500000024FF000034B0143EAD06342011046E1
:103660001946001B61EB05014FF000024FF000030B
:103670008B0143EA90638201121A63EB01034FF05E
:1036800000004FF00001D90041EA5271D00002461B
:103690000B46121945EB03034FF000004FF00001F9
:1036A000990241EA9251900202460B461046194691
:1036B0007B691A464FF00003FDF796FA02460B4667
:1036C0001346FB610A4B5B681B0F03F00703FB60AB
:1036D000FA69FB68B2FBF3F3BB6102E0054BBB6127
:1036E00000BFBB6918462037BD46BDE8B08F00BF9C
:1036F000003802400024F40000127A0080B586B041
:1037000000AF78607B68002B01D101238DE27B68DC
:103710001B6803F00103002B00F08380944B9B682F
:1037200003F00C03042B19D0914B9B6803F00C039E
:10373000082B06D18E4B5B6803F48003B3F5800F32
:103740000CD08B4B9B6803F00C030C2B12D1884BD5
:103750005B6803F48003B3F5800F0BD1844B1B68C7
:1037600003F40033002B5BD07B685B68002B57D1E0
:1037700001235AE27B685B68B3F5803F06D17C4B3E
:103780001B687B4A43F4803313601DE07B685B68F1
:10379000B3F5A02F0CD1764B1B68754A43F48023F8
:1037A0001360734B1B68724A43F4803313600BE061
:1037B0006F4B1B686E4A23F4803313606C4B1B689D
:1037C0006B4A23F4802313607B685B68002B13D063
:1037D000FEF7BEF9386108E0FEF7BAF902463B6928
:1037E000D31A642B01D903231FE2614B1B6803F436
:1037F0000033002BF0D014E0FEF7AAF9386108E09E
:10380000FEF7A6F902463B69D31A642B01D90323BC
:103810000BE2574B1B6803F40033002BF0D100E0A0
:1038200000BF7B681B6803F00203002B6FD0504B76
:103830009B6803F00C03002B17D04D4B9B6803F0E3
:103840000C03082B05D14A4B5B6803F48003002B63
:103850000BD0474B9B6803F00C030C2B1CD1444B43
:103860005B6803F48003002B16D1414B1B6803F007
:103870000203002B05D07B68DB68012B01D00123FC
:10388000D3E13B4B1B6823F0F8027B681B69DB002C
:10389000374913430B603AE07B68DB68002B20D08C
:1038A000344B01221A60FEF753F9386108E0FEF745
:1038B0004FF902463B69D31A022B01D90323B4E125
:1038C0002B4B1B6803F00203002BF0D0284B1B6826
:1038D00023F0F8027B681B69DB00254913430B606A
:1038E00015E0244B00221A60FEF732F9386108E037
:1038F000FEF72EF902463B69D31A022B01D90323A6
:1039000093E11B4B1B6803F00203002BF0D17B6893
:103910001B6803F00803002B36D07B685B69002B23
:1039200016D0154B01221A60FEF712F9386108E033
:10393000FEF70EF902463B69D31A022B01D9032385
:1039400073E10B4B5B6F03F00203002BF0D01BE025
:10395000094B00221A60FEF7FBF838610EE0FEF713
:10396000F7F802463B69D31A022B07D903235CE11F
:103970000038024000004742800E47428A4B5B6F8E
:1039800003F00203002BEAD17B681B6803F00403F9
:10399000002B00F097800023FB75834B1B6C03F01A
:1039A0008053002B0FD10023BB607F4B1B6C7E4AE2
:1039B00043F0805313647C4B1B6C03F08053BB605B
:1039C000BB680123FB75794B1B6803F48073002BE4
:1039D00018D1764B1B68754A43F480731360FEF769
:1039E000B7F8386108E0FEF7B3F802463B69D31A2E
:1039F000022B01D9032318E16C4B1B6803F480737D
:103A0000002BF0D07B689B68012B06D1664B1B6FA7
:103A1000654A43F0010313671CE07B689B68052B34
:103A20000CD1614B1B6F604A43F0040313675E4B7C
:103A30001B6F5D4A43F0010313670BE05A4B1B6F8A
:103A4000594A23F001031367574B1B6F564A23F063
:103A5000040313677B689B68002B15D0FEF778F88A
:103A600038610AE0FEF774F802463B69D31A41F266
:103A70008832934201D90323D7E04B4B1B6F03F0ED
:103A80000203002BEED014E0FEF762F838610AE082
:103A9000FEF75EF802463B69D31A41F28832934240
:103AA00001D90323C1E0404B1B6F03F00203002B3D
:103AB000EED1FB7D012B05D13B4B1B6C3A4A23F029
:103AC000805313647B689B69002B00F0AD80364BFC
:103AD0009B6803F00C03082B60D07B689B69022B6A
:103AE00045D1334B00221A60FEF732F8386108E006
:103AF000FEF72EF802463B69D31A022B01D90323A5
:103B000093E0294B1B6803F00073002BF0D17B6816
:103B1000DA697B681B6A1A437B685B6A9B011A43FC
:103B20007B689B6A5B08013B1B041A437B68DB6A6A
:103B30001B061A437B681B6B1B071B4913434B6017
:103B40001B4B01221A60FEF703F8386108E0FDF70D
:103B5000FFFF02463B69D31A022B01D9032364E01D
:103B6000114B1B6803F00073002BF0D05CE0104B8E
:103B700000221A60FDF7ECFF386108E0FDF7E8FF6E
:103B800002463B69D31A022B01D903234DE0064BB1
:103B90001B6803F00073002BF0D145E07B689B6944
:103BA000012B07D1012340E00038024000700040A3
:103BB000600047421F4B5B68FB607B689B69012B81
:103BC00030D0FB6803F480027B68DB699A4229D11C
:103BD000FB6803F03F027B681B6A9A4222D1FA68B5
:103BE00047F6C07313407A68526A9201934219D122
:103BF000FB6803F440327B689B6A5B08013B1B0453
:103C00009A420FD1FB6803F070627B68DB6A1B0687
:103C10009A4207D1FB6803F0E0427B681B6B1B07ED
:103C20009A4201D0012300E0002318461837BD4610
:103C300080BD00BF0038024080B582B000AF786020
:103C40007B68002B01D1012341E07B6893F83D3074
:103C5000DBB2002B06D17B68002283F83C20786819
:103C6000FDF79CFD7B68022283F83D207B681A6883
:103C70007B6804331946104600F0FEF97B68012288
:103C800083F846207B68012283F83E207B6801226E
:103C900083F83F207B68012283F840207B68012263
:103CA00083F841207B68012283F842207B6801224F
:103CB00083F843207B68012283F844207B6801223B
:103CC00083F845207B68012283F83D2000231846B5
:103CD0000837BD4680BD000080B485B000AF786075
:103CE0007B6893F83D30DBB2012B01D001234EE01D
:103CF0007B68022283F83D207B681B68DA687B685A
:103D00001B6842F00102DA607B681B68234A934219
:103D100022D07B681B68B3F1804F1DD07B681B6885
:103D20001F4A934218D07B681B681E4A934213D0E7
:103D30007B681B681C4A93420ED07B681B681B4A39
:103D4000934209D07B681B68194A934204D07B6870
:103D50001B68184A934211D17B681B689B6803F06B
:103D60000703FB60FB68062B10D07B681B681A6892
:103D70007B681B6842F001021A6007E07B681B68E1
:103D80001A687B681B6842F001021A60002318461B
:103D90001437BD465DF8047B704700BF000001404A
:103DA0000004004000080040000C004000040140F6
:103DB000004001400018004080B483B000AF78603C
:103DC0007B681B68DA687B681B6822F00102DA6096
:103DD0007B681B681A6A41F211131340002B0FD144
:103DE0007B681B681A6A40F244431340002B07D1DA
:103DF0007B681B681A687B681B6822F001021A60E6
:103E00007B68012283F83D20002318460C37BD460D
:103E10005DF8047B704780B582B000AF78607B6846
:103E20001B681B6903F00203022B22D17B681B680D
:103E3000DB6803F00203022B1BD17B681B686FF069
:103E400002021A617B6801221A777B681B689B69F2
:103E500003F00303002B03D0786800F0EEF805E0D0
:103E6000786800F0E0F8786800F0F1F87B680022EC
:103E70001A777B681B681B6903F00403042B22D1AB
:103E80007B681B68DB6803F00403042B1BD17B6891
:103E90001B686FF004021A617B6802221A777B6844
:103EA0001B689B6903F44073002B03D0786800F013
:103EB000C4F805E0786800F0B6F8786800F0C7F854
:103EC0007B6800221A777B681B681B6903F0080374
:103ED000082B22D17B681B68DB6803F00803082BE2
:103EE0001BD17B681B686FF008021A617B68042293
:103EF0001A777B681B68DB6903F00303002B03D090
:103F0000786800F09AF805E0786800F08CF8786836
:103F100000F09DF87B6800221A777B681B681B699C
:103F200003F01003102B22D17B681B68DB6803F0C1
:103F30001003102B1BD17B681B686FF010021A61F5
:103F40007B6808221A777B681B68DB6903F440737F
:103F5000002B03D0786800F070F805E0786800F076
:103F600062F8786800F073F87B6800221A777B6843
:103F70001B681B6903F00103012B0ED17B681B68D2
:103F8000DB6803F00103012B07D17B681B686FF02E
:103F900001021A617868FDF7C3F97B681B681B6929
:103FA00003F08003802B0ED17B681B68DB6803F075
:103FB0008003802B07D17B681B686FF080021A6139
:103FC000786800F003F97B681B681B6903F0400305
:103FD000402B0ED17B681B68DB6803F04003402B4D
:103FE00007D17B681B686FF040021A61786800F0A7
:103FF00038F87B681B681B6903F02003202B0ED167
:104000007B681B68DB6803F02003202B07D17B68EB
:104010001B686FF020021A61786800F0CDF800BFCD
:104020000837BD4680BD80B483B000AF786000BF64
:104030000C37BD465DF8047B704780B483B000AF99
:10404000786000BF0C37BD465DF8047B704780B4D4
:1040500083B000AF786000BF0C37BD465DF8047BCD
:10406000704780B483B000AF786000BF0C37BD46A6
:104070005DF8047B7047000080B485B000AF7860C5
:1040800039607B681B68FB607B68404A934213D0B1
:104090007B68B3F1804F0FD07B683D4A93420BD0D1
:1040A0007B683C4A934207D07B683B4A934203D0EB
:1040B0007B683A4A934208D1FB6823F07003FB60A7
:1040C0003B685B68FA681343FB607B682F4A934246
:1040D0002BD07B68B3F1804F27D07B682C4A93426A
:1040E00023D07B682B4A93421FD07B682A4A934295
:1040F0001BD07B68294A934217D07B68284A934299
:1041000013D07B68274A93420FD07B68264A93429C
:104110000BD07B68254A934207D07B68244A9342A0
:1041200003D07B68234A934208D1FB6823F4407391
:10413000FB603B68DB68FA681343FB60FB6823F0B5
:1041400080023B685B691343FB607B68FA681A6016
:104150003B689A687B68DA623B681A687B689A6297
:104160007B680A4A934203D07B680C4A934203D18E
:104170003B681A697B681A637B6801225A6100BF39
:104180001437BD465DF8047B704700BF0000014056
:104190000004004000080040000C00400004014002
:1041A0000040014000440140004801400018004028
:1041B000001C00400020004080B483B000AF786055
:1041C00000BF0C37BD465DF8047B704780B483B0F8
:1041D00000AF786000BF0C37BD465DF8047B7047C8
:1041E00080B582B000AF78607B68002B01D10123DD
:1041F0003FE07B6893F83D30DBB2002B06D17B6853
:10420000002283F83C207868FDF7F0FA7B682422CE
:1042100083F83D207B681B68DA687B681B6822F4A2
:104220000052DA60786800F047FD7B681B681A6905
:104230007B681B6822F490421A617B681B685A698C
:104240007B681B6822F02A025A617B681B68DA6867
:104250007B681B6842F40052DA607B6800221A64B3
:104260007B68202283F83D207B68202283F83E2053
:10427000002318460837BD4680BD000080B586B0D3
:1042800000AFF860B9601346FB80FB6893F83D30DF
:10429000DBB2202B53D1BB68002B02D0FB88002B54
:1042A00001D101234CE0FB6893F83C30012B01D194
:1042B000022345E0FB68012283F83C20BA68FB68D2
:1042C0001A62FB68FA889A84FB68FA88DA84FB68C9
:1042D00000221A64FB68212283F83D20FB685B6B97
:1042E000194ADA63FB685B6B184A1A64FB685B6BFC
:1042F000174ADA64FB685B6B00221A6507F1080352
:104300007B61FB68586B7B691968FB681B68043329
:104310001A46FB88FEF70AFAFB681B686FF040023A
:104320001A60FB68002283F83C20FB681B685A690E
:10433000FB681B6842F080025A61002300E0022300
:1043400018461837BD4680BD75470008C7470008A6
:10435000AF48000880B584B000AFF860B96013467C
:10436000FB80FB6893F83E30DBB2202B1DD1BB688D
:10437000002B02D0FB88002B01D1012316E0FB6843
:1043800093F83C30012B01D102230FE0FB6801229E
:1043900083F83C20FB6800221A63FB881A46B96840
:1043A000F86800F0CFFA034600E002231846103701
:1043B000BD4680BD80B58AB000AF78607B681B6861
:1043C0001B687B627B681B68DB683B627B681B68E1
:1043D0005B69FB610023BB6100237B617B6A03F0A7
:1043E0000F03BB61BB69002B0DD17B6A03F0200377
:1043F000002B08D03B6A03F02003002B03D0786821
:1044000000F0C3FB7CE1BB69002B00F0B180FB69CD
:1044100003F00103002B05D13B6A03F49073002BDA
:1044200000F0A6807B6A03F00103002B0AD03B6AF0
:1044300003F48073002B05D07B681B6C43F00102F2
:104440007B681A647B6A03F00403002B0AD0FB69C3
:1044500003F00103002B05D07B681B6C43F00202C4
:104460007B681A647B6A03F00203002B0AD0FB69A5
:1044700003F00103002B05D07B681B6C43F00402A2
:104480007B681A647B6A03F00803002B0FD03B6A39
:1044900003F02003002B04D1FB6903F00103002B80
:1044A00005D07B681B6C43F008027B681A647B684C
:1044B0001B6C002B00F01F817B6A03F02003002B94
:1044C00007D03B6A03F02003002B02D0786800F08D
:1044D0005CFB7B681B685B6903F04003402B0CBFEF
:1044E00001230023DBB27B617B681B6C03F00803B4
:1044F000002B02D17B69002B31D0786800F09CFA48
:104500007B681B685B6903F04003402B23D17B6809
:104510001B685A697B681B6822F040025A617B68FD
:104520009B6B002B13D07B689B6B774A1A657B686B
:104530009B6B1846FEF7C2F90346002B16D07B682A
:104540009B6B1B6D7A68926B104698470EE07868FB
:1045500000F0FAF80AE0786800F0F6F806E078680B
:1045600000F0F2F87B6800221A64C4E000BFC2E0E9
:104570007B681B6B012B40F0A2807B6A03F0100369
:10458000002B00F09C803B6A03F01003002B00F02E
:1045900096800023FB607B681B681B68FB607B6860
:1045A0001B685B68FB60FB687B681B685B6903F0EA
:1045B0004003402B4FD17B689B6B1B685B683B8241
:1045C0003B8A002B00F099807B689B8D3A8A9A4247
:1045D00080F093807B683A8ADA857B689B6BDB6925
:1045E000B3F5807F2BD07B681B68DA687B681B681B
:1045F00022F48072DA607B681B685A697B681B68EA
:1046000022F001025A617B681B685A697B681B684B
:1046100022F040025A617B68202283F83E207B68AA
:1046200000221A637B681B68DA687B681B6822F0CB
:104630001002DA607B689B6B1846FEF7CFF87B6848
:104640009A8D7B68DB8D9BB2D31A9BB21946786832
:1046500000F084F851E07B689A8D7B68DB8D9BB21B
:10466000D31A7B827B68DB8D9BB2002B47D07B8A81
:10467000002B44D07B681B68DA687B681B6822F4D7
:104680009072DA607B681B685A697B681B6822F04D
:1046900001025A617B68202283F83E207B68002259
:1046A0001A637B681B68DA687B681B6822F010025B
:1046B000DA607B8A1946786800F050F81FE07B6A60
:1046C00003F08003002B08D03B6A03F08003002B2B
:1046D00003D0786800F0F1F912E07B6A03F0400340
:1046E000002B0DD03B6A03F04003002B08D0786804
:1046F00000F033FA04E000BF02E000BF00E000BFBA
:104700002837BD4680BD00BF934A000880B483B0FF
:1047100000AF786000BF0C37BD465DF8047B704782
:1047200080B483B000AF786000BF0C37BD465DF841
:10473000047B704780B483B000AF786000BF0C3753
:10474000BD465DF8047B704780B483B000AF7860ED
:1047500000BF0C37BD465DF8047B704780B483B062
:1047600000AF78600B467B8000BF0C37BD465DF81C
:10477000047B704780B584B000AF78607B689B6B2A
:10478000FB607B681B681B6803F48073002B13D1EC
:10479000FB680022DA84FB681B685A69FB681B68A7
:1047A00022F080025A61FB681B68DA68FB681B68AC
:1047B00042F04002DA6002E0F868FFF7A7FF00BFAE
:1047C0001037BD4680BD80B584B000AF78607B688F
:1047D0009B6BFB60F868FFF7A3FF00BF1037BD4677
:1047E00080BD80B584B000AF78607B689B6BFB6058
:1047F0007B681B681B6803F48073002B2AD1FB685D
:104800000022DA85FB681B68DA68FB681B6822F403
:104810008072DA60FB681B685A69FB681B6822F0CB
:1048200001025A61FB681B685A69FB681B6822F029
:1048300040025A61FB68202283F83E20FB681B6B14
:10484000012B07D1FB681B68DA68FB681B6822F044
:104850001002DA60FB681B6B012B06D1FB689B8D95
:104860001946F868FFF77AFF02E0F868FCF732FDB6
:1048700000BF1037BD4680BD80B584B000AF786002
:104880007B689B6BFB60FB681B6B012B08D1FB6893
:104890009B8D5B089BB21946F868FFF75FFF02E04B
:1048A000F868FFF747FF00BF1037BD4680BD80B5F1
:1048B00084B000AF78600023FB607B689B6BBB60BB
:1048C000BB681B685B6903F08003802B0CBF01236E
:1048D0000023DBB2FB60BB6893F83D30DBB2212BD9
:1048E00008D1FB68002B05D0BB680022DA84B868C9
:1048F00000F08CF8BB681B685B6903F04003402B39
:104900000CBF01230023DBB2FB60BB6893F83E3091
:10491000DBB2222B08D1FB68002B05D0BB6800223C
:10492000DA85B86800F088F8BB681B6C43F01002A9
:10493000BB681A64B868FFF707FF00BF1037BD46B1
:1049400080BD000080B586B000AFF860B960134646
:10495000FB80BA68FB689A62FB68FA889A85FB68F4
:1049600000221A64FB68222283F83E20FB689B6BBE
:10497000234ADA63FB689B6B224A1A64FB689B6BD1
:10498000214ADA64FB689B6B00221A6507F1080371
:104990007B61FB68986BFB681B68043319467B6975
:1049A0001A68FB88FDF7C2FE00233B61FB681B68A9
:1049B0001B683B61FB681B685B683B613B69FB688C
:1049C000002283F83C20FB681B68DA68FB681B68E0
:1049D00042F48072DA60FB681B685A69FB681B68E6
:1049E00042F001025A61FB681B685A69FB681B6848
:1049F00042F040025A61002318461837BD4680BD78
:104A0000E347000879480008AF48000880B483B045
:104A100000AF78607B681B68DA687B681B6822F0EF
:104A2000C002DA607B68202283F83D2000BF0C378B
:104A3000BD465DF8047B704780B483B000AF7860FA
:104A40007B681B68DA687B681B6822F49072DA6006
:104A50007B681B685A697B681B6822F001025A61F7
:104A60007B681B6B012B07D17B681B68DA687B684E
:104A70001B6822F01002DA607B68202283F83E2057
:104A80007B6800221A6300BF0C37BD465DF8047BCB
:104A9000704780B584B000AF78607B689B6BFB602B
:104AA000FB680022DA85FB680022DA84F868FFF7E9
:104AB0004BFE00BF1037BD4680BD80B485B000AF4F
:104AC00078607B6893F83D30DBB2212B3ED17B6868
:104AD0009B68B3F5805F14D17B681B69002B10D1F4
:104AE0007B681B6AFB60FB681B881A467B681B6837
:104AF000C2F308025A607B681B6A9A1C7B681A62C0
:104B000008E07B681B6A591C7A6811621A787B6816
:104B10001B685A607B68DB8C9BB2013B9BB27A6856
:104B20001946D184002B0FD17B681B68DA687B683B
:104B30001B6822F08002DA607B681B68DA687B6899
:104B40001B6842F04002DA60002300E002231846AE
:104B50001437BD465DF8047B704780B582B000AF66
:104B600078607B681B68DA687B681B6822F040020B
:104B7000DA607B68202283F83D207868FFF7C6FD65
:104B8000002318460837BD4680BD80B584B000AF0D
:104B900078607B6893F83E30DBB2222B40F0878050
:104BA0007B689B68B3F5805F17D17B681B69002B1E
:104BB00013D10023FB607B689B6ABB607B681B682A
:104BC0005B689BB2C3F308039AB2BB681A807B6828
:104BD0009B6A9A1C7B689A6226E07B689B6AFB60F2
:104BE0000023BB607B689B68B3F5805F07D07B6860
:104BF0009B68002B0AD17B681B69002B06D17B6860
:104C00001B685B68DAB2FB681A7008E07B681B6897
:104C10005B68DBB203F07F03DAB2FB681A707B6873
:104C20009B6A5A1C7B689A627B68DB8D9BB2013B56
:104C30009BB27A681946D185002B36D17B681B68F8
:104C4000DA687B681B6822F02002DA607B681B68E8
:104C5000DA687B681B6822F48072DA607B681B6804
:104C60005A697B681B6822F001025A617B68202226
:104C700083F83E207B681B6B012B0ED17B681B6881
:104C8000DA687B681B6822F01002DA607B689B8D13
:104C900019467868FFF762FD02E07868FCF71AFBB6
:104CA0007B6800221A63002302E0002300E0022355
:104CB00018461037BD4680BD2DE9F04F9FB000AFBC
:104CC000F866FB6E1B681B6923F44050FB6ED968C5
:104CD000FB6E1A6840EA01031361FB6E9A68FB6E73
:104CE0001B691A43FB6E5B691A43FB6EDB69134356
:104CF0003B67FB6E1B68DB6823F4164121F00C0157
:104D0000FB6E1A683B6F0B43D360FB6E1B685B69DD
:104D100023F44070FB6E9969FB6E1A6840EA010348
:104D20005361FB6E1A68C54B9A4204D0FB6E1A6839
:104D3000C34B9A4203D1FEF71BFB786702E0FEF7F4
:104D400003FB7867FB6EDB69B3F5004F40F0B6807C
:104D50007B6F1C464FF0000522462B4691183964A4
:104D60005B417B64D7E91023121945EB03034FF035
:104D700000004FF00001D90041EA5271D000024614
:104D80000B46111939666B417B66FB6E5B681A46F0
:104D90004FF000039118B9635B41FB63D7E90E2321
:104DA000D7E91801FBF720FF02460B46A54BA3FBF2
:104DB00002235B091E017B6F1C464FF00005224653
:104DC0002B46911839635B417B63D7E90C23121999
:104DD00045EB03034FF000004FF00001D90041EA1A
:104DE0005271D00002460B461119B9656B41FB6543
:104DF000FB6E5B681A464FF000039118B9625B4185
:104E0000FB62D7E90A23D7E91601FBF7EDFE02465C
:104E10000B468C4BA3FB02135B09642101FB03F3DC
:104E2000D31ADB003233874AA2FB03235B095B0002
:104E300003F4F8731E447B6F18464FF000010246DE
:104E40000B4694183C625B417B62D7E90823121839
:104E500041EB03034FF000044FF00005DD0045EA8D
:104E60005275D40022462B4614183C654B417B6595
:104E7000FB6E5B681A464FF000039118B9615B4105
:104E8000FB61D7E90623D7E91401FBF7ADFE024623
:104E90000B466C4BA3FB02135B09642101FB03F37C
:104EA000D31ADB003233674AA2FB03235B0903F00A
:104EB0000702FB6E1B6832449A60B9E07B6F1C46A8
:104EC0004FF0000522462B46911839615B417B610A
:104ED000D7E90423121945EB03034FF000004FF00C
:104EE0000001D90041EA5271D00002460B4612EB94
:104EF000040843EB0509FB6E5B6818464FF00001A0
:104F00004FF000024FF000038B0043EA90738200E1
:104F100040464946FBF768FE02460B46494BA3FB59
:104F200002235B091E017B6F18464FF00001024609
:104F30000B469418BC605B41FB60D7E90223121852
:104F400041EB03034FF000044FF00005DD0045EA9C
:104F50005275D40022462B461418BC644B41FB64A6
:104F6000FB6E5B6818464FF000014FF000024FF0F7
:104F700000038B0043EA90738200D7E91201FBF72C
:104F800033FE02460B462F4BA3FB02135B09642141
:104F900001FB03F3D31A1B0132332A4AA2FB03237A
:104FA0005B0903F0F0031E447B6F18464FF00001CD
:104FB00002460B4694183C605B417B60D7E90023B6
:104FC000121841EB03034FF000044FF00005DD0021
:104FD00045EA5275D40022462B4612EB000A43EBF9
:104FE000010BFB6E5B6818464FF000014FF00002AA
:104FF0004FF000038B0043EA9073820050465946FD
:10500000FBF7F2FD02460B460E4BA3FB02135B09B6
:10501000642101FB03F3D31A1B013233094AA2FBBB
:1050200003235B0903F00F02FB6E1B6832449A6096
:1050300000BF7C37BD46BDE8F08F00BF00100140C7
:10504000001401401F85EB5170B50D4D0D4C641BD4
:10505000A4100026A64209D10B4D0C4C02F03AFFD9
:10506000641BA4100026A64205D170BD55F8043B70
:1050700098470136EEE755F8043B98470136F2E7CA
:105080000C8300080C8300080C83000810830008C0
:1050900002440346934200D1704703F8011BF9E72D
:1050A0002DE9FF4755EC104B002D0E4619462B46B7
:1050B000BBBF05F100431D4600232D230B700D9B44
:1050C000DDF830A0914623F02008BCBF22461446EC
:1050D000B8F1460F05D0B8F1450F00D101360221D5
:1050E00000E0032103AB019302AB009345EC104BAE
:1050F0005346324600F020FDB8F1470F074602D173
:1051000019F0010F22D0B8F1460F07EB060910D1B4
:105110003B78302B0AD10022002320462946FBF79A
:10512000F3FC18B9C6F10106CAF80060DAF80030DD
:1051300099440022002320462946FBF7E5FC08B1EC
:10514000CDF80C903022039B4B4507D3039B0E9A5E
:10515000DB1B3846136004B0BDE8F087591C03918F
:105160001A70F0E7F7B503460029B8BF494203F8C3
:10517000022BB4BF2D222B22092942702ADD0DF10A
:105180000704A4460A27A6460A4691FBF7F607FB42
:1051900016153035632A04F1FF340EF8015C3146F0
:1051A000F1DC3031AEF1020504F8011C441C294643
:1051B00061450AD30DF10902A2EB0E02654588BFD5
:1051C00000221344181A03B0F0BD11F8012B04F8A3
:1051D000012FEDE7302330318370C170031DF1E7FB
:1051E0002DE9F04F2DED028B8DB00C46DDF860807F
:1051F00016461F46054601F08BFAD0F800A050462F
:10520000FBF706F800230A9323680593D8F80030CB
:1052100094F818B0073323F0070303F10802C8F825
:105220000020D3E90023C4E91223D4E9128929F02C
:1052300000430793CDF8188008EE100A9F4BDDE974
:1052400006014FF0FF32FBF791FC88BBDDE9060158
:105250009A4B4FF0FF32FBF76BFC48BB0022002358
:1052600040464946FBF75AFC10B12D2384F84330E1
:10527000934B9448BBF1470F94BF98468046032355
:105280002361059B23F0040222604FF00009009780
:1052900033460BAA2146284600F0D8F9013040F0E9
:1052A00090804FF0FF300DB0BDEC028BBDE8F08F69
:1052B00042464B4640464946FBF758FC40B14B46F8
:1052C000002BBCBF2D2384F843307F487F4BD1E7B0
:1052D00063680BF0DF0206925A1C3FD1062363601D
:1052E000059B616843F48062002303930AABCDE918
:1052F00001B309AB49EC108B009322600DF123033D
:105300002846FFF7CDFE069B0999472B804608D11A
:10531000C81C02DB6368994241DDABF1020B5FFA06
:105320008BFBBBF1650F20D801395A4604F15000C0
:105330000991FFF717FF0A9A1318012A8146236182
:1053400002DC2268D20701D5013323619DF82330A6
:10535000002B9CD02D2384F8433098E7069A472AE7
:10536000BED1002BBCD10123B9E7BBF1660F18D128
:10537000002963680BDD216113B92268D00702D5CB
:1053800001330B442361A1654FF00009DEE713B937
:105390002268D20701D50233F4E70123F2E74FF088
:1053A000670B0A9B994205DB23682161D807EAD580
:1053B0004B1CE7E70029D4BFC1F1020201221344CC
:1053C000E0E723685A0507D4236942463146284658
:1053D000B84701302CD164E7BBF1650F40F2E080A3
:1053E000D4E9120100220023FBF78EFB002834D001
:1053F000374A012331462846B84701303FF451AFC0
:10540000DDE909239A4202DB2368D80710D518EE9C
:10541000103A524631462846B84701303FF441AF72
:105420004FF0000804F11A090A9B013B434509DCCF
:1054300023689B0700F10581E0680B9B9842B8BF89
:10544000184630E701234A4631462846B84701301E
:105450003FF427AF08F10108E6E7099B002B39DC90
:105460001B4A012331462846B84701303FF419AFA3
:10547000DDE90923134302D12368D907D8D518EEF3
:10548000103A524631462846B84701303FF409AF3A
:105490004FF0000904F11A0A099B5B424B4501DCFD
:1054A0000A9B92E70123524631462846B84701300D
:1054B0003FF4F7AE09F10109EEE700BFFFFFEF7F10
:1054C000287F00082C7F0008347F0008307F000808
:1054D000387F00080A9AA36D9A42A8BF1A46002A8C
:1054E000914637DC4FF0000B29EAE97904F11A0202
:1054F000A36D0593A3EB09035B4533DCDDE90923C9
:105500009A423BDB2368DA0738D40A9A059B09994B
:10551000D31AA2EB01099945A8BF9946B9F1000F2A
:1055200035DC4FF0000829EAE97904F11A0ADDE9CF
:1055300009239B1AA3EB090343457FF779AF0123A6
:10554000524631462846B84701303FF4AAAE08F12A
:105550000108ECE71346314642462846B847013079
:10556000C0D19EE60123314628460592B847013056
:105570003FF497AE059A0BF1010BB9E718EE103A1C
:10558000524631462846B8470130BED189E6059AD1
:105590004B46424431462846B8470130C1D180E6E7
:1055A0000A9A012A01DCDB0738D50123424631463D
:1055B0002846B84701303FF474AE18EE103A524610
:1055C00031462846B84701303FF46BAED4E91201AA
:1055D00000220023FBF798FAD8B90A9B08F10102D0
:1055E000013B31462846B84701300ED159E6012328
:1055F000524631462846B84701303FF452AE08F1D2
:1056000001080A9B013B4345F1DC4B4604F1500283
:10561000DCE64FF0000804F11A0AF2E701234246E3
:10562000DFE701234A4631462846B84701303FF4B8
:1056300038AE08F10108E3680B995B1A4345F0DCCA
:10564000FAE64FF0000804F11909F4E72DE9F047F4
:10565000164699468A680B69DDF820809342B8BFE8
:105660001346336091F8432007460C460AB10133D4
:1056700033602368990642BF33680233336025687C
:1056800015F0060506D104F1190AE36832689B1A81
:10569000AB4226DC94F84320131E226818BF012376
:1056A00092062BD404F1430249463846C0470130E4
:1056B0001ED02368E568326803F00603042B08BF98
:1056C000AD1AA36822690CBF25EAE575002593424F
:1056D000C4BF9B1AED1800261A34B5421AD1002017
:1056E00008E00123524649463846C047013003D1FD
:1056F0004FF0FF30BDE8F0870135C6E7E1185A1CCE
:10570000302081F84300224494F8451082F8431079
:105710000233C7E70123224649463846C0470130D5
:10572000E6D00136D9E700002DE9FF470C46914647
:10573000277E0C99782F80469A4604F1430207D8B9
:10574000622F0AD8002F00F0D880582F00F0A380D5
:1057500004F1420684F842703AE0A7F16303152B86
:10576000F6D801A050F823F0C1570008D55700081B
:105770005157000851570008515700085157000869
:10578000D5570008515700085157000851570008D5
:1057900051570008E158000805580008C358000890
:1057A0005157000851570008035900085157000885
:1057B000055800085157000851570008CB580008F9
:1057C0000B681A1D1B680A6004F1420684F8423017
:1057D0000123A3E0256808682E0600F104030AD51A
:1057E00005680B60002D03DA2D236D4284F84330E9
:1057F0005E480A2319E015F0400F05680B6018BFDA
:105800002DB2EFE70B682568181D0860280601D542
:105810001D6802E06906FBD51D8854486F2F0CBF38
:1058200008230A23002184F843106668A660002E2E
:10583000A2BF216821F0040121600DB9002E4DD0D6
:105840001646B5FBF3F103FB1157C75D06F8017D62
:105850002F46BB420D46F4D9082B0BD12368DF0736
:1058600008D5236961689942DEBF302306F8013C00
:1058700006F1FF36921B2261CDF800A04B4603AA29
:1058800021464046FFF7E2FE01304CD14FF0FF3099
:1058900004B0BDE8F087354884F8457023680E6889
:1058A0001F0656F8045B0E6014D5D90744BF43F0B9
:1058B000200323601DB9236823F0200323601023F5
:1058C000B0E7236843F0200323607823284884F856
:1058D0004530E3E75E0648BFADB2E6E71646BBE7F4
:1058E0000B68266860691D1D0D6035061B6801D5B3
:1058F000186002E07106FBD518800023236116466C
:10590000BAE70B681A1D0A601E68626800213046FB
:10591000FAF786FC08B1801B60606368236100238E
:1059200084F84330A8E72369324649464046D047C9
:105930000130ABD023689B0713D4E068039B9842E7
:10594000B8BF1846A4E70123324649464046D0472F
:1059500001309BD00135E36803995B1AAB42F2DC5E
:10596000EBE7002504F11906F5E700BF3A7F0008D0
:105970004B7F00080CB430B5174B0C1E1D689DB052
:1059800008DA8B232B604FF0FF301DB0BDE83040AC
:1059900002B070474FF40273ADF8143014BF04F135
:1059A000FF332346049307934FF6FF73029006904C
:1059B000ADF81630209A21AB02A92846019301F0D8
:1059C00055FB431CBCBF8B232B60002CDDD0029BFE
:1059D00000221A70D9E700BF100000200EB400B5F5
:1059E0009CB01DAB029006906FF0004109480791F2
:1059F0000491094953F8042B05910068019302A909
:105A000001F034FB029B00221A701CB05DF804EB1D
:105A100003B07047100000200802FFFF2DE9F74F88
:105A200003690C69A3420746C0F28180013C01F181
:105A3000140800F1140505EB8403019358F8243091
:105A400055F8242001339A424FEA840B08EB84096D
:105A5000B2FBF3F631D34FF0000E4046AC46F246AF
:105A600050F8042B93B206FB03E34FEA134E9BB2AC
:105A7000AAEB0303120CDCF800A006FB02E213FA07
:105A80008AF34FEA124E1FFA82FADCF80020CAEBC2
:105A9000124202EB23429BB243EA024381454CF897
:105AA000043B4FEA224ADBD255F80B302BB9019B5D
:105AB000043B9D421A462ED33C61384601F0C0F8A3
:105AC000002824DB013628464FF0000C58F8042B40
:105AD000D0F800E093B2ACEB0303120C13FA8EF390
